{
  "_format": "hh-sol-artifact-1",
  "contractName": "TicketMarketplace",
  "sourceName": "contracts/TicketMarketplace.sol",
  "abi": [
    {
      "inputs": [
        {
          "internalType": "address",
          "name": "_owner",
          "type": "address"
        },
        {
          "internalType": "address",
          "name": "_treasuryWallet",
          "type": "address"
        },
        {
          "internalType": "contract IERC20",
          "name": "_tcoin",
          "type": "address"
        }
      ],
      "stateMutability": "nonpayable",
      "type": "constructor"
    },
    {
      "inputs": [
        {
          "internalType": "address",
          "name": "sender",
          "type": "address"
        },
        {
          "internalType": "uint256",
          "name": "tokenId",
          "type": "uint256"
        },
        {
          "internalType": "address",
          "name": "owner",
          "type": "address"
        }
      ],
      "name": "ERC721IncorrectOwner",
      "type": "error"
    },
    {
      "inputs": [
        {
          "internalType": "address",
          "name": "operator",
          "type": "address"
        },
        {
          "internalType": "uint256",
          "name": "tokenId",
          "type": "uint256"
        }
      ],
      "name": "ERC721InsufficientApproval",
      "type": "error"
    },
    {
      "inputs": [
        {
          "internalType": "address",
          "name": "approver",
          "type": "address"
        }
      ],
      "name": "ERC721InvalidApprover",
      "type": "error"
    },
    {
      "inputs": [
        {
          "internalType": "address",
          "name": "operator",
          "type": "address"
        }
      ],
      "name": "ERC721InvalidOperator",
      "type": "error"
    },
    {
      "inputs": [
        {
          "internalType": "address",
          "name": "owner",
          "type": "address"
        }
      ],
      "name": "ERC721InvalidOwner",
      "type": "error"
    },
    {
      "inputs": [
        {
          "internalType": "address",
          "name": "receiver",
          "type": "address"
        }
      ],
      "name": "ERC721InvalidReceiver",
      "type": "error"
    },
    {
      "inputs": [
        {
          "internalType": "address",
          "name": "sender",
          "type": "address"
        }
      ],
      "name": "ERC721InvalidSender",
      "type": "error"
    },
    {
      "inputs": [
        {
          "internalType": "uint256",
          "name": "tokenId",
          "type": "uint256"
        }
      ],
      "name": "ERC721NonexistentToken",
      "type": "error"
    },
    {
      "inputs": [],
      "name": "EnforcedPause",
      "type": "error"
    },
    {
      "inputs": [],
      "name": "ExpectedPause",
      "type": "error"
    },
    {
      "inputs": [
        {
          "internalType": "address",
          "name": "owner",
          "type": "address"
        }
      ],
      "name": "OwnableInvalidOwner",
      "type": "error"
    },
    {
      "inputs": [
        {
          "internalType": "address",
          "name": "account",
          "type": "address"
        }
      ],
      "name": "OwnableUnauthorizedAccount",
      "type": "error"
    },
    {
      "anonymous": false,
      "inputs": [
        {
          "indexed": true,
          "internalType": "address",
          "name": "owner",
          "type": "address"
        },
        {
          "indexed": true,
          "internalType": "address",
          "name": "approved",
          "type": "address"
        },
        {
          "indexed": true,
          "internalType": "uint256",
          "name": "tokenId",
          "type": "uint256"
        }
      ],
      "name": "Approval",
      "type": "event"
    },
    {
      "anonymous": false,
      "inputs": [
        {
          "indexed": true,
          "internalType": "address",
          "name": "owner",
          "type": "address"
        },
        {
          "indexed": true,
          "internalType": "address",
          "name": "operator",
          "type": "address"
        },
        {
          "indexed": false,
          "internalType": "bool",
          "name": "approved",
          "type": "bool"
        }
      ],
      "name": "ApprovalForAll",
      "type": "event"
    },
    {
      "anonymous": false,
      "inputs": [
        {
          "indexed": false,
          "internalType": "uint256",
          "name": "_fromTokenId",
          "type": "uint256"
        },
        {
          "indexed": false,
          "internalType": "uint256",
          "name": "_toTokenId",
          "type": "uint256"
        }
      ],
      "name": "BatchMetadataUpdate",
      "type": "event"
    },
    {
      "anonymous": false,
      "inputs": [
        {
          "indexed": false,
          "internalType": "uint256",
          "name": "eventId",
          "type": "uint256"
        },
        {
          "indexed": false,
          "internalType": "string",
          "name": "name",
          "type": "string"
        },
        {
          "indexed": false,
          "internalType": "uint256",
          "name": "totalTickets",
          "type": "uint256"
        }
      ],
      "name": "EventCreated",
      "type": "event"
    },
    {
      "anonymous": false,
      "inputs": [
        {
          "indexed": false,
          "internalType": "uint256",
          "name": "_tokenId",
          "type": "uint256"
        }
      ],
      "name": "MetadataUpdate",
      "type": "event"
    },
    {
      "anonymous": false,
      "inputs": [
        {
          "indexed": true,
          "internalType": "address",
          "name": "previousOwner",
          "type": "address"
        },
        {
          "indexed": true,
          "internalType": "address",
          "name": "newOwner",
          "type": "address"
        }
      ],
      "name": "OwnershipTransferred",
      "type": "event"
    },
    {
      "anonymous": false,
      "inputs": [
        {
          "indexed": false,
          "internalType": "address",
          "name": "account",
          "type": "address"
        }
      ],
      "name": "Paused",
      "type": "event"
    },
    {
      "anonymous": false,
      "inputs": [
        {
          "indexed": false,
          "internalType": "uint256",
          "name": "ticketId",
          "type": "uint256"
        },
        {
          "indexed": false,
          "internalType": "uint256",
          "name": "price",
          "type": "uint256"
        }
      ],
      "name": "TicketListed",
      "type": "event"
    },
    {
      "anonymous": false,
      "inputs": [
        {
          "indexed": false,
          "internalType": "uint256",
          "name": "ticketId",
          "type": "uint256"
        },
        {
          "indexed": false,
          "internalType": "uint256",
          "name": "eventId",
          "type": "uint256"
        },
        {
          "indexed": false,
          "internalType": "address",
          "name": "buyer",
          "type": "address"
        }
      ],
      "name": "TicketPurchased",
      "type": "event"
    },
    {
      "anonymous": false,
      "inputs": [
        {
          "indexed": false,
          "internalType": "uint256",
          "name": "ticketId",
          "type": "uint256"
        },
        {
          "indexed": false,
          "internalType": "address",
          "name": "from",
          "type": "address"
        },
        {
          "indexed": false,
          "internalType": "address",
          "name": "to",
          "type": "address"
        }
      ],
      "name": "TicketTransferred",
      "type": "event"
    },
    {
      "anonymous": false,
      "inputs": [
        {
          "indexed": true,
          "internalType": "address",
          "name": "from",
          "type": "address"
        },
        {
          "indexed": true,
          "internalType": "address",
          "name": "to",
          "type": "address"
        },
        {
          "indexed": true,
          "internalType": "uint256",
          "name": "tokenId",
          "type": "uint256"
        }
      ],
      "name": "Transfer",
      "type": "event"
    },
    {
      "anonymous": false,
      "inputs": [
        {
          "indexed": false,
          "internalType": "address",
          "name": "account",
          "type": "address"
        }
      ],
      "name": "Unpaused",
      "type": "event"
    },
    {
      "inputs": [
        {
          "internalType": "address",
          "name": "to",
          "type": "address"
        },
        {
          "internalType": "uint256",
          "name": "tokenId",
          "type": "uint256"
        }
      ],
      "name": "approve",
      "outputs": [],
      "stateMutability": "nonpayable",
      "type": "function"
    },
    {
      "inputs": [
        {
          "internalType": "address",
          "name": "owner",
          "type": "address"
        }
      ],
      "name": "balanceOf",
      "outputs": [
        {
          "internalType": "uint256",
          "name": "",
          "type": "uint256"
        }
      ],
      "stateMutability": "view",
      "type": "function"
    },
    {
      "inputs": [
        {
          "internalType": "uint256",
          "name": "ticketId",
          "type": "uint256"
        }
      ],
      "name": "buyResaleTicket",
      "outputs": [],
      "stateMutability": "nonpayable",
      "type": "function"
    },
    {
      "inputs": [
        {
          "internalType": "uint256",
          "name": "eventId",
          "type": "uint256"
        },
        {
          "internalType": "uint256",
          "name": "ticketId",
          "type": "uint256"
        }
      ],
      "name": "buyTicket",
      "outputs": [],
      "stateMutability": "nonpayable",
      "type": "function"
    },
    {
      "inputs": [
        {
          "internalType": "string",
          "name": "name",
          "type": "string"
        },
        {
          "internalType": "string",
          "name": "date",
          "type": "string"
        },
        {
          "internalType": "string",
          "name": "time",
          "type": "string"
        },
        {
          "internalType": "string",
          "name": "location",
          "type": "string"
        },
        {
          "internalType": "string",
          "name": "description",
          "type": "string"
        },
        {
          "internalType": "uint256[]",
          "name": "ticketPrice",
          "type": "uint256[]"
        },
        {
          "internalType": "uint256[]",
          "name": "seatNumber",
          "type": "uint256[]"
        },
        {
          "internalType": "uint256",
          "name": "totalTickets",
          "type": "uint256"
        }
      ],
      "name": "createEvent",
      "outputs": [],
      "stateMutability": "nonpayable",
      "type": "function"
    },
    {
      "inputs": [
        {
          "internalType": "uint256",
          "name": "",
          "type": "uint256"
        }
      ],
      "name": "events",
      "outputs": [
        {
          "internalType": "string",
          "name": "name",
          "type": "string"
        },
        {
          "internalType": "string",
          "name": "date",
          "type": "string"
        },
        {
          "internalType": "string",
          "name": "time",
          "type": "string"
        },
        {
          "internalType": "string",
          "name": "location",
          "type": "string"
        },
        {
          "internalType": "string",
          "name": "description",
          "type": "string"
        },
        {
          "internalType": "uint256",
          "name": "totalTickets",
          "type": "uint256"
        },
        {
          "internalType": "uint256",
          "name": "ticketsSold",
          "type": "uint256"
        },
        {
          "internalType": "address",
          "name": "organizer",
          "type": "address"
        }
      ],
      "stateMutability": "view",
      "type": "function"
    },
    {
      "inputs": [
        {
          "internalType": "uint256",
          "name": "tokenId",
          "type": "uint256"
        }
      ],
      "name": "getApproved",
      "outputs": [
        {
          "internalType": "address",
          "name": "",
          "type": "address"
        }
      ],
      "stateMutability": "view",
      "type": "function"
    },
    {
      "inputs": [
        {
          "internalType": "address",
          "name": "owner",
          "type": "address"
        },
        {
          "internalType": "address",
          "name": "operator",
          "type": "address"
        }
      ],
      "name": "isApprovedForAll",
      "outputs": [
        {
          "internalType": "bool",
          "name": "",
          "type": "bool"
        }
      ],
      "stateMutability": "view",
      "type": "function"
    },
    {
      "inputs": [
        {
          "internalType": "uint256",
          "name": "ticketId",
          "type": "uint256"
        },
        {
          "internalType": "uint256",
          "name": "price",
          "type": "uint256"
        }
      ],
      "name": "listTicketForSale",
      "outputs": [],
      "stateMutability": "nonpayable",
      "type": "function"
    },
    {
      "inputs": [],
      "name": "name",
      "outputs": [
        {
          "internalType": "string",
          "name": "",
          "type": "string"
        }
      ],
      "stateMutability": "view",
      "type": "function"
    },
    {
      "inputs": [],
      "name": "nextEventId",
      "outputs": [
        {
          "internalType": "uint256",
          "name": "",
          "type": "uint256"
        }
      ],
      "stateMutability": "view",
      "type": "function"
    },
    {
      "inputs": [],
      "name": "nextTicketId",
      "outputs": [
        {
          "internalType": "uint256",
          "name": "",
          "type": "uint256"
        }
      ],
      "stateMutability": "view",
      "type": "function"
    },
    {
      "inputs": [],
      "name": "owner",
      "outputs": [
        {
          "internalType": "address",
          "name": "",
          "type": "address"
        }
      ],
      "stateMutability": "view",
      "type": "function"
    },
    {
      "inputs": [
        {
          "internalType": "uint256",
          "name": "tokenId",
          "type": "uint256"
        }
      ],
      "name": "ownerOf",
      "outputs": [
        {
          "internalType": "address",
          "name": "",
          "type": "address"
        }
      ],
      "stateMutability": "view",
      "type": "function"
    },
    {
      "inputs": [],
      "name": "pauseMarketPlace",
      "outputs": [],
      "stateMutability": "nonpayable",
      "type": "function"
    },
    {
      "inputs": [],
      "name": "paused",
      "outputs": [
        {
          "internalType": "bool",
          "name": "",
          "type": "bool"
        }
      ],
      "stateMutability": "view",
      "type": "function"
    },
    {
      "inputs": [],
      "name": "platformFeePercent",
      "outputs": [
        {
          "internalType": "uint256",
          "name": "",
          "type": "uint256"
        }
      ],
      "stateMutability": "view",
      "type": "function"
    },
    {
      "inputs": [],
      "name": "renounceOwnership",
      "outputs": [],
      "stateMutability": "nonpayable",
      "type": "function"
    },
    {
      "inputs": [],
      "name": "resumeMarketPlace",
      "outputs": [],
      "stateMutability": "nonpayable",
      "type": "function"
    },
    {
      "inputs": [],
      "name": "royaltyPercent",
      "outputs": [
        {
          "internalType": "uint256",
          "name": "",
          "type": "uint256"
        }
      ],
      "stateMutability": "view",
      "type": "function"
    },
    {
      "inputs": [
        {
          "internalType": "address",
          "name": "from",
          "type": "address"
        },
        {
          "internalType": "address",
          "name": "to",
          "type": "address"
        },
        {
          "internalType": "uint256",
          "name": "tokenId",
          "type": "uint256"
        }
      ],
      "name": "safeTransferFrom",
      "outputs": [],
      "stateMutability": "nonpayable",
      "type": "function"
    },
    {
      "inputs": [
        {
          "internalType": "address",
          "name": "from",
          "type": "address"
        },
        {
          "internalType": "address",
          "name": "to",
          "type": "address"
        },
        {
          "internalType": "uint256",
          "name": "tokenId",
          "type": "uint256"
        },
        {
          "internalType": "bytes",
          "name": "data",
          "type": "bytes"
        }
      ],
      "name": "safeTransferFrom",
      "outputs": [],
      "stateMutability": "nonpayable",
      "type": "function"
    },
    {
      "inputs": [
        {
          "internalType": "uint256",
          "name": "",
          "type": "uint256"
        }
      ],
      "name": "secondarySaleTicketPrices",
      "outputs": [
        {
          "internalType": "uint256",
          "name": "",
          "type": "uint256"
        }
      ],
      "stateMutability": "view",
      "type": "function"
    },
    {
      "inputs": [
        {
          "internalType": "address",
          "name": "admin",
          "type": "address"
        }
      ],
      "name": "setAdmin",
      "outputs": [],
      "stateMutability": "nonpayable",
      "type": "function"
    },
    {
      "inputs": [
        {
          "internalType": "address",
          "name": "operator",
          "type": "address"
        },
        {
          "internalType": "bool",
          "name": "approved",
          "type": "bool"
        }
      ],
      "name": "setApprovalForAll",
      "outputs": [],
      "stateMutability": "nonpayable",
      "type": "function"
    },
    {
      "inputs": [
        {
          "internalType": "uint256",
          "name": "percentage",
          "type": "uint256"
        }
      ],
      "name": "setPlatformFeePercentage",
      "outputs": [],
      "stateMutability": "nonpayable",
      "type": "function"
    },
    {
      "inputs": [
        {
          "internalType": "uint256",
          "name": "percentage",
          "type": "uint256"
        }
      ],
      "name": "setRoyaltyPercentage",
      "outputs": [],
      "stateMutability": "nonpayable",
      "type": "function"
    },
    {
      "inputs": [
        {
          "internalType": "uint256",
          "name": "eventId",
          "type": "uint256"
        },
        {
          "internalType": "uint256",
          "name": "ticketId",
          "type": "uint256"
        },
        {
          "internalType": "uint256",
          "name": "ticketPrice",
          "type": "uint256"
        }
      ],
      "name": "setTicketPrice",
      "outputs": [],
      "stateMutability": "nonpayable",
      "type": "function"
    },
    {
      "inputs": [
        {
          "internalType": "address",
          "name": "wallet",
          "type": "address"
        }
      ],
      "name": "setTreasuryWallet",
      "outputs": [],
      "stateMutability": "nonpayable",
      "type": "function"
    },
    {
      "inputs": [
        {
          "internalType": "bytes4",
          "name": "interfaceId",
          "type": "bytes4"
        }
      ],
      "name": "supportsInterface",
      "outputs": [
        {
          "internalType": "bool",
          "name": "",
          "type": "bool"
        }
      ],
      "stateMutability": "view",
      "type": "function"
    },
    {
      "inputs": [],
      "name": "symbol",
      "outputs": [
        {
          "internalType": "string",
          "name": "",
          "type": "string"
        }
      ],
      "stateMutability": "view",
      "type": "function"
    },
    {
      "inputs": [],
      "name": "tcoin",
      "outputs": [
        {
          "internalType": "contract IERC20",
          "name": "",
          "type": "address"
        }
      ],
      "stateMutability": "view",
      "type": "function"
    },
    {
      "inputs": [
        {
          "internalType": "uint256",
          "name": "",
          "type": "uint256"
        }
      ],
      "name": "tickets",
      "outputs": [
        {
          "internalType": "uint256",
          "name": "ticketId",
          "type": "uint256"
        },
        {
          "internalType": "uint256",
          "name": "eventId",
          "type": "uint256"
        },
        {
          "internalType": "uint256",
          "name": "seatNumber",
          "type": "uint256"
        },
        {
          "internalType": "uint256",
          "name": "ticketPrice",
          "type": "uint256"
        }
      ],
      "stateMutability": "view",
      "type": "function"
    },
    {
      "inputs": [
        {
          "internalType": "uint256",
          "name": "tokenId",
          "type": "uint256"
        }
      ],
      "name": "tokenURI",
      "outputs": [
        {
          "internalType": "string",
          "name": "",
          "type": "string"
        }
      ],
      "stateMutability": "view",
      "type": "function"
    },
    {
      "inputs": [
        {
          "internalType": "address",
          "name": "from",
          "type": "address"
        },
        {
          "internalType": "address",
          "name": "to",
          "type": "address"
        },
        {
          "internalType": "uint256",
          "name": "tokenId",
          "type": "uint256"
        }
      ],
      "name": "transferFrom",
      "outputs": [],
      "stateMutability": "nonpayable",
      "type": "function"
    },
    {
      "inputs": [
        {
          "internalType": "address",
          "name": "newOwner",
          "type": "address"
        }
      ],
      "name": "transferOwnership",
      "outputs": [],
      "stateMutability": "nonpayable",
      "type": "function"
    },
    {
      "inputs": [
        {
          "internalType": "uint256",
          "name": "ticketId",
          "type": "uint256"
        },
        {
          "internalType": "address",
          "name": "to",
          "type": "address"
        }
      ],
      "name": "transferTicket",
      "outputs": [],
      "stateMutability": "nonpayable",
      "type": "function"
    },
    {
      "inputs": [],
      "name": "treasuryWallet",
      "outputs": [
        {
          "internalType": "address",
          "name": "",
          "type": "address"
        }
      ],
      "stateMutability": "view",
      "type": "function"
    },
    {
      "inputs": [
        {
          "internalType": "uint256",
          "name": "ticketId",
          "type": "uint256"
        }
      ],
      "name": "verifyTicket",
      "outputs": [
        {
          "internalType": "bool",
          "name": "",
          "type": "bool"
        }
      ],
      "stateMutability": "view",
      "type": "function"
    }
  ],
  "bytecode": "0x608060405260016009556001600a556005600b55600a600c5534801561002457600080fd5b5060405161616b38038061616b833981810160405281019061004691906103b2565b6040518060400160405280600c81526020017f4576656e74205469636b657400000000000000000000000000000000000000008152506040518060400160405280600381526020017f544958000000000000000000000000000000000000000000000000000000000081525084600073ffffffffffffffffffffffffffffffffffffffff168173ffffffffffffffffffffffffffffffffffffffff16036101255760006040517f1e4fbdf700000000000000000000000000000000000000000000000000000000815260040161011c9190610414565b60405180910390fd5b6101348161024a60201b60201c565b508160019081610144919061067f565b508060029081610154919061067f565b5050506000600860006101000a81548160ff02191690831515021790555061018c67cf1412342f84a05760c01b61030e60201b60201c565b6101a667687e761f27cdc77160c01b61030e60201b60201c565b81600d60006101000a81548173ffffffffffffffffffffffffffffffffffffffff021916908373ffffffffffffffffffffffffffffffffffffffff160217905550610201674845e328b61451ec60c01b61030e60201b60201c565b80600860016101000a81548173ffffffffffffffffffffffffffffffffffffffff021916908373ffffffffffffffffffffffffffffffffffffffff160217905550505050610751565b60008060009054906101000a900473ffffffffffffffffffffffffffffffffffffffff169050816000806101000a81548173ffffffffffffffffffffffffffffffffffffffff021916908373ffffffffffffffffffffffffffffffffffffffff1602179055508173ffffffffffffffffffffffffffffffffffffffff168173ffffffffffffffffffffffffffffffffffffffff167f8be0079c531659141344cd1fd0a4f28419497f9722a3daafe3b4186f6b6457e060405160405180910390a35050565b50565b600080fd5b600073ffffffffffffffffffffffffffffffffffffffff82169050919050565b600061034182610316565b9050919050565b61035181610336565b811461035c57600080fd5b50565b60008151905061036e81610348565b92915050565b600061037f82610336565b9050919050565b61038f81610374565b811461039a57600080fd5b50565b6000815190506103ac81610386565b92915050565b6000806000606084860312156103cb576103ca610311565b5b60006103d98682870161035f565b93505060206103ea8682870161035f565b92505060406103fb8682870161039d565b9150509250925092565b61040e81610336565b82525050565b60006020820190506104296000830184610405565b92915050565b600081519050919050565b7f4e487b7100000000000000000000000000000000000000000000000000000000600052604160045260246000fd5b7f4e487b7100000000000000000000000000000000000000000000000000000000600052602260045260246000fd5b600060028204905060018216806104b057607f821691505b6020821081036104c3576104c2610469565b5b50919050565b60008190508160005260206000209050919050565b60006020601f8301049050919050565b600082821b905092915050565b60006008830261052b7fffffffffffffffffffffffffffffffffffffffffffffffffffffffffffffffff826104ee565b61053586836104ee565b95508019841693508086168417925050509392505050565b6000819050919050565b6000819050919050565b600061057c6105776105728461054d565b610557565b61054d565b9050919050565b6000819050919050565b61059683610561565b6105aa6105a282610583565b8484546104fb565b825550505050565b600090565b6105bf6105b2565b6105ca81848461058d565b505050565b5b818110156105ee576105e36000826105b7565b6001810190506105d0565b5050565b601f82111561063357610604816104c9565b61060d846104de565b8101602085101561061c578190505b610630610628856104de565b8301826105cf565b50505b505050565b600082821c905092915050565b600061065660001984600802610638565b1980831691505092915050565b600061066f8383610645565b9150826002028217905092915050565b6106888261042f565b67ffffffffffffffff8111156106a1576106a061043a565b5b6106ab8254610498565b6106b68282856105f2565b600060209050601f8311600181146106e957600084156106d7578287015190505b6106e18582610663565b865550610749565b601f1984166106f7866104c9565b60005b8281101561071f578489015182556001820191506020850194506020810190506106fa565b8683101561073c5784890151610738601f891682610645565b8355505b6001600288020188555050505b505050505050565b615a0b806107606000396000f3fe608060405234801561001057600080fd5b506004361061023d5760003560e01c8063679ebf1a1161013b5780639f9d903a116100b8578063d524d32d1161007c578063d524d32d14610694578063e2082e79146106b0578063e985e9c5146106ba578063f0a38cb0146106ea578063f2fde38b1461071a5761023d565b80639f9d903a146105f2578063a22cb46514610610578063a8602fea1461062c578063b88d4fde14610648578063c87b56dd146106645761023d565b806385fc4550116100ff57806385fc45501461055c5780638c639a851461057a5780638da5cb5b1461059857806395d89b41146105b65780639f67756d146105d45761023d565b8063679ebf1a146104ce578063704b6c02146104ea57806370a0823114610506578063715018a6146105365780638333903e146105405761023d565b8063298ec208116101c9578063543cb81f1161018d578063543cb81f146104165780635c975abb146104465780636031a52f1461046457806361ba27da146104825780636352211e1461049e5761023d565b8063298ec208146103835780632d21a4641461039f57806342842e0e146103a95780634626402b146103c557806350b44712146103e35761023d565b80630b791430116102105780630b791430146102dc5780631c82512a146103135780631d9c5d5c1461032f57806323b872dd1461034b5780632643f3b6146103675761023d565b806301ffc9a71461024257806306fdde0314610272578063081812fc14610290578063095ea7b3146102c0575b600080fd5b61025c600480360381019061025791906140ca565b610736565b6040516102699190614112565b60405180910390f35b61027a610797565b60405161028791906141bd565b60405180910390f35b6102aa60048036038101906102a59190614215565b610829565b6040516102b79190614283565b60405180910390f35b6102da60048036038101906102d591906142ca565b610845565b005b6102f660048036038101906102f19190614215565b61085b565b60405161030a989796959493929190614319565b60405180910390f35b61032d600480360381019061032891906145b7565b610b6b565b005b61034960048036038101906103449190614215565b610f66565b005b61036560048036038101906103609190614731565b61169c565b005b610381600480360381019061037c9190614784565b61179e565b005b61039d600480360381019061039891906147d7565b611966565b005b6103a7611eeb565b005b6103c360048036038101906103be9190614731565b611f61565b005b6103cd611f81565b6040516103da9190614283565b60405180910390f35b6103fd60048036038101906103f89190614215565b611fa7565b60405161040d9493929190614817565b60405180910390f35b610430600480360381019061042b9190614215565b611fd7565b60405161043d9190614112565b60405180910390f35b61044e6121aa565b60405161045b9190614112565b60405180910390f35b61046c6121c1565b604051610479919061485c565b60405180910390f35b61049c60048036038101906104979190614215565b6121c7565b005b6104b860048036038101906104b39190614215565b6122bd565b6040516104c59190614283565b60405180910390f35b6104e860048036038101906104e39190614877565b6122cf565b005b61050460048036038101906104ff91906148b7565b6123ad565b005b610520600480360381019061051b91906148b7565b612425565b60405161052d919061485c565b60405180910390f35b61053e6124df565b005b61055a60048036038101906105559190614215565b6124f3565b005b6105646125e9565b6040516105719190614943565b60405180910390f35b61058261260f565b60405161058f919061485c565b60405180910390f35b6105a0612615565b6040516105ad9190614283565b60405180910390f35b6105be61263e565b6040516105cb91906141bd565b60405180910390f35b6105dc6126d0565b6040516105e9919061485c565b60405180910390f35b6105fa6126d6565b604051610607919061485c565b60405180910390f35b61062a6004803603810190610625919061498a565b6126dc565b005b610646600480360381019061064191906148b7565b6126f2565b005b610662600480360381019061065d9190614a6b565b61278e565b005b61067e60048036038101906106799190614215565b6127b3565b60405161068b91906141bd565b60405180910390f35b6106ae60048036038101906106a991906147d7565b6128c6565b005b6106b8612bec565b005b6106d460048036038101906106cf9190614aee565b612c62565b6040516106e19190614112565b60405180910390f35b61070460048036038101906106ff9190614215565b612cf6565b604051610711919061485c565b60405180910390f35b610734600480360381019061072f91906148b7565b612d0e565b005b6000634906490660e01b7bffffffffffffffffffffffffffffffffffffffffffffffffffffffff1916827bffffffffffffffffffffffffffffffffffffffffffffffffffffffff19161480610790575061078f82612d94565b5b9050919050565b6060600180546107a690614b5d565b80601f01602080910402602001604051908101604052809291908181526020018280546107d290614b5d565b801561081f5780601f106107f45761010080835404028352916020019161081f565b820191906000526020600020905b81548152906001019060200180831161080257829003601f168201915b5050505050905090565b600061083482612e76565b5061083e82612efe565b9050919050565b6108578282610852612f3b565b612f43565b5050565b600e60205280600052604060002060009150905080600001805461087e90614b5d565b80601f01602080910402602001604051908101604052809291908181526020018280546108aa90614b5d565b80156108f75780601f106108cc576101008083540402835291602001916108f7565b820191906000526020600020905b8154815290600101906020018083116108da57829003601f168201915b50505050509080600101805461090c90614b5d565b80601f016020809104026020016040519081016040528092919081815260200182805461093890614b5d565b80156109855780601f1061095a57610100808354040283529160200191610985565b820191906000526020600020905b81548152906001019060200180831161096857829003601f168201915b50505050509080600201805461099a90614b5d565b80601f01602080910402602001604051908101604052809291908181526020018280546109c690614b5d565b8015610a135780601f106109e857610100808354040283529160200191610a13565b820191906000526020600020905b8154815290600101906020018083116109f657829003601f168201915b505050505090806003018054610a2890614b5d565b80601f0160208091040260200160405190810160405280929190818152602001828054610a5490614b5d565b8015610aa15780601f10610a7657610100808354040283529160200191610aa1565b820191906000526020600020905b815481529060010190602001808311610a8457829003601f168201915b505050505090806004018054610ab690614b5d565b80601f0160208091040260200160405190810160405280929190818152602001828054610ae290614b5d565b8015610b2f5780601f10610b0457610100808354040283529160200191610b2f565b820191906000526020600020905b815481529060010190602001808311610b1257829003601f168201915b5050505050908060050154908060060154908060070160009054906101000a900473ffffffffffffffffffffffffffffffffffffffff16905088565b610b7f6716d17c0594cf8fb660c01b612f55565b610b87612f58565b610b9b676687bf53d456502060c01b612f55565b610baf675d2fd60f4a1bde0760c01b612f55565b610bc3673fd782e1f3319b1460c01b612f55565b610bd767623a219d896bbbb960c01b612f55565b610beb67e244782e26da539a60c01b612f55565b80835114610c2e576040517f08c379a0000000000000000000000000000000000000000000000000000000008152600401610c2590614c00565b60405180910390fd5b610c42673ee256acb723df1660c01b612f55565b610c5667292c434980d75ad560c01b612f55565b604051806101000160405280898152602001888152602001878152602001868152602001858152602001828152602001600081526020013373ffffffffffffffffffffffffffffffffffffffff16815250600e600060095481526020019081526020016000206000820151816000019081610cd19190614dc2565b506020820151816001019081610ce79190614dc2565b506040820151816002019081610cfd9190614dc2565b506060820151816003019081610d139190614dc2565b506080820151816004019081610d299190614dc2565b5060a0820151816005015560c0820151816006015560e08201518160070160006101000a81548173ffffffffffffffffffffffffffffffffffffffff021916908373ffffffffffffffffffffffffffffffffffffffff160217905550905050610d9c67d953c0b16ff53c9060c01b612f55565b610db067d028cf69829a7b2d60c01b612f55565b6000600a5490505b81600a54610dc69190614ec3565b811015610e9d57610de1670b1d68015e03a08e60c01b612f55565b6040518060800160405280828152602001600954815260200184600a5484610e099190614ef7565b81518110610e1a57610e19614f2b565b5b6020026020010151815260200185600a5484610e369190614ef7565b81518110610e4757610e46614f2b565b5b6020026020010151815250600f6000838152602001908152602001600020600082015181600001556020820151816001015560408201518160020155606082015181600301559050508080600101915050610db8565b50610eb267250383b7e90c939360c01b612f55565b80600a6000828254610ec49190614ec3565b92505081905550610edf67c13bc274ce8aeb6d60c01b612f55565b610ef367d0a707d95fe8b2c960c01b612f55565b7fee37bb5143a14810f72e86fce895be08e16090409d2e18f79b308995e39b73d46009548983604051610f2893929190614f5a565b60405180910390a1610f4467b50460fa9a722bca60c01b612f55565b60096000815480929190610f5790614f98565b91905055505050505050505050565b610f7a67afd044d96a34804e60c01b612f55565b610f82612f58565b610f9667452e8173c576b2f860c01b612f55565b610faa67e8d6640d9908874f60c01b612f55565b610fbe677eed84fc81de4fe560c01b612f55565b610fd26746d06dcdbf8827c760c01b612f55565b6000600f60008381526020019081526020016000209050610ffd676e442f15f4c84b0060c01b612f55565b61101167f683afaf260dbd9a60c01b612f55565b60006010600084815260200190815260200160002054905061103d6772c6140ae072c80060c01b612f55565b611051675cecebb93e9ea9e160c01b612f55565b61106567afe69d02d1c4b00060c01b612f55565b600081116110a8576040517f08c379a000000000000000000000000000000000000000000000000000000000815260040161109f9061502c565b60405180910390fd5b6110bc676c66c8250617980b60c01b612f55565b6110d067a043abcbbae4443160c01b612f55565b6110e467782c349e73feb61f60c01b612f55565b6110f8670282c5810e6b6d1a60c01b612f55565b611101836122bd565b73ffffffffffffffffffffffffffffffffffffffff163373ffffffffffffffffffffffffffffffffffffffff160361116e576040517f08c379a0000000000000000000000000000000000000000000000000000000008152600401611165906150be565b60405180910390fd5b61118267bd2de946a3847afb60c01b612f55565b61119667965736b09ddaf19660c01b612f55565b6111aa67303f36762fd9976060c01b612f55565b6111be67cd6928006a6690c860c01b612f55565b600860019054906101000a900473ffffffffffffffffffffffffffffffffffffffff1673ffffffffffffffffffffffffffffffffffffffff166323b872dd33611206866122bd565b846040518463ffffffff1660e01b8152600401611225939291906150de565b6020604051808303816000875af1158015611244573d6000803e3d6000fd5b505050506040513d601f19601f82011682018060405250810190611268919061512a565b6112a7576040517f08c379a000000000000000000000000000000000000000000000000000000000815260040161129e906151a3565b60405180910390fd5b6112bb672c2dc7e2602e2a8c60c01b612f55565b6112cf67251badfd01150a9460c01b612f55565b6112e36767e26ccbe6f82ae960c01b612f55565b6112f7674e9e330d23d2ab0e60c01b612f55565b600860019054906101000a900473ffffffffffffffffffffffffffffffffffffffff1673ffffffffffffffffffffffffffffffffffffffff166323b872dd33600d60009054906101000a900473ffffffffffffffffffffffffffffffffffffffff166064600b548661136991906151c3565b6113739190615234565b6040518463ffffffff1660e01b8152600401611391939291906150de565b6020604051808303816000875af11580156113b0573d6000803e3d6000fd5b505050506040513d601f19601f820116820180604052508101906113d4919061512a565b611413576040517f08c379a000000000000000000000000000000000000000000000000000000000815260040161140a906152b1565b60405180910390fd5b61142767a576a57c935ca57660c01b612f55565b61143b67fc2fbc460db6880c60c01b612f55565b61144f6739f00d6bf8a161b160c01b612f55565b61146367bd98bb1d9522bdaa60c01b612f55565b600860019054906101000a900473ffffffffffffffffffffffffffffffffffffffff1673ffffffffffffffffffffffffffffffffffffffff166323b872dd33600e60008660010154815260200190815260200160002060070160009054906101000a900473ffffffffffffffffffffffffffffffffffffffff166064600c54866114ed91906151c3565b6114f79190615234565b6040518463ffffffff1660e01b8152600401611515939291906150de565b6020604051808303816000875af1158015611534573d6000803e3d6000fd5b505050506040513d601f19601f82011682018060405250810190611558919061512a565b611597576040517f08c379a000000000000000000000000000000000000000000000000000000000815260040161158e9061531d565b60405180910390fd5b6115ab674827259feacb071b60c01b612f55565b6115bf6704032fc252230bde60c01b612f55565b8082600301819055506115dc67a222fb657097e06460c01b612f55565b6000601060008581526020019081526020016000208190555061160967ff46aac216003b0360c01b612f55565b61161d677bca388bf5b0d30060c01b612f55565b611630611629846122bd565b3385612f99565b61164467ac33cbb4bd202a9e60c01b612f55565b61165867e7dddacb23b732ae60c01b612f55565b7f94c5953e15f54d38b82a662bdd5739fc91af3a23d3ef7e67269dfaeee71a813c8383600101543360405161168f9392919061533d565b60405180910390a1505050565b600073ffffffffffffffffffffffffffffffffffffffff168273ffffffffffffffffffffffffffffffffffffffff160361170e5760006040517f64a0ae920000000000000000000000000000000000000000000000000000000081526004016117059190614283565b60405180910390fd5b6000611722838361171d612f3b565b613106565b90508373ffffffffffffffffffffffffffffffffffffffff168173ffffffffffffffffffffffffffffffffffffffff1614611798578382826040517f64283d7b00000000000000000000000000000000000000000000000000000000815260040161178f93929190615374565b60405180910390fd5b50505050565b6117b2676fbf573d820f000960c01b612f55565b6117ba612f58565b6117ce673b55c5a110f0300b60c01b612f55565b6117e2679af521583cd3fde560c01b612f55565b6117f6678ea984716430fbfa60c01b612f55565b61180a67ee7c7f2510a7985260c01b612f55565b6000600e6000858152602001908152602001600020905061183567e5eb6cd360039af560c01b612f55565b61184967f040bfa0b9592a9360c01b612f55565b6000600f6000858152602001908152602001600020905061187467bf97a03c60a71b3760c01b612f55565b6118886763d28090bc42839760c01b612f55565b61189c67ea2eba5ec637592560c01b612f55565b8160070160009054906101000a900473ffffffffffffffffffffffffffffffffffffffff1673ffffffffffffffffffffffffffffffffffffffff163373ffffffffffffffffffffffffffffffffffffffff161461192e576040517f08c379a0000000000000000000000000000000000000000000000000000000008152600401611925906153f7565b60405180910390fd5b611942679d0dabe575fd113160c01b612f55565b611956671b070f1800802dc160c01b612f55565b8281600301819055505050505050565b61197a675b8e8fc28315fc8860c01b612f55565b611982612f58565b611996677f3819ea6f7aa3fa60c01b612f55565b6119aa67f2401812d41f186860c01b612f55565b6119be67b8618ebaf7d42a9460c01b612f55565b6119d267f980f7aff380686660c01b612f55565b6000600e600084815260200190815260200160002090506119fd67e557d6d019d769db60c01b612f55565b611a11670e081aa3790b6d1460c01b612f55565b6000600f60008481526020019081526020016000209050611a3c67e1ddbf9c0bbf846160c01b612f55565b611a5067728cafed82226b7960c01b612f55565b611a6467f4933e3f7f43c63b60c01b612f55565b6000816003015411611aab576040517f08c379a0000000000000000000000000000000000000000000000000000000008152600401611aa290615463565b60405180910390fd5b611abf67b36a93e4f0d156a760c01b612f55565b611ad367c442d6f4167acceb60c01b612f55565b611ae767e809b09d3a54fa9860c01b612f55565b611afb679b18e4f59a3bb7ee60c01b612f55565b8160050154826006015410611b45576040517f08c379a0000000000000000000000000000000000000000000000000000000008152600401611b3c906154cf565b60405180910390fd5b611b5967c6ff294f3cb0113d60c01b612f55565b611b6d674e1b3a2c35acdc4160c01b612f55565b611b8167b96297c41d6b2eac60c01b612f55565b611b9567e72e75a6b328406f60c01b612f55565b600860019054906101000a900473ffffffffffffffffffffffffffffffffffffffff1673ffffffffffffffffffffffffffffffffffffffff166323b872dd338460070160009054906101000a900473ffffffffffffffffffffffffffffffffffffffff1684600301546040518463ffffffff1660e01b8152600401611c1c939291906150de565b6020604051808303816000875af1158015611c3b573d6000803e3d6000fd5b505050506040513d601f19601f82011682018060405250810190611c5f919061512a565b611c9e576040517f08c379a0000000000000000000000000000000000000000000000000000000008152600401611c959061553b565b60405180910390fd5b611cb2671fe8eaa8d15bf89e60c01b612f55565b611cc66776df47b18b7f118560c01b612f55565b611cda6732c1baef20a6762760c01b612f55565b611cee672b22bb83eabd771760c01b612f55565b600860019054906101000a900473ffffffffffffffffffffffffffffffffffffffff1673ffffffffffffffffffffffffffffffffffffffff166323b872dd33600d60009054906101000a900473ffffffffffffffffffffffffffffffffffffffff166064600b548660030154611d6491906151c3565b611d6e9190615234565b6040518463ffffffff1660e01b8152600401611d8c939291906150de565b6020604051808303816000875af1158015611dab573d6000803e3d6000fd5b505050506040513d601f19601f82011682018060405250810190611dcf919061512a565b611e0e576040517f08c379a0000000000000000000000000000000000000000000000000000000008152600401611e05906152b1565b60405180910390fd5b611e22673e37b0ee58a13a6660c01b612f55565b611e3667237c1ff87c72da5c60c01b612f55565b611e4a67ef446621046e01d660c01b612f55565b611e543384613320565b611e6867465a86c906ead92360c01b612f55565b816006016000815480929190611e7d90614f98565b9190505550611e9667c646b50627cd104360c01b612f55565b611eaa6708016e461d4f5bf060c01b612f55565b7f94c5953e15f54d38b82a662bdd5739fc91af3a23d3ef7e67269dfaeee71a813c838533604051611edd9392919061533d565b60405180910390a150505050565b611eff672c426136808f501760c01b612f55565b611f0761333e565b611f1b67e1fbe6a7b82d297260c01b612f55565b611f2f6769a93527a7fda46560c01b612f55565b611f4367db0f694c67c2a2c960c01b612f55565b611f5767c4aa980a6768829360c01b612f55565b611f5f6133c5565b565b611f7c8383836040518060200160405280600081525061278e565b505050565b600d60009054906101000a900473ffffffffffffffffffffffffffffffffffffffff1681565b600f6020528060005260406000206000915090508060000154908060010154908060020154908060030154905084565b6000611fed67fc58aaee5cd01a4860c01b612f55565b611ff5612f58565b6120096767d3229b5e3ee38560c01b612f55565b61201d6717afa7888ea6643060c01b612f55565b61203167dda64c15c6c10d5160c01b612f55565b61204567c1d48e8c070077d760c01b612f55565b61205967ab88f08866ad3c8060c01b612f55565b600a5482111561209e576040517f08c379a0000000000000000000000000000000000000000000000000000000008152600401612095906155a7565b60405180910390fd5b6120b26723bcd1b2f16f35be60c01b612f55565b6120c66782f37b0cfc7df73b60c01b612f55565b6120da671d5cfec7b49dc23260c01b612f55565b6120ee67bf776f34b2df325660c01b612f55565b600073ffffffffffffffffffffffffffffffffffffffff1661210f836122bd565b73ffffffffffffffffffffffffffffffffffffffff1603612165576040517f08c379a000000000000000000000000000000000000000000000000000000000815260040161215c90615613565b60405180910390fd5b61217967160103d3a93a262a60c01b612f55565b61218d6719a83d7fb2c777a560c01b612f55565b6121a167fb415392d5602dc260c01b612f55565b60019050919050565b6000600860009054906101000a900460ff16905090565b600a5481565b6121db678dc4445b1de741d560c01b612f55565b6121e361333e565b6121f76715a2e86ce16f4b0360c01b612f55565b61220b67467decb92d7e84ba60c01b612f55565b61221f67b70282dc3da7bb9d60c01b612f55565b61223367a84ba244b7cc0c2e60c01b612f55565b61224767cc61b6e8898f60ce60c01b612f55565b606481111561228b576040517f08c379a00000000000000000000000000000000000000000000000000000000081526004016122829061567f565b60405180910390fd5b61229f675415331889ecc79b60c01b612f55565b6122b36722af26da22b7955160c01b612f55565b80600c8190555050565b60006122c882612e76565b9050919050565b6122e36799b3c798845e14a560c01b612f55565b6122eb612f58565b6122ff67211a1242166084c560c01b612f55565b61231367d1c3eb391e7e42bb60c01b612f55565b6123276734289c59ed7431c060c01b612f55565b61233b671ae4e6c7a82b559760c01b612f55565b612346338284612f99565b61235a677b18356bc59c16d160c01b612f55565b61236e6777b6dd0edfe62b2160c01b612f55565b7fd15524263ae66f75c1e604c47db6085085110f23ef7322b355179ac5e3b0783a8233836040516123a19392919061569f565b60405180910390a15050565b6123c167f1851ed2f1d29e6860c01b612f55565b6123c961333e565b6123dd677618f098179d907e60c01b612f55565b6123f1676308ab8cc2ac786f60c01b612f55565b61240567c925b191b96c7e6660c01b612f55565b6124196799f509d458240fe060c01b612f55565b61242281612d0e565b50565b60008073ffffffffffffffffffffffffffffffffffffffff168273ffffffffffffffffffffffffffffffffffffffff16036124985760006040517f89c62b6400000000000000000000000000000000000000000000000000000000815260040161248f9190614283565b60405180910390fd5b600460008373ffffffffffffffffffffffffffffffffffffffff1673ffffffffffffffffffffffffffffffffffffffff168152602001908152602001600020549050919050565b6124e761333e565b6124f16000613428565b565b612507679d6affc3dcf0101160c01b612f55565b61250f61333e565b6125236772781443dcf9c53860c01b612f55565b61253767ff7b6aae3dacc14560c01b612f55565b61254b6722315f25232d01c260c01b612f55565b61255f67cd61e3d7aecf88c660c01b612f55565b612573672a05c9d36b4160c660c01b612f55565b60648111156125b7576040517f08c379a00000000000000000000000000000000000000000000000000000000081526004016125ae9061567f565b60405180910390fd5b6125cb678f2818c019e30c4360c01b612f55565b6125df67103240973f90cbc460c01b612f55565b80600b8190555050565b600860019054906101000a900473ffffffffffffffffffffffffffffffffffffffff1681565b600b5481565b60008060009054906101000a900473ffffffffffffffffffffffffffffffffffffffff16905090565b60606002805461264d90614b5d565b80601f016020809104026020016040519081016040528092919081815260200182805461267990614b5d565b80156126c65780601f1061269b576101008083540402835291602001916126c6565b820191906000526020600020905b8154815290600101906020018083116126a957829003601f168201915b5050505050905090565b600c5481565b60095481565b6126ee6126e7612f3b565b83836134ec565b5050565b612706673c23afd4b7eb0f7f60c01b612f55565b61270e61333e565b612722675a9ba168460699ce60c01b612f55565b6127366740db1cd48264699c60c01b612f55565b61274a67ef1c4620d89f53bd60c01b612f55565b80600d60006101000a81548173ffffffffffffffffffffffffffffffffffffffff021916908373ffffffffffffffffffffffffffffffffffffffff16021790555050565b61279984848461169c565b6127ad6127a4612f3b565b8585858561365b565b50505050565b60606127be82612e76565b5060006007600084815260200190815260200160002080546127df90614b5d565b80601f016020809104026020016040519081016040528092919081815260200182805461280b90614b5d565b80156128585780601f1061282d57610100808354040283529160200191612858565b820191906000526020600020905b81548152906001019060200180831161283b57829003601f168201915b50505050509050600061286961380c565b9050600081510361287e5781925050506128c1565b6000825111156128b357808260405160200161289b929190615712565b604051602081830303815290604052925050506128c1565b6128bc84613823565b925050505b919050565b6128da67c91a6eb73b14414b60c01b612f55565b6128e2612f58565b6128f667a9a60e4881d4b73660c01b612f55565b61290a67fa582092d7de6b2c60c01b612f55565b8161291f67ed3ecd7098ffd4cf60c01b612f55565b6129336784fdfb26751b5e6360c01b612f55565b61294767e149403f63f7565f60c01b612f55565b61295b676abc85fe1375d18460c01b612f55565b3373ffffffffffffffffffffffffffffffffffffffff1661297b826122bd565b73ffffffffffffffffffffffffffffffffffffffff16146129d1576040517f08c379a00000000000000000000000000000000000000000000000000000000081526004016129c890615782565b60405180910390fd5b6129e567c4e85c57690f868f60c01b612f55565b6129f967749487093b6518a660c01b612f55565b612a0d670ce31dd0a4a3bc5260c01b612f55565b612a21676ec44f2ba59aecf360c01b612f55565b612a35679db6a37ccd4cbe3e60c01b612f55565b612a496744456bc87ce7b5c260c01b612f55565b612a5d67138d2293d90d8e5a60c01b612f55565b60008211612aa0576040517f08c379a0000000000000000000000000000000000000000000000000000000008152600401612a97906157ee565b60405180910390fd5b612ab467bc3f7453969d1eba60c01b612f55565b612ac8674aa959afb8905cdb60c01b612f55565b612adc672438facc73640b4760c01b612f55565b612af067f3583cd64d14511960c01b612f55565b6000601060008581526020019081526020016000205414612b46576040517f08c379a0000000000000000000000000000000000000000000000000000000008152600401612b3d90615880565b60405180910390fd5b612b5a673cfc56c03a1129ac60c01b612f55565b612b6e6798ba417babe9d41460c01b612f55565b816010600085815260200190815260200160002081905550612b9a67a53b74ffb3da713360c01b612f55565b612bae67e7a8c0f54ead04ce60c01b612f55565b7fbca2f6391cafd6d28d39261ba883dd74090c618befb806e74ef434778bb2f7ed8383604051612bdf9291906158a0565b60405180910390a1505050565b612c0067392ac08b4eec78cf60c01b612f55565b612c0861333e565b612c1c6714d63df3ad6e0f3960c01b612f55565b612c306751a07709e8647db460c01b612f55565b612c4467d40ceb34bf8707d760c01b612f55565b612c58670574904faf72ad0b60c01b612f55565b612c6061388c565b565b6000600660008473ffffffffffffffffffffffffffffffffffffffff1673ffffffffffffffffffffffffffffffffffffffff16815260200190815260200160002060008373ffffffffffffffffffffffffffffffffffffffff1673ffffffffffffffffffffffffffffffffffffffff16815260200190815260200160002060009054906101000a900460ff16905092915050565b60106020528060005260406000206000915090505481565b612d1661333e565b600073ffffffffffffffffffffffffffffffffffffffff168173ffffffffffffffffffffffffffffffffffffffff1603612d885760006040517f1e4fbdf7000000000000000000000000000000000000000000000000000000008152600401612d7f9190614283565b60405180910390fd5b612d9181613428565b50565b60007f80ac58cd000000000000000000000000000000000000000000000000000000007bffffffffffffffffffffffffffffffffffffffffffffffffffffffff1916827bffffffffffffffffffffffffffffffffffffffffffffffffffffffff19161480612e5f57507f5b5e139f000000000000000000000000000000000000000000000000000000007bffffffffffffffffffffffffffffffffffffffffffffffffffffffff1916827bffffffffffffffffffffffffffffffffffffffffffffffffffffffff1916145b80612e6f5750612e6e826138ef565b5b9050919050565b600080612e8283613959565b9050600073ffffffffffffffffffffffffffffffffffffffff168173ffffffffffffffffffffffffffffffffffffffff1603612ef557826040517f7e273289000000000000000000000000000000000000000000000000000000008152600401612eec919061485c565b60405180910390fd5b80915050919050565b60006005600083815260200190815260200160002060009054906101000a900473ffffffffffffffffffffffffffffffffffffffff169050919050565b600033905090565b612f508383836001613996565b505050565b50565b612f606121aa565b15612f97576040517fd93c066500000000000000000000000000000000000000000000000000000000815260040160405180910390fd5b565b600073ffffffffffffffffffffffffffffffffffffffff168273ffffffffffffffffffffffffffffffffffffffff160361300b5760006040517f64a0ae920000000000000000000000000000000000000000000000000000000081526004016130029190614283565b60405180910390fd5b600061301983836000613106565b9050600073ffffffffffffffffffffffffffffffffffffffff168173ffffffffffffffffffffffffffffffffffffffff160361308c57816040517f7e273289000000000000000000000000000000000000000000000000000000008152600401613083919061485c565b60405180910390fd5b8373ffffffffffffffffffffffffffffffffffffffff168173ffffffffffffffffffffffffffffffffffffffff1614613100578382826040517f64283d7b0000000000000000000000000000000000000000000000000000000081526004016130f793929190615374565b60405180910390fd5b50505050565b60008061311284613959565b9050600073ffffffffffffffffffffffffffffffffffffffff168373ffffffffffffffffffffffffffffffffffffffff161461315457613153818486613b5b565b5b600073ffffffffffffffffffffffffffffffffffffffff168173ffffffffffffffffffffffffffffffffffffffff16146131e557613196600085600080613996565b6001600460008373ffffffffffffffffffffffffffffffffffffffff1673ffffffffffffffffffffffffffffffffffffffff168152602001908152602001600020600082825403925050819055505b600073ffffffffffffffffffffffffffffffffffffffff168573ffffffffffffffffffffffffffffffffffffffff1614613268576001600460008773ffffffffffffffffffffffffffffffffffffffff1673ffffffffffffffffffffffffffffffffffffffff168152602001908152602001600020600082825401925050819055505b846003600086815260200190815260200160002060006101000a81548173ffffffffffffffffffffffffffffffffffffffff021916908373ffffffffffffffffffffffffffffffffffffffff160217905550838573ffffffffffffffffffffffffffffffffffffffff168273ffffffffffffffffffffffffffffffffffffffff167fddf252ad1be2c89b69c2b068fc378daa952ba7f163c4a11628f55a4df523b3ef60405160405180910390a4809150509392505050565b61333a828260405180602001604052806000815250613c1f565b5050565b613346612f3b565b73ffffffffffffffffffffffffffffffffffffffff16613364612615565b73ffffffffffffffffffffffffffffffffffffffff16146133c357613387612f3b565b6040517f118cdaa70000000000000000000000000000000000000000000000000000000081526004016133ba9190614283565b60405180910390fd5b565b6133cd612f58565b6001600860006101000a81548160ff0219169083151502179055507f62e78cea01bee320cd4e420270b5ea74000d11b0c9f74754ebdbfc544b05a258613411612f3b565b60405161341e9190614283565b60405180910390a1565b60008060009054906101000a900473ffffffffffffffffffffffffffffffffffffffff169050816000806101000a81548173ffffffffffffffffffffffffffffffffffffffff021916908373ffffffffffffffffffffffffffffffffffffffff1602179055508173ffffffffffffffffffffffffffffffffffffffff168173ffffffffffffffffffffffffffffffffffffffff167f8be0079c531659141344cd1fd0a4f28419497f9722a3daafe3b4186f6b6457e060405160405180910390a35050565b600073ffffffffffffffffffffffffffffffffffffffff168273ffffffffffffffffffffffffffffffffffffffff160361355d57816040517f5b08ba180000000000000000000000000000000000000000000000000000000081526004016135549190614283565b60405180910390fd5b80600660008573ffffffffffffffffffffffffffffffffffffffff1673ffffffffffffffffffffffffffffffffffffffff16815260200190815260200160002060008473ffffffffffffffffffffffffffffffffffffffff1673ffffffffffffffffffffffffffffffffffffffff16815260200190815260200160002060006101000a81548160ff0219169083151502179055508173ffffffffffffffffffffffffffffffffffffffff168373ffffffffffffffffffffffffffffffffffffffff167f17307eab39ab6107e8899845ad3d59bd9653f200f220920489ca2b5937696c318360405161364e9190614112565b60405180910390a3505050565b60008373ffffffffffffffffffffffffffffffffffffffff163b1115613805578273ffffffffffffffffffffffffffffffffffffffff1663150b7a02868685856040518563ffffffff1660e01b81526004016136ba949392919061591e565b6020604051808303816000875af19250505080156136f657506040513d601f19601f820116820180604052508101906136f3919061597f565b60015b61377a573d8060008114613726576040519150601f19603f3d011682016040523d82523d6000602084013e61372b565b606091505b50600081510361377257836040517f64a0ae920000000000000000000000000000000000000000000000000000000081526004016137699190614283565b60405180910390fd5b805181602001fd5b63150b7a0260e01b7bffffffffffffffffffffffffffffffffffffffffffffffffffffffff1916817bffffffffffffffffffffffffffffffffffffffffffffffffffffffff19161461380357836040517f64a0ae920000000000000000000000000000000000000000000000000000000081526004016137fa9190614283565b60405180910390fd5b505b5050505050565b606060405180602001604052806000815250905090565b606061382e82612e76565b50600061383961380c565b905060008151116138595760405180602001604052806000815250613884565b8061386384613c43565b604051602001613874929190615712565b6040516020818303038152906040525b915050919050565b613894613d11565b6000600860006101000a81548160ff0219169083151502179055507f5db9ee0a495bf2e6ff9c91a7834c1ba4fdd244a5e8aa4e537bd38aeae4b073aa6138d8612f3b565b6040516138e59190614283565b60405180910390a1565b60007f01ffc9a7000000000000000000000000000000000000000000000000000000007bffffffffffffffffffffffffffffffffffffffffffffffffffffffff1916827bffffffffffffffffffffffffffffffffffffffffffffffffffffffff1916149050919050565b60006003600083815260200190815260200160002060009054906101000a900473ffffffffffffffffffffffffffffffffffffffff169050919050565b80806139cf5750600073ffffffffffffffffffffffffffffffffffffffff168273ffffffffffffffffffffffffffffffffffffffff1614155b15613b035760006139df84612e76565b9050600073ffffffffffffffffffffffffffffffffffffffff168373ffffffffffffffffffffffffffffffffffffffff1614158015613a4a57508273ffffffffffffffffffffffffffffffffffffffff168173ffffffffffffffffffffffffffffffffffffffff1614155b8015613a5d5750613a5b8184612c62565b155b15613a9f57826040517fa9fbf51f000000000000000000000000000000000000000000000000000000008152600401613a969190614283565b60405180910390fd5b8115613b0157838573ffffffffffffffffffffffffffffffffffffffff168273ffffffffffffffffffffffffffffffffffffffff167f8c5be1e5ebec7d5bd14f71427d1e84f3dd0314c0f7b2291e5b200ac8c7c3b92560405160405180910390a45b505b836005600085815260200190815260200160002060006101000a81548173ffffffffffffffffffffffffffffffffffffffff021916908373ffffffffffffffffffffffffffffffffffffffff16021790555050505050565b613b66838383613d51565b613c1a57600073ffffffffffffffffffffffffffffffffffffffff168373ffffffffffffffffffffffffffffffffffffffff1603613bdb57806040517f7e273289000000000000000000000000000000000000000000000000000000008152600401613bd2919061485c565b60405180910390fd5b81816040517f177e802f000000000000000000000000000000000000000000000000000000008152600401613c119291906159ac565b60405180910390fd5b505050565b613c298383613e12565b613c3e613c34612f3b565b600085858561365b565b505050565b606060006001613c5284613f0b565b01905060008167ffffffffffffffff811115613c7157613c706143c4565b5b6040519080825280601f01601f191660200182016040528015613ca35781602001600182028036833780820191505090505b509050600082602001820190505b600115613d06578080600190039150507f3031323334353637383961626364656600000000000000000000000000000000600a86061a8153600a8581613cfa57613cf9615205565b5b04945060008503613cb1575b819350505050919050565b613d196121aa565b613d4f576040517f8dfc202b00000000000000000000000000000000000000000000000000000000815260040160405180910390fd5b565b60008073ffffffffffffffffffffffffffffffffffffffff168373ffffffffffffffffffffffffffffffffffffffff1614158015613e0957508273ffffffffffffffffffffffffffffffffffffffff168473ffffffffffffffffffffffffffffffffffffffff161480613dca5750613dc98484612c62565b5b80613e0857508273ffffffffffffffffffffffffffffffffffffffff16613df083612efe565b73ffffffffffffffffffffffffffffffffffffffff16145b5b90509392505050565b600073ffffffffffffffffffffffffffffffffffffffff168273ffffffffffffffffffffffffffffffffffffffff1603613e845760006040517f64a0ae92000000000000000000000000000000000000000000000000000000008152600401613e7b9190614283565b60405180910390fd5b6000613e9283836000613106565b9050600073ffffffffffffffffffffffffffffffffffffffff168173ffffffffffffffffffffffffffffffffffffffff1614613f065760006040517f73c6ac6e000000000000000000000000000000000000000000000000000000008152600401613efd9190614283565b60405180910390fd5b505050565b600080600090507a184f03e93ff9f4daa797ed6e38ed64bf6a1f0100000000000000008310613f69577a184f03e93ff9f4daa797ed6e38ed64bf6a1f0100000000000000008381613f5f57613f5e615205565b5b0492506040810190505b6d04ee2d6d415b85acef81000000008310613fa6576d04ee2d6d415b85acef81000000008381613f9c57613f9b615205565b5b0492506020810190505b662386f26fc100008310613fd557662386f26fc100008381613fcb57613fca615205565b5b0492506010810190505b6305f5e1008310613ffe576305f5e1008381613ff457613ff3615205565b5b0492506008810190505b612710831061402357612710838161401957614018615205565b5b0492506004810190505b60648310614046576064838161403c5761403b615205565b5b0492506002810190505b600a8310614055576001810190505b80915050919050565b6000604051905090565b600080fd5b600080fd5b60007fffffffff0000000000000000000000000000000000000000000000000000000082169050919050565b6140a781614072565b81146140b257600080fd5b50565b6000813590506140c48161409e565b92915050565b6000602082840312156140e0576140df614068565b5b60006140ee848285016140b5565b91505092915050565b60008115159050919050565b61410c816140f7565b82525050565b60006020820190506141276000830184614103565b92915050565b600081519050919050565b600082825260208201905092915050565b60005b8381101561416757808201518184015260208101905061414c565b60008484015250505050565b6000601f19601f8301169050919050565b600061418f8261412d565b6141998185614138565b93506141a9818560208601614149565b6141b281614173565b840191505092915050565b600060208201905081810360008301526141d78184614184565b905092915050565b6000819050919050565b6141f2816141df565b81146141fd57600080fd5b50565b60008135905061420f816141e9565b92915050565b60006020828403121561422b5761422a614068565b5b600061423984828501614200565b91505092915050565b600073ffffffffffffffffffffffffffffffffffffffff82169050919050565b600061426d82614242565b9050919050565b61427d81614262565b82525050565b60006020820190506142986000830184614274565b92915050565b6142a781614262565b81146142b257600080fd5b50565b6000813590506142c48161429e565b92915050565b600080604083850312156142e1576142e0614068565b5b60006142ef858286016142b5565b925050602061430085828601614200565b9150509250929050565b614313816141df565b82525050565b6000610100820190508181036000830152614334818b614184565b90508181036020830152614348818a614184565b9050818103604083015261435c8189614184565b905081810360608301526143708188614184565b905081810360808301526143848187614184565b905061439360a083018661430a565b6143a060c083018561430a565b6143ad60e0830184614274565b9998505050505050505050565b600080fd5b600080fd5b7f4e487b7100000000000000000000000000000000000000000000000000000000600052604160045260246000fd5b6143fc82614173565b810181811067ffffffffffffffff8211171561441b5761441a6143c4565b5b80604052505050565b600061442e61405e565b905061443a82826143f3565b919050565b600067ffffffffffffffff82111561445a576144596143c4565b5b61446382614173565b9050602081019050919050565b82818337600083830152505050565b600061449261448d8461443f565b614424565b9050828152602081018484840111156144ae576144ad6143bf565b5b6144b9848285614470565b509392505050565b600082601f8301126144d6576144d56143ba565b5b81356144e684826020860161447f565b91505092915050565b600067ffffffffffffffff82111561450a576145096143c4565b5b602082029050602081019050919050565b600080fd5b600061453361452e846144ef565b614424565b905080838252602082019050602084028301858111156145565761455561451b565b5b835b8181101561457f578061456b8882614200565b845260208401935050602081019050614558565b5050509392505050565b600082601f83011261459e5761459d6143ba565b5b81356145ae848260208601614520565b91505092915050565b600080600080600080600080610100898b0312156145d8576145d7614068565b5b600089013567ffffffffffffffff8111156145f6576145f561406d565b5b6146028b828c016144c1565b985050602089013567ffffffffffffffff8111156146235761462261406d565b5b61462f8b828c016144c1565b975050604089013567ffffffffffffffff8111156146505761464f61406d565b5b61465c8b828c016144c1565b965050606089013567ffffffffffffffff81111561467d5761467c61406d565b5b6146898b828c016144c1565b955050608089013567ffffffffffffffff8111156146aa576146a961406d565b5b6146b68b828c016144c1565b94505060a089013567ffffffffffffffff8111156146d7576146d661406d565b5b6146e38b828c01614589565b93505060c089013567ffffffffffffffff8111156147045761470361406d565b5b6147108b828c01614589565b92505060e06147218b828c01614200565b9150509295985092959890939650565b60008060006060848603121561474a57614749614068565b5b6000614758868287016142b5565b9350506020614769868287016142b5565b925050604061477a86828701614200565b9150509250925092565b60008060006060848603121561479d5761479c614068565b5b60006147ab86828701614200565b93505060206147bc86828701614200565b92505060406147cd86828701614200565b9150509250925092565b600080604083850312156147ee576147ed614068565b5b60006147fc85828601614200565b925050602061480d85828601614200565b9150509250929050565b600060808201905061482c600083018761430a565b614839602083018661430a565b614846604083018561430a565b614853606083018461430a565b95945050505050565b6000602082019050614871600083018461430a565b92915050565b6000806040838503121561488e5761488d614068565b5b600061489c85828601614200565b92505060206148ad858286016142b5565b9150509250929050565b6000602082840312156148cd576148cc614068565b5b60006148db848285016142b5565b91505092915050565b6000819050919050565b60006149096149046148ff84614242565b6148e4565b614242565b9050919050565b600061491b826148ee565b9050919050565b600061492d82614910565b9050919050565b61493d81614922565b82525050565b60006020820190506149586000830184614934565b92915050565b614967816140f7565b811461497257600080fd5b50565b6000813590506149848161495e565b92915050565b600080604083850312156149a1576149a0614068565b5b60006149af858286016142b5565b92505060206149c085828601614975565b9150509250929050565b600067ffffffffffffffff8211156149e5576149e46143c4565b5b6149ee82614173565b9050602081019050919050565b6000614a0e614a09846149ca565b614424565b905082815260208101848484011115614a2a57614a296143bf565b5b614a35848285614470565b509392505050565b600082601f830112614a5257614a516143ba565b5b8135614a628482602086016149fb565b91505092915050565b60008060008060808587031215614a8557614a84614068565b5b6000614a93878288016142b5565b9450506020614aa4878288016142b5565b9350506040614ab587828801614200565b925050606085013567ffffffffffffffff811115614ad657614ad561406d565b5b614ae287828801614a3d565b91505092959194509250565b60008060408385031215614b0557614b04614068565b5b6000614b13858286016142b5565b9250506020614b24858286016142b5565b9150509250929050565b7f4e487b7100000000000000000000000000000000000000000000000000000000600052602260045260246000fd5b60006002820490506001821680614b7557607f821691505b602082108103614b8857614b87614b2e565b5b50919050565b7f5469636b657420707269636573206172726179206c656e677468206d7573742060008201527f6d6174636820746f74616c207469636b65747300000000000000000000000000602082015250565b6000614bea603383614138565b9150614bf582614b8e565b604082019050919050565b60006020820190508181036000830152614c1981614bdd565b9050919050565b60008190508160005260206000209050919050565b60006020601f8301049050919050565b600082821b905092915050565b600060088302614c827fffffffffffffffffffffffffffffffffffffffffffffffffffffffffffffffff82614c45565b614c8c8683614c45565b95508019841693508086168417925050509392505050565b6000614cbf614cba614cb5846141df565b6148e4565b6141df565b9050919050565b6000819050919050565b614cd983614ca4565b614ced614ce582614cc6565b848454614c52565b825550505050565b600090565b614d02614cf5565b614d0d818484614cd0565b505050565b5b81811015614d3157614d26600082614cfa565b600181019050614d13565b5050565b601f821115614d7657614d4781614c20565b614d5084614c35565b81016020851015614d5f578190505b614d73614d6b85614c35565b830182614d12565b50505b505050565b600082821c905092915050565b6000614d9960001984600802614d7b565b1980831691505092915050565b6000614db28383614d88565b9150826002028217905092915050565b614dcb8261412d565b67ffffffffffffffff811115614de457614de36143c4565b5b614dee8254614b5d565b614df9828285614d35565b600060209050601f831160018114614e2c5760008415614e1a578287015190505b614e248582614da6565b865550614e8c565b601f198416614e3a86614c20565b60005b82811015614e6257848901518255600182019150602085019450602081019050614e3d565b86831015614e7f5784890151614e7b601f891682614d88565b8355505b6001600288020188555050505b505050505050565b7f4e487b7100000000000000000000000000000000000000000000000000000000600052601160045260246000fd5b6000614ece826141df565b9150614ed9836141df565b9250828201905080821115614ef157614ef0614e94565b5b92915050565b6000614f02826141df565b9150614f0d836141df565b9250828203905081811115614f2557614f24614e94565b5b92915050565b7f4e487b7100000000000000000000000000000000000000000000000000000000600052603260045260246000fd5b6000606082019050614f6f600083018661430a565b8181036020830152614f818185614184565b9050614f90604083018461430a565b949350505050565b6000614fa3826141df565b91507fffffffffffffffffffffffffffffffffffffffffffffffffffffffffffffffff8203614fd557614fd4614e94565b5b600182019050919050565b7f5469636b6574206e6f74206c697374656420666f7220726573616c6500000000600082015250565b6000615016601c83614138565b915061502182614fe0565b602082019050919050565b6000602082019050818103600083015261504581615009565b9050919050565b7f4f776e6572732063616e6e6f7420627579207468656972206f776e207469636b60008201527f6574000000000000000000000000000000000000000000000000000000000000602082015250565b60006150a8602283614138565b91506150b38261504c565b604082019050919050565b600060208201905081810360008301526150d78161509b565b9050919050565b60006060820190506150f36000830186614274565b6151006020830185614274565b61510d604083018461430a565b949350505050565b6000815190506151248161495e565b92915050565b6000602082840312156151405761513f614068565b5b600061514e84828501615115565b91505092915050565b7f5472616e7366657220746f2073656c6c6572206661696c656400000000000000600082015250565b600061518d601983614138565b915061519882615157565b602082019050919050565b600060208201905081810360008301526151bc81615180565b9050919050565b60006151ce826141df565b91506151d9836141df565b92508282026151e7816141df565b915082820484148315176151fe576151fd614e94565b5b5092915050565b7f4e487b7100000000000000000000000000000000000000000000000000000000600052601260045260246000fd5b600061523f826141df565b915061524a836141df565b92508261525a57615259615205565b5b828204905092915050565b7f5472616e7366657220706c6174666f726d20666565206661696c656400000000600082015250565b600061529b601c83614138565b91506152a682615265565b602082019050919050565b600060208201905081810360008301526152ca8161528e565b9050919050565b7f5472616e7366657220726f79616c747920666565206661696c65640000000000600082015250565b6000615307601b83614138565b9150615312826152d1565b602082019050919050565b60006020820190508181036000830152615336816152fa565b9050919050565b6000606082019050615352600083018661430a565b61535f602083018561430a565b61536c6040830184614274565b949350505050565b60006060820190506153896000830186614274565b615396602083018561430a565b6153a36040830184614274565b949350505050565b7f4e6f74206576656e74206f7267616e697a657200000000000000000000000000600082015250565b60006153e1601383614138565b91506153ec826153ab565b602082019050919050565b60006020820190508181036000830152615410816153d4565b9050919050565b7f5469636b6574206e6f7420666f722073616c6500000000000000000000000000600082015250565b600061544d601383614138565b915061545882615417565b602082019050919050565b6000602082019050818103600083015261547c81615440565b9050919050565b7f536f6c64206f7574000000000000000000000000000000000000000000000000600082015250565b60006154b9600883614138565b91506154c482615483565b602082019050919050565b600060208201905081810360008301526154e8816154ac565b9050919050565b7f5472616e7366657220746f206f7267616e697a6572206661696c656400000000600082015250565b6000615525601c83614138565b9150615530826154ef565b602082019050919050565b6000602082019050818103600083015261555481615518565b9050919050565b7f546f6b656e20646f6573206e6f742065786973742e0000000000000000000000600082015250565b6000615591601583614138565b915061559c8261555b565b602082019050919050565b600060208201905081810360008301526155c081615584565b9050919050565b7f5469636b657420686173206e6f206f776e65722e000000000000000000000000600082015250565b60006155fd601483614138565b9150615608826155c7565b602082019050919050565b6000602082019050818103600083015261562c816155f0565b9050919050565b7f496e76616c69642070657263656e746167650000000000000000000000000000600082015250565b6000615669601283614138565b915061567482615633565b602082019050919050565b600060208201905081810360008301526156988161565c565b9050919050565b60006060820190506156b4600083018661430a565b6156c16020830185614274565b6156ce6040830184614274565b949350505050565b600081905092915050565b60006156ec8261412d565b6156f681856156d6565b9350615706818560208601614149565b80840191505092915050565b600061571e82856156e1565b915061572a82846156e1565b91508190509392505050565b7f4e6f74207469636b6574206f776e657200000000000000000000000000000000600082015250565b600061576c601083614138565b915061577782615736565b602082019050919050565b6000602082019050818103600083015261579b8161575f565b9050919050565b7f5072696365206d7573742062652067726561746572207468616e203000000000600082015250565b60006157d8601c83614138565b91506157e3826157a2565b602082019050919050565b60006020820190508181036000830152615807816157cb565b9050919050565b7f5469636b6574206d757374206e6f742062652063757272656e746c7920666f7260008201527f2073616c65000000000000000000000000000000000000000000000000000000602082015250565b600061586a602583614138565b91506158758261580e565b604082019050919050565b600060208201905081810360008301526158998161585d565b9050919050565b60006040820190506158b5600083018561430a565b6158c2602083018461430a565b9392505050565b600081519050919050565b600082825260208201905092915050565b60006158f0826158c9565b6158fa81856158d4565b935061590a818560208601614149565b61591381614173565b840191505092915050565b60006080820190506159336000830187614274565b6159406020830186614274565b61594d604083018561430a565b818103606083015261595f81846158e5565b905095945050505050565b6000815190506159798161409e565b92915050565b60006020828403121561599557615994614068565b5b60006159a38482850161596a565b91505092915050565b60006040820190506159c16000830185614274565b6159ce602083018461430a565b939250505056fea264697066735822122076f1aabe28f0a4ee70554e08d02cec8e8f157b48e47dbbd338ee28713ac071e464736f6c634300081c0033",
  "linkReferences": {},
  "deployedLinkReferences": {}
}