{"contracts/TicketMarketplace.sol":{"TicketMarketplace":{"abi":[{"inputs":[{"internalType":"address","name":"_owner","type":"address"},{"internalType":"address","name":"_treasuryWallet","type":"address"},{"internalType":"contract IERC20","name":"_tcoin","type":"address"}],"stateMutability":"nonpayable","type":"constructor"},{"inputs":[{"internalType":"address","name":"sender","type":"address"},{"internalType":"uint256","name":"tokenId","type":"uint256"},{"internalType":"address","name":"owner","type":"address"}],"name":"ERC721IncorrectOwner","type":"error"},{"inputs":[{"internalType":"address","name":"operator","type":"address"},{"internalType":"uint256","name":"tokenId","type":"uint256"}],"name":"ERC721InsufficientApproval","type":"error"},{"inputs":[{"internalType":"address","name":"approver","type":"address"}],"name":"ERC721InvalidApprover","type":"error"},{"inputs":[{"internalType":"address","name":"operator","type":"address"}],"name":"ERC721InvalidOperator","type":"error"},{"inputs":[{"internalType":"address","name":"owner","type":"address"}],"name":"ERC721InvalidOwner","type":"error"},{"inputs":[{"internalType":"address","name":"receiver","type":"address"}],"name":"ERC721InvalidReceiver","type":"error"},{"inputs":[{"internalType":"address","name":"sender","type":"address"}],"name":"ERC721InvalidSender","type":"error"},{"inputs":[{"internalType":"uint256","name":"tokenId","type":"uint256"}],"name":"ERC721NonexistentToken","type":"error"},{"inputs":[],"name":"EnforcedPause","type":"error"},{"inputs":[],"name":"ExpectedPause","type":"error"},{"inputs":[{"internalType":"address","name":"owner","type":"address"}],"name":"OwnableInvalidOwner","type":"error"},{"inputs":[{"internalType":"address","name":"account","type":"address"}],"name":"OwnableUnauthorizedAccount","type":"error"},{"anonymous":false,"inputs":[{"indexed":true,"internalType":"address","name":"owner","type":"address"},{"indexed":true,"internalType":"address","name":"approved","type":"address"},{"indexed":true,"internalType":"uint256","name":"tokenId","type":"uint256"}],"name":"Approval","type":"event"},{"anonymous":false,"inputs":[{"indexed":true,"internalType":"address","name":"owner","type":"address"},{"indexed":true,"internalType":"address","name":"operator","type":"address"},{"indexed":false,"internalType":"bool","name":"approved","type":"bool"}],"name":"ApprovalForAll","type":"event"},{"anonymous":false,"inputs":[{"indexed":false,"internalType":"uint256","name":"_fromTokenId","type":"uint256"},{"indexed":false,"internalType":"uint256","name":"_toTokenId","type":"uint256"}],"name":"BatchMetadataUpdate","type":"event"},{"anonymous":false,"inputs":[{"indexed":false,"internalType":"uint256","name":"eventId","type":"uint256"},{"indexed":false,"internalType":"string","name":"name","type":"string"},{"indexed":false,"internalType":"uint256","name":"totalTickets","type":"uint256"}],"name":"EventCreated","type":"event"},{"anonymous":false,"inputs":[{"indexed":false,"internalType":"uint256","name":"_tokenId","type":"uint256"}],"name":"MetadataUpdate","type":"event"},{"anonymous":false,"inputs":[{"indexed":true,"internalType":"address","name":"previousOwner","type":"address"},{"indexed":true,"internalType":"address","name":"newOwner","type":"address"}],"name":"OwnershipTransferred","type":"event"},{"anonymous":false,"inputs":[{"indexed":false,"internalType":"address","name":"account","type":"address"}],"name":"Paused","type":"event"},{"anonymous":false,"inputs":[{"indexed":false,"internalType":"uint256","name":"ticketId","type":"uint256"},{"indexed":false,"internalType":"uint256","name":"price","type":"uint256"}],"name":"TicketListed","type":"event"},{"anonymous":false,"inputs":[{"indexed":false,"internalType":"uint256","name":"ticketId","type":"uint256"},{"indexed":false,"internalType":"uint256","name":"eventId","type":"uint256"},{"indexed":false,"internalType":"address","name":"buyer","type":"address"}],"name":"TicketPurchased","type":"event"},{"anonymous":false,"inputs":[{"indexed":false,"internalType":"uint256","name":"ticketId","type":"uint256"},{"indexed":false,"internalType":"address","name":"from","type":"address"},{"indexed":false,"internalType":"address","name":"to","type":"address"}],"name":"TicketTransferred","type":"event"},{"anonymous":false,"inputs":[{"indexed":true,"internalType":"address","name":"from","type":"address"},{"indexed":true,"internalType":"address","name":"to","type":"address"},{"indexed":true,"internalType":"uint256","name":"tokenId","type":"uint256"}],"name":"Transfer","type":"event"},{"anonymous":false,"inputs":[{"indexed":false,"internalType":"address","name":"account","type":"address"}],"name":"Unpaused","type":"event"},{"inputs":[{"internalType":"address","name":"to","type":"address"},{"internalType":"uint256","name":"tokenId","type":"uint256"}],"name":"approve","outputs":[],"stateMutability":"nonpayable","type":"function"},{"inputs":[{"internalType":"address","name":"owner","type":"address"}],"name":"balanceOf","outputs":[{"internalType":"uint256","name":"","type":"uint256"}],"stateMutability":"view","type":"function"},{"inputs":[{"internalType":"uint256","name":"ticketId","type":"uint256"}],"name":"buyResaleTicket","outputs":[],"stateMutability":"nonpayable","type":"function"},{"inputs":[{"internalType":"uint256","name":"eventId","type":"uint256"},{"internalType":"uint256","name":"seatNumber","type":"uint256"}],"name":"buyTicket","outputs":[],"stateMutability":"nonpayable","type":"function"},{"inputs":[{"internalType":"string","name":"name","type":"string"},{"internalType":"string","name":"date","type":"string"},{"internalType":"string","name":"time","type":"string"},{"internalType":"string","name":"location","type":"string"},{"internalType":"string","name":"description","type":"string"},{"internalType":"uint256","name":"ticketPrice","type":"uint256"},{"internalType":"uint256","name":"totalTickets","type":"uint256"}],"name":"createEvent","outputs":[],"stateMutability":"nonpayable","type":"function"},{"inputs":[{"internalType":"uint256","name":"","type":"uint256"}],"name":"events","outputs":[{"internalType":"string","name":"name","type":"string"},{"internalType":"string","name":"date","type":"string"},{"internalType":"string","name":"time","type":"string"},{"internalType":"string","name":"location","type":"string"},{"internalType":"string","name":"description","type":"string"},{"internalType":"uint256","name":"ticketPrice","type":"uint256"},{"internalType":"uint256","name":"totalTickets","type":"uint256"},{"internalType":"uint256","name":"ticketsSold","type":"uint256"},{"internalType":"address","name":"organizer","type":"address"}],"stateMutability":"view","type":"function"},{"inputs":[{"internalType":"uint256","name":"tokenId","type":"uint256"}],"name":"getApproved","outputs":[{"internalType":"address","name":"","type":"address"}],"stateMutability":"view","type":"function"},{"inputs":[{"internalType":"address","name":"owner","type":"address"},{"internalType":"address","name":"operator","type":"address"}],"name":"isApprovedForAll","outputs":[{"internalType":"bool","name":"","type":"bool"}],"stateMutability":"view","type":"function"},{"inputs":[{"internalType":"uint256","name":"ticketId","type":"uint256"},{"internalType":"uint256","name":"price","type":"uint256"}],"name":"listTicketForSale","outputs":[],"stateMutability":"nonpayable","type":"function"},{"inputs":[],"name":"name","outputs":[{"internalType":"string","name":"","type":"string"}],"stateMutability":"view","type":"function"},{"inputs":[],"name":"nextEventId","outputs":[{"internalType":"uint256","name":"","type":"uint256"}],"stateMutability":"view","type":"function"},{"inputs":[],"name":"nextTicketId","outputs":[{"internalType":"uint256","name":"","type":"uint256"}],"stateMutability":"view","type":"function"},{"inputs":[],"name":"owner","outputs":[{"internalType":"address","name":"","type":"address"}],"stateMutability":"view","type":"function"},{"inputs":[{"internalType":"uint256","name":"tokenId","type":"uint256"}],"name":"ownerOf","outputs":[{"internalType":"address","name":"","type":"address"}],"stateMutability":"view","type":"function"},{"inputs":[],"name":"pauseMarketPlace","outputs":[],"stateMutability":"nonpayable","type":"function"},{"inputs":[],"name":"paused","outputs":[{"internalType":"bool","name":"","type":"bool"}],"stateMutability":"view","type":"function"},{"inputs":[],"name":"platformFeePercent","outputs":[{"internalType":"uint256","name":"","type":"uint256"}],"stateMutability":"view","type":"function"},{"inputs":[],"name":"renounceOwnership","outputs":[],"stateMutability":"nonpayable","type":"function"},{"inputs":[],"name":"resumeMarketPlace","outputs":[],"stateMutability":"nonpayable","type":"function"},{"inputs":[],"name":"royaltyPercent","outputs":[{"internalType":"uint256","name":"","type":"uint256"}],"stateMutability":"view","type":"function"},{"inputs":[{"internalType":"address","name":"from","type":"address"},{"internalType":"address","name":"to","type":"address"},{"internalType":"uint256","name":"tokenId","type":"uint256"}],"name":"safeTransferFrom","outputs":[],"stateMutability":"nonpayable","type":"function"},{"inputs":[{"internalType":"address","name":"from","type":"address"},{"internalType":"address","name":"to","type":"address"},{"internalType":"uint256","name":"tokenId","type":"uint256"},{"internalType":"bytes","name":"data","type":"bytes"}],"name":"safeTransferFrom","outputs":[],"stateMutability":"nonpayable","type":"function"},{"inputs":[{"internalType":"uint256","name":"","type":"uint256"}],"name":"secondarySaleTicketPrices","outputs":[{"internalType":"uint256","name":"","type":"uint256"}],"stateMutability":"view","type":"function"},{"inputs":[{"internalType":"address","name":"admin","type":"address"}],"name":"setAdmin","outputs":[],"stateMutability":"nonpayable","type":"function"},{"inputs":[{"internalType":"address","name":"operator","type":"address"},{"internalType":"bool","name":"approved","type":"bool"}],"name":"setApprovalForAll","outputs":[],"stateMutability":"nonpayable","type":"function"},{"inputs":[{"internalType":"uint256","name":"percentage","type":"uint256"}],"name":"setPlatformFeePercentage","outputs":[],"stateMutability":"nonpayable","type":"function"},{"inputs":[{"internalType":"uint256","name":"percentage","type":"uint256"}],"name":"setRoyaltyPercentage","outputs":[],"stateMutability":"nonpayable","type":"function"},{"inputs":[{"internalType":"uint256","name":"eventId","type":"uint256"},{"internalType":"uint256","name":"ticketPrice","type":"uint256"}],"name":"setTicketPrice","outputs":[],"stateMutability":"nonpayable","type":"function"},{"inputs":[{"internalType":"address","name":"wallet","type":"address"}],"name":"setTreasuryWallet","outputs":[],"stateMutability":"nonpayable","type":"function"},{"inputs":[{"internalType":"bytes4","name":"interfaceId","type":"bytes4"}],"name":"supportsInterface","outputs":[{"internalType":"bool","name":"","type":"bool"}],"stateMutability":"view","type":"function"},{"inputs":[],"name":"symbol","outputs":[{"internalType":"string","name":"","type":"string"}],"stateMutability":"view","type":"function"},{"inputs":[],"name":"tcoin","outputs":[{"internalType":"contract IERC20","name":"","type":"address"}],"stateMutability":"view","type":"function"},{"inputs":[{"internalType":"uint256","name":"","type":"uint256"}],"name":"tickets","outputs":[{"internalType":"uint256","name":"ticketId","type":"uint256"},{"internalType":"uint256","name":"eventId","type":"uint256"},{"internalType":"uint256","name":"seatNumber","type":"uint256"}],"stateMutability":"view","type":"function"},{"inputs":[{"internalType":"uint256","name":"tokenId","type":"uint256"}],"name":"tokenURI","outputs":[{"internalType":"string","name":"","type":"string"}],"stateMutability":"view","type":"function"},{"inputs":[{"internalType":"address","name":"from","type":"address"},{"internalType":"address","name":"to","type":"address"},{"internalType":"uint256","name":"tokenId","type":"uint256"}],"name":"transferFrom","outputs":[],"stateMutability":"nonpayable","type":"function"},{"inputs":[{"internalType":"address","name":"newOwner","type":"address"}],"name":"transferOwnership","outputs":[],"stateMutability":"nonpayable","type":"function"},{"inputs":[{"internalType":"uint256","name":"ticketId","type":"uint256"},{"internalType":"address","name":"to","type":"address"}],"name":"transferTicket","outputs":[],"stateMutability":"nonpayable","type":"function"},{"inputs":[],"name":"treasuryWallet","outputs":[{"internalType":"address","name":"","type":"address"}],"stateMutability":"view","type":"function"},{"inputs":[{"internalType":"uint256","name":"ticketId","type":"uint256"}],"name":"verifyTicket","outputs":[{"internalType":"bool","name":"","type":"bool"}],"stateMutability":"view","type":"function"}],"evm":{"bytecode":{"linkReferences":{},"object":"608060405260016009556001600a556005600b55600a600c5534801561002457600080fd5b506040516159a83803806159a8833981810160405281019061004691906103b2565b6040518060400160405280600c81526020017f4576656e74205469636b657400000000000000000000000000000000000000008152506040518060400160405280600381526020017f544958000000000000000000000000000000000000000000000000000000000081525084600073ffffffffffffffffffffffffffffffffffffffff168173ffffffffffffffffffffffffffffffffffffffff16036101255760006040517f1e4fbdf700000000000000000000000000000000000000000000000000000000815260040161011c9190610414565b60405180910390fd5b6101348161024a60201b60201c565b508160019081610144919061067f565b508060029081610154919061067f565b5050506000600860006101000a81548160ff02191690831515021790555061018c67250383b7e90c939360c01b61030e60201b60201c565b6101a667c13bc274ce8aeb6d60c01b61030e60201b60201c565b81600d60006101000a81548173ffffffffffffffffffffffffffffffffffffffff021916908373ffffffffffffffffffffffffffffffffffffffff16021790555061020167d0a707d95fe8b2c960c01b61030e60201b60201c565b80600860016101000a81548173ffffffffffffffffffffffffffffffffffffffff021916908373ffffffffffffffffffffffffffffffffffffffff160217905550505050610751565b60008060009054906101000a900473ffffffffffffffffffffffffffffffffffffffff169050816000806101000a81548173ffffffffffffffffffffffffffffffffffffffff021916908373ffffffffffffffffffffffffffffffffffffffff1602179055508173ffffffffffffffffffffffffffffffffffffffff168173ffffffffffffffffffffffffffffffffffffffff167f8be0079c531659141344cd1fd0a4f28419497f9722a3daafe3b4186f6b6457e060405160405180910390a35050565b50565b600080fd5b600073ffffffffffffffffffffffffffffffffffffffff82169050919050565b600061034182610316565b9050919050565b61035181610336565b811461035c57600080fd5b50565b60008151905061036e81610348565b92915050565b600061037f82610336565b9050919050565b61038f81610374565b811461039a57600080fd5b50565b6000815190506103ac81610386565b92915050565b6000806000606084860312156103cb576103ca610311565b5b60006103d98682870161035f565b93505060206103ea8682870161035f565b92505060406103fb8682870161039d565b9150509250925092565b61040e81610336565b82525050565b60006020820190506104296000830184610405565b92915050565b600081519050919050565b7f4e487b7100000000000000000000000000000000000000000000000000000000600052604160045260246000fd5b7f4e487b7100000000000000000000000000000000000000000000000000000000600052602260045260246000fd5b600060028204905060018216806104b057607f821691505b6020821081036104c3576104c2610469565b5b50919050565b60008190508160005260206000209050919050565b60006020601f8301049050919050565b600082821b905092915050565b60006008830261052b7fffffffffffffffffffffffffffffffffffffffffffffffffffffffffffffffff826104ee565b61053586836104ee565b95508019841693508086168417925050509392505050565b6000819050919050565b6000819050919050565b600061057c6105776105728461054d565b610557565b61054d565b9050919050565b6000819050919050565b61059683610561565b6105aa6105a282610583565b8484546104fb565b825550505050565b600090565b6105bf6105b2565b6105ca81848461058d565b505050565b5b818110156105ee576105e36000826105b7565b6001810190506105d0565b5050565b601f82111561063357610604816104c9565b61060d846104de565b8101602085101561061c578190505b610630610628856104de565b8301826105cf565b50505b505050565b600082821c905092915050565b600061065660001984600802610638565b1980831691505092915050565b600061066f8383610645565b9150826002028217905092915050565b6106888261042f565b67ffffffffffffffff8111156106a1576106a061043a565b5b6106ab8254610498565b6106b68282856105f2565b600060209050601f8311600181146106e957600084156106d7578287015190505b6106e18582610663565b865550610749565b601f1984166106f7866104c9565b60005b8281101561071f578489015182556001820191506020850194506020810190506106fa565b8683101561073c5784890151610738601f891682610645565b8355505b6001600288020188555050505b505050505050565b615248806107606000396000f3fe608060405234801561001057600080fd5b506004361061023d5760003560e01c8063704b6c021161013b578063a22cb465116100b8578063d524d32d1161007c578063d524d32d14610694578063e2082e79146106b0578063e985e9c5146106ba578063f0a38cb0146106ea578063f2fde38b1461071a5761023d565b8063a22cb465146105f4578063a8602fea14610610578063aa4c4cc11461062c578063b88d4fde14610648578063c87b56dd146106645761023d565b80638c639a85116100ff5780638c639a851461055e5780638da5cb5b1461057c57806395d89b411461059a5780639f67756d146105b85780639f9d903a146105d65761023d565b8063704b6c02146104ce57806370a08231146104ea578063715018a61461051a5780638333903e1461052457806385fc4550146105405761023d565b80632d21a464116101c95780635c975abb1161018d5780635c975abb1461042a5780636031a52f1461044857806361ba27da146104665780636352211e14610482578063679ebf1a146104b25761023d565b80632d21a4641461038457806342842e0e1461038e5780634626402b146103aa57806350b44712146103c8578063543cb81f146103fa5761023d565b80630b791430116102105780630b791430146102dc5780631d9c5d5c14610314578063204b7d901461033057806323b872dd1461034c578063298ec208146103685761023d565b806301ffc9a71461024257806306fdde0314610272578063081812fc14610290578063095ea7b3146102c0575b600080fd5b61025c60048036038101906102579190613d92565b610736565b6040516102699190613dda565b60405180910390f35b61027a610797565b6040516102879190613e85565b60405180910390f35b6102aa60048036038101906102a59190613edd565b610829565b6040516102b79190613f4b565b60405180910390f35b6102da60048036038101906102d59190613f92565b610845565b005b6102f660048036038101906102f19190613edd565b61085b565b60405161030b99989796959493929190613fe1565b60405180910390f35b61032e60048036038101906103299190613edd565b610b71565b005b61034a600480360381019061034591906141c6565b6111c4565b005b610366600480360381019061036191906142f4565b6113f9565b005b610382600480360381019061037d9190614347565b6114fb565b005b61038c611a50565b005b6103a860048036038101906103a391906142f4565b611ac6565b005b6103b2611ae6565b6040516103bf9190613f4b565b60405180910390f35b6103e260048036038101906103dd9190613edd565b611b0c565b6040516103f193929190614387565b60405180910390f35b610414600480360381019061040f9190613edd565b611b36565b6040516104219190613dda565b60405180910390f35b610432611c79565b60405161043f9190613dda565b60405180910390f35b610450611c90565b60405161045d91906143be565b60405180910390f35b610480600480360381019061047b9190613edd565b611c96565b005b61049c60048036038101906104979190613edd565b611d8c565b6040516104a99190613f4b565b60405180910390f35b6104cc60048036038101906104c791906143d9565b611d9e565b005b6104e860048036038101906104e39190614419565b611f94565b005b61050460048036038101906104ff9190614419565b61200c565b60405161051191906143be565b60405180910390f35b6105226120c6565b005b61053e60048036038101906105399190613edd565b6120da565b005b6105486121d0565b60405161055591906144a5565b60405180910390f35b6105666121f6565b60405161057391906143be565b60405180910390f35b6105846121fc565b6040516105919190613f4b565b60405180910390f35b6105a2612225565b6040516105af9190613e85565b60405180910390f35b6105c06122b7565b6040516105cd91906143be565b60405180910390f35b6105de6122bd565b6040516105eb91906143be565b60405180910390f35b61060e600480360381019061060991906144ec565b6122c3565b005b61062a60048036038101906106259190614419565b6122d9565b005b61064660048036038101906106419190614347565b612375565b005b610662600480360381019061065d91906145cd565b6124fc565b005b61067e60048036038101906106799190613edd565b612521565b60405161068b9190613e85565b60405180910390f35b6106ae60048036038101906106a99190614347565b612634565b005b6106b86128b4565b005b6106d460048036038101906106cf9190614650565b61292a565b6040516106e19190613dda565b60405180910390f35b61070460048036038101906106ff9190613edd565b6129be565b60405161071191906143be565b60405180910390f35b610734600480360381019061072f9190614419565b6129d6565b005b6000634906490660e01b7bffffffffffffffffffffffffffffffffffffffffffffffffffffffff1916827bffffffffffffffffffffffffffffffffffffffffffffffffffffffff19161480610790575061078f82612a5c565b5b9050919050565b6060600180546107a6906146bf565b80601f01602080910402602001604051908101604052809291908181526020018280546107d2906146bf565b801561081f5780601f106107f45761010080835404028352916020019161081f565b820191906000526020600020905b81548152906001019060200180831161080257829003601f168201915b5050505050905090565b600061083482612b3e565b5061083e82612bc6565b9050919050565b6108578282610852612c03565b612c0b565b5050565b600e60205280600052604060002060009150905080600001805461087e906146bf565b80601f01602080910402602001604051908101604052809291908181526020018280546108aa906146bf565b80156108f75780601f106108cc576101008083540402835291602001916108f7565b820191906000526020600020905b8154815290600101906020018083116108da57829003601f168201915b50505050509080600101805461090c906146bf565b80601f0160208091040260200160405190810160405280929190818152602001828054610938906146bf565b80156109855780601f1061095a57610100808354040283529160200191610985565b820191906000526020600020905b81548152906001019060200180831161096857829003601f168201915b50505050509080600201805461099a906146bf565b80601f01602080910402602001604051908101604052809291908181526020018280546109c6906146bf565b8015610a135780601f106109e857610100808354040283529160200191610a13565b820191906000526020600020905b8154815290600101906020018083116109f657829003601f168201915b505050505090806003018054610a28906146bf565b80601f0160208091040260200160405190810160405280929190818152602001828054610a54906146bf565b8015610aa15780601f10610a7657610100808354040283529160200191610aa1565b820191906000526020600020905b815481529060010190602001808311610a8457829003601f168201915b505050505090806004018054610ab6906146bf565b80601f0160208091040260200160405190810160405280929190818152602001828054610ae2906146bf565b8015610b2f5780601f10610b0457610100808354040283529160200191610b2f565b820191906000526020600020905b815481529060010190602001808311610b1257829003601f168201915b5050505050908060050154908060060154908060070154908060080160009054906101000a900473ffffffffffffffffffffffffffffffffffffffff16905089565b610b856732b7420d5b6d67d260c01b612c1d565b610b8d612c20565b610ba167feff446acf04c9e560c01b612c1d565b610bb567a043abcbbae4443160c01b612c1d565b610bc967782c349e73feb61f60c01b612c1d565b610bdd670282c5810e6b6d1a60c01b612c1d565b6000600f60008381526020019081526020016000209050610c0867bd2de946a3847afb60c01b612c1d565b610c1c67965736b09ddaf19660c01b612c1d565b600060106000848152602001908152602001600020549050610c4867303f36762fd9976060c01b612c1d565b610c5c67cd6928006a6690c860c01b612c1d565b610c70672c2dc7e2602e2a8c60c01b612c1d565b60008111610cb3576040517f08c379a0000000000000000000000000000000000000000000000000000000008152600401610caa9061473c565b60405180910390fd5b610cc767251badfd01150a9460c01b612c1d565b610cdb6767e26ccbe6f82ae960c01b612c1d565b610cef674e9e330d23d2ab0e60c01b612c1d565b610d0367a576a57c935ca57660c01b612c1d565b600860019054906101000a900473ffffffffffffffffffffffffffffffffffffffff1673ffffffffffffffffffffffffffffffffffffffff166323b872dd33610d4b86611d8c565b846040518463ffffffff1660e01b8152600401610d6a9392919061475c565b6020604051808303816000875af1158015610d89573d6000803e3d6000fd5b505050506040513d601f19601f82011682018060405250810190610dad91906147a8565b610dec576040517f08c379a0000000000000000000000000000000000000000000000000000000008152600401610de390614821565b60405180910390fd5b610e0067fc2fbc460db6880c60c01b612c1d565b610e146739f00d6bf8a161b160c01b612c1d565b610e2867bd98bb1d9522bdaa60c01b612c1d565b610e3c674827259feacb071b60c01b612c1d565b600860019054906101000a900473ffffffffffffffffffffffffffffffffffffffff1673ffffffffffffffffffffffffffffffffffffffff166323b872dd33600d60009054906101000a900473ffffffffffffffffffffffffffffffffffffffff166064600b5486610eae9190614870565b610eb891906148e1565b6040518463ffffffff1660e01b8152600401610ed69392919061475c565b6020604051808303816000875af1158015610ef5573d6000803e3d6000fd5b505050506040513d601f19601f82011682018060405250810190610f1991906147a8565b610f58576040517f08c379a0000000000000000000000000000000000000000000000000000000008152600401610f4f9061495e565b60405180910390fd5b610f6c6704032fc252230bde60c01b612c1d565b610f8067a222fb657097e06460c01b612c1d565b610f9467ff46aac216003b0360c01b612c1d565b610fa8677bca388bf5b0d30060c01b612c1d565b600860019054906101000a900473ffffffffffffffffffffffffffffffffffffffff1673ffffffffffffffffffffffffffffffffffffffff166323b872dd33600e60008660010154815260200190815260200160002060080160009054906101000a900473ffffffffffffffffffffffffffffffffffffffff166064600c54866110329190614870565b61103c91906148e1565b6040518463ffffffff1660e01b815260040161105a9392919061475c565b6020604051808303816000875af1158015611079573d6000803e3d6000fd5b505050506040513d601f19601f8201168201806040525081019061109d91906147a8565b6110dc576040517f08c379a00000000000000000000000000000000000000000000000000000000081526004016110d3906149ca565b60405180910390fd5b6110f067ac33cbb4bd202a9e60c01b612c1d565b61110467e7dddacb23b732ae60c01b612c1d565b61111867f1fc8e068ce7239860c01b612c1d565b61112b61112484611d8c565b3385612c61565b61113f67318c3ab1a06b043460c01b612c1d565b6000601060008581526020019081526020016000208190555061116c67d1c3eb391e7e42bb60c01b612c1d565b6111806734289c59ed7431c060c01b612c1d565b7f94c5953e15f54d38b82a662bdd5739fc91af3a23d3ef7e67269dfaeee71a813c838360010154336040516111b7939291906149ea565b60405180910390a1505050565b6111d867f8d5cd7b4a82c2cb60c01b612c1d565b6111e0612c20565b6111f467ed6a7e5d0dd8f76e60c01b612c1d565b61120867e1ddbf9c0bbf846160c01b612c1d565b61121c67728cafed82226b7960c01b612c1d565b604051806101200160405280888152602001878152602001868152602001858152602001848152602001838152602001828152602001600081526020013373ffffffffffffffffffffffffffffffffffffffff16815250600e60006009548152602001908152602001600020600082015181600001908161129d9190614bc3565b5060208201518160010190816112b39190614bc3565b5060408201518160020190816112c99190614bc3565b5060608201518160030190816112df9190614bc3565b5060808201518160040190816112f59190614bc3565b5060a0820151816005015560c0820151816006015560e082015181600701556101008201518160080160006101000a81548173ffffffffffffffffffffffffffffffffffffffff021916908373ffffffffffffffffffffffffffffffffffffffff16021790555090505061137367f4933e3f7f43c63b60c01b612c1d565b61138767b36a93e4f0d156a760c01b612c1d565b7fee37bb5143a14810f72e86fce895be08e16090409d2e18f79b308995e39b73d460095488836040516113bc93929190614c95565b60405180910390a16113d867c442d6f4167acceb60c01b612c1d565b600960008154809291906113eb90614cd3565b919050555050505050505050565b600073ffffffffffffffffffffffffffffffffffffffff168273ffffffffffffffffffffffffffffffffffffffff160361146b5760006040517f64a0ae920000000000000000000000000000000000000000000000000000000081526004016114629190613f4b565b60405180910390fd5b600061147f838361147a612c03565b612dce565b90508373ffffffffffffffffffffffffffffffffffffffff168173ffffffffffffffffffffffffffffffffffffffff16146114f5578382826040517f64283d7b0000000000000000000000000000000000000000000000000000000081526004016114ec93929190614d1b565b60405180910390fd5b50505050565b61150f677dd6e13cc166d2ff60c01b612c1d565b611517612c20565b61152b67bc8cedfa962d837260c01b612c1d565b61153f67c6ff294f3cb0113d60c01b612c1d565b611553674e1b3a2c35acdc4160c01b612c1d565b61156767b96297c41d6b2eac60c01b612c1d565b6000600e6000848152602001908152602001600020905061159267e72e75a6b328406f60c01b612c1d565b6115a6671fe8eaa8d15bf89e60c01b612c1d565b6115ba6776df47b18b7f118560c01b612c1d565b8060060154816007015410611604576040517f08c379a00000000000000000000000000000000000000000000000000000000081526004016115fb90614d9e565b60405180910390fd5b6116186732c1baef20a6762760c01b612c1d565b61162c672b22bb83eabd771760c01b612c1d565b611640673e37b0ee58a13a6660c01b612c1d565b61165467237c1ff87c72da5c60c01b612c1d565b600860019054906101000a900473ffffffffffffffffffffffffffffffffffffffff1673ffffffffffffffffffffffffffffffffffffffff166323b872dd338360080160009054906101000a900473ffffffffffffffffffffffffffffffffffffffff1684600501546040518463ffffffff1660e01b81526004016116db9392919061475c565b6020604051808303816000875af11580156116fa573d6000803e3d6000fd5b505050506040513d601f19601f8201168201806040525081019061171e91906147a8565b61175d576040517f08c379a000000000000000000000000000000000000000000000000000000000815260040161175490614e0a565b60405180910390fd5b61177167ef446621046e01d660c01b612c1d565b61178567465a86c906ead92360c01b612c1d565b61179967c646b50627cd104360c01b612c1d565b6117ad6708016e461d4f5bf060c01b612c1d565b600860019054906101000a900473ffffffffffffffffffffffffffffffffffffffff1673ffffffffffffffffffffffffffffffffffffffff166323b872dd33600d60009054906101000a900473ffffffffffffffffffffffffffffffffffffffff166064600b5486600501546118239190614870565b61182d91906148e1565b6040518463ffffffff1660e01b815260040161184b9392919061475c565b6020604051808303816000875af115801561186a573d6000803e3d6000fd5b505050506040513d601f19601f8201168201806040525081019061188e91906147a8565b6118cd576040517f08c379a00000000000000000000000000000000000000000000000000000000081526004016118c49061495e565b60405180910390fd5b6118e167446e85413afcbc1460c01b612c1d565b6118f5678e5deafa82c05cb260c01b612c1d565b61190967e8d6640d9908874f60c01b612c1d565b6000600a600081548092919061191e90614cd3565b919050559050611938677eed84fc81de4fe560c01b612c1d565b61194c6746d06dcdbf8827c760c01b612c1d565b6119563382612fe8565b61196a676e442f15f4c84b0060c01b612c1d565b604051806060016040528082815260200185815260200184815250600f60008381526020019081526020016000206000820151816000015560208201518160010155604082015181600201559050506119cd67f683afaf260dbd9a60c01b612c1d565b8160070160008154809291906119e290614cd3565b91905055506119fb6772c6140ae072c80060c01b612c1d565b611a0f675cecebb93e9ea9e160c01b612c1d565b7f94c5953e15f54d38b82a662bdd5739fc91af3a23d3ef7e67269dfaeee71a813c818533604051611a42939291906149ea565b60405180910390a150505050565b611a6467509eae165f0392de60c01b612c1d565b611a6c613006565b611a8067b9381f2bcd47c9b660c01b612c1d565b611a94679d0dabe575fd113160c01b612c1d565b611aa8671b070f1800802dc160c01b612c1d565b611abc670c67551d570831d560c01b612c1d565b611ac461308d565b565b611ae1838383604051806020016040528060008152506124fc565b505050565b600d60009054906101000a900473ffffffffffffffffffffffffffffffffffffffff1681565b600f6020528060005260406000206000915090508060000154908060010154908060020154905083565b6000611b4c67cac423ce11929ed660c01b612c1d565b611b54612c20565b611b68677ceb915705b1e77760c01b612c1d565b611b7c671d5cfec7b49dc23260c01b612c1d565b611b9067bf776f34b2df325660c01b612c1d565b611ba467160103d3a93a262a60c01b612c1d565b611bb86719a83d7fb2c777a560c01b612c1d565b600a54821115611bfd576040517f08c379a0000000000000000000000000000000000000000000000000000000008152600401611bf490614e76565b60405180910390fd5b611c1167fb415392d5602dc260c01b612c1d565b611c2567e98a61a786f84fd360c01b612c1d565b611c3967019ee01e78d19db160c01b612c1d565b600073ffffffffffffffffffffffffffffffffffffffff16611c5a83611d8c565b73ffffffffffffffffffffffffffffffffffffffff1614159050919050565b6000600860009054906101000a900460ff16905090565b600a5481565b611caa67de5cba1629d2169160c01b612c1d565b611cb2613006565b611cc66763e9d1da11b9d0d760c01b612c1d565b611cda67d40ceb34bf8707d760c01b612c1d565b611cee670574904faf72ad0b60c01b612c1d565b611d0267ca8ca1ab96b3238360c01b612c1d565b611d1667f48565462087b93460c01b612c1d565b6064811115611d5a576040517f08c379a0000000000000000000000000000000000000000000000000000000008152600401611d5190614ee2565b60405180910390fd5b611d6e67467decb92d7e84ba60c01b612c1d565b611d8267b70282dc3da7bb9d60c01b612c1d565b80600c8190555050565b6000611d9782612b3e565b9050919050565b611db267037aeed37b40d86360c01b612c1d565b611dba612c20565b611dce670e01a579e201e07e60c01b612c1d565b611de2675d3e9f197458aaf960c01b612c1d565b81611df767b50460fa9a722bca60c01b612c1d565b611e0b675a116d31bee0139760c01b612c1d565b611e1f67ce948c8f45c9ae4360c01b612c1d565b611e3367f2401812d41f186860c01b612c1d565b3373ffffffffffffffffffffffffffffffffffffffff16611e5382611d8c565b73ffffffffffffffffffffffffffffffffffffffff1614611ea9576040517f08c379a0000000000000000000000000000000000000000000000000000000008152600401611ea090614f4e565b60405180910390fd5b611ebd67b8618ebaf7d42a9460c01b612c1d565b611ed167f980f7aff380686660c01b612c1d565b611ee567dddc20b4281c001160c01b612c1d565b611ef96720b29840031a2a8860c01b612c1d565b611f0d6717afa7888ea6643060c01b612c1d565b611f2167dda64c15c6c10d5160c01b612c1d565b611f2c338385612c61565b611f4067c1d48e8c070077d760c01b612c1d565b611f5467ab88f08866ad3c8060c01b612c1d565b7fd15524263ae66f75c1e604c47db6085085110f23ef7322b355179ac5e3b0783a833384604051611f8793929190614f6e565b60405180910390a1505050565b611fa8676f6dbabb4da8164d60c01b612c1d565b611fb0613006565b611fc467796bab4cfc57ac6060c01b612c1d565b611fd8678f2818c019e30c4360c01b612c1d565b611fec67103240973f90cbc460c01b612c1d565b61200067f1bfafc6bea0c13860c01b612c1d565b612009816129d6565b50565b60008073ffffffffffffffffffffffffffffffffffffffff168273ffffffffffffffffffffffffffffffffffffffff160361207f5760006040517f89c62b640000000000000000000000000000000000000000000000000000000081526004016120769190613f4b565b60405180910390fd5b600460008373ffffffffffffffffffffffffffffffffffffffff1673ffffffffffffffffffffffffffffffffffffffff168152602001908152602001600020549050919050565b6120ce613006565b6120d860006130f0565b565b6120ee67e45cedebdf86d0cb60c01b612c1d565b6120f6613006565b61210a67ec5efa8cfa6e0e0460c01b612c1d565b61211e675415331889ecc79b60c01b612c1d565b6121326722af26da22b7955160c01b612c1d565b61214667248614e338b8387e60c01b612c1d565b61215a67c13194f09462f92960c01b612c1d565b606481111561219e576040517f08c379a000000000000000000000000000000000000000000000000000000000815260040161219590614ee2565b60405180910390fd5b6121b267ff7b6aae3dacc14560c01b612c1d565b6121c66722315f25232d01c260c01b612c1d565b80600b8190555050565b600860019054906101000a900473ffffffffffffffffffffffffffffffffffffffff1681565b600b5481565b60008060009054906101000a900473ffffffffffffffffffffffffffffffffffffffff16905090565b606060028054612234906146bf565b80601f0160208091040260200160405190810160405280929190818152602001828054612260906146bf565b80156122ad5780601f10612282576101008083540402835291602001916122ad565b820191906000526020600020905b81548152906001019060200180831161229057829003601f168201915b5050505050905090565b600c5481565b60095481565b6122d56122ce612c03565b83836131b4565b5050565b6122ed67fea2c6ce0e89085960c01b612c1d565b6122f5613006565b612309672c2abec2edff98f760c01b612c1d565b61231d67c925b191b96c7e6660c01b612c1d565b6123316799f509d458240fe060c01b612c1d565b80600d60006101000a81548173ffffffffffffffffffffffffffffffffffffffff021916908373ffffffffffffffffffffffffffffffffffffffff16021790555050565b61238967b3a61df65f2a4ae360c01b612c1d565b612391612c20565b6123a5676536ffc58b3b524060c01b612c1d565b6123b967021ac468d358b3f160c01b612c1d565b6123cd6731d0c53ad3cff25660c01b612c1d565b6123e1679af521583cd3fde560c01b612c1d565b6000600e6000848152602001908152602001600020905061240c678ea984716430fbfa60c01b612c1d565b61242067ee7c7f2510a7985260c01b612c1d565b61243467e5eb6cd360039af560c01b612c1d565b8060080160009054906101000a900473ffffffffffffffffffffffffffffffffffffffff1673ffffffffffffffffffffffffffffffffffffffff163373ffffffffffffffffffffffffffffffffffffffff16146124c6576040517f08c379a00000000000000000000000000000000000000000000000000000000081526004016124bd90614ff1565b60405180910390fd5b6124da67f040bfa0b9592a9360c01b612c1d565b6124ee67bf97a03c60a71b3760c01b612c1d565b818160050181905550505050565b6125078484846113f9565b61251b612512612c03565b85858585613323565b50505050565b606061252c82612b3e565b50600060076000848152602001908152602001600020805461254d906146bf565b80601f0160208091040260200160405190810160405280929190818152602001828054612579906146bf565b80156125c65780601f1061259b576101008083540402835291602001916125c6565b820191906000526020600020905b8154815290600101906020018083116125a957829003601f168201915b5050505050905060006125d76134d4565b905060008151036125ec57819250505061262f565b60008251111561262157808260405160200161260992919061504d565b6040516020818303038152906040529250505061262f565b61262a846134eb565b925050505b919050565b612648674f7023c5f4083b5a60c01b612c1d565b612650612c20565b61266467bc466ddbe60856fa60c01b612c1d565b61267867547edf9f3b798fc360c01b612c1d565b8161268d67b50460fa9a722bca60c01b612c1d565b6126a1675a116d31bee0139760c01b612c1d565b6126b567ce948c8f45c9ae4360c01b612c1d565b6126c967f2401812d41f186860c01b612c1d565b3373ffffffffffffffffffffffffffffffffffffffff166126e982611d8c565b73ffffffffffffffffffffffffffffffffffffffff161461273f576040517f08c379a000000000000000000000000000000000000000000000000000000000815260040161273690614f4e565b60405180910390fd5b61275367b8618ebaf7d42a9460c01b612c1d565b61276767f980f7aff380686660c01b612c1d565b61277b67c3ab91c93fddf1ec60c01b612c1d565b61278f6744456bc87ce7b5c260c01b612c1d565b6127a367138d2293d90d8e5a60c01b612c1d565b6127b767bc3f7453969d1eba60c01b612c1d565b6127cb674aa959afb8905cdb60c01b612c1d565b6000821161280e576040517f08c379a0000000000000000000000000000000000000000000000000000000008152600401612805906150bd565b60405180910390fd5b612822672438facc73640b4760c01b612c1d565b61283667f3583cd64d14511960c01b612c1d565b816010600085815260200190815260200160002081905550612862673cfc56c03a1129ac60c01b612c1d565b6128766798ba417babe9d41460c01b612c1d565b7fbca2f6391cafd6d28d39261ba883dd74090c618befb806e74ef434778bb2f7ed83836040516128a79291906150dd565b60405180910390a1505050565b6128c8679bfbe53d596b0abd60c01b612c1d565b6128d0613006565b6128e467a82102d067ae0dea60c01b612c1d565b6128f867db0f694c67c2a2c960c01b612c1d565b61290c67c4aa980a6768829360c01b612c1d565b61292067d91eb95a8a761c9160c01b612c1d565b612928613554565b565b6000600660008473ffffffffffffffffffffffffffffffffffffffff1673ffffffffffffffffffffffffffffffffffffffff16815260200190815260200160002060008373ffffffffffffffffffffffffffffffffffffffff1673ffffffffffffffffffffffffffffffffffffffff16815260200190815260200160002060009054906101000a900460ff16905092915050565b60106020528060005260406000206000915090505481565b6129de613006565b600073ffffffffffffffffffffffffffffffffffffffff168173ffffffffffffffffffffffffffffffffffffffff1603612a505760006040517f1e4fbdf7000000000000000000000000000000000000000000000000000000008152600401612a479190613f4b565b60405180910390fd5b612a59816130f0565b50565b60007f80ac58cd000000000000000000000000000000000000000000000000000000007bffffffffffffffffffffffffffffffffffffffffffffffffffffffff1916827bffffffffffffffffffffffffffffffffffffffffffffffffffffffff19161480612b2757507f5b5e139f000000000000000000000000000000000000000000000000000000007bffffffffffffffffffffffffffffffffffffffffffffffffffffffff1916827bffffffffffffffffffffffffffffffffffffffffffffffffffffffff1916145b80612b375750612b36826135b7565b5b9050919050565b600080612b4a83613621565b9050600073ffffffffffffffffffffffffffffffffffffffff168173ffffffffffffffffffffffffffffffffffffffff1603612bbd57826040517f7e273289000000000000000000000000000000000000000000000000000000008152600401612bb491906143be565b60405180910390fd5b80915050919050565b60006005600083815260200190815260200160002060009054906101000a900473ffffffffffffffffffffffffffffffffffffffff169050919050565b600033905090565b612c18838383600161365e565b505050565b50565b612c28611c79565b15612c5f576040517fd93c066500000000000000000000000000000000000000000000000000000000815260040160405180910390fd5b565b600073ffffffffffffffffffffffffffffffffffffffff168273ffffffffffffffffffffffffffffffffffffffff1603612cd35760006040517f64a0ae92000000000000000000000000000000000000000000000000000000008152600401612cca9190613f4b565b60405180910390fd5b6000612ce183836000612dce565b9050600073ffffffffffffffffffffffffffffffffffffffff168173ffffffffffffffffffffffffffffffffffffffff1603612d5457816040517f7e273289000000000000000000000000000000000000000000000000000000008152600401612d4b91906143be565b60405180910390fd5b8373ffffffffffffffffffffffffffffffffffffffff168173ffffffffffffffffffffffffffffffffffffffff1614612dc8578382826040517f64283d7b000000000000000000000000000000000000000000000000000000008152600401612dbf93929190614d1b565b60405180910390fd5b50505050565b600080612dda84613621565b9050600073ffffffffffffffffffffffffffffffffffffffff168373ffffffffffffffffffffffffffffffffffffffff1614612e1c57612e1b818486613823565b5b600073ffffffffffffffffffffffffffffffffffffffff168173ffffffffffffffffffffffffffffffffffffffff1614612ead57612e5e60008560008061365e565b6001600460008373ffffffffffffffffffffffffffffffffffffffff1673ffffffffffffffffffffffffffffffffffffffff168152602001908152602001600020600082825403925050819055505b600073ffffffffffffffffffffffffffffffffffffffff168573ffffffffffffffffffffffffffffffffffffffff1614612f30576001600460008773ffffffffffffffffffffffffffffffffffffffff1673ffffffffffffffffffffffffffffffffffffffff168152602001908152602001600020600082825401925050819055505b846003600086815260200190815260200160002060006101000a81548173ffffffffffffffffffffffffffffffffffffffff021916908373ffffffffffffffffffffffffffffffffffffffff160217905550838573ffffffffffffffffffffffffffffffffffffffff168273ffffffffffffffffffffffffffffffffffffffff167fddf252ad1be2c89b69c2b068fc378daa952ba7f163c4a11628f55a4df523b3ef60405160405180910390a4809150509392505050565b6130028282604051806020016040528060008152506138e7565b5050565b61300e612c03565b73ffffffffffffffffffffffffffffffffffffffff1661302c6121fc565b73ffffffffffffffffffffffffffffffffffffffff161461308b5761304f612c03565b6040517f118cdaa70000000000000000000000000000000000000000000000000000000081526004016130829190613f4b565b60405180910390fd5b565b613095612c20565b6001600860006101000a81548160ff0219169083151502179055507f62e78cea01bee320cd4e420270b5ea74000d11b0c9f74754ebdbfc544b05a2586130d9612c03565b6040516130e69190613f4b565b60405180910390a1565b60008060009054906101000a900473ffffffffffffffffffffffffffffffffffffffff169050816000806101000a81548173ffffffffffffffffffffffffffffffffffffffff021916908373ffffffffffffffffffffffffffffffffffffffff1602179055508173ffffffffffffffffffffffffffffffffffffffff168173ffffffffffffffffffffffffffffffffffffffff167f8be0079c531659141344cd1fd0a4f28419497f9722a3daafe3b4186f6b6457e060405160405180910390a35050565b600073ffffffffffffffffffffffffffffffffffffffff168273ffffffffffffffffffffffffffffffffffffffff160361322557816040517f5b08ba1800000000000000000000000000000000000000000000000000000000815260040161321c9190613f4b565b60405180910390fd5b80600660008573ffffffffffffffffffffffffffffffffffffffff1673ffffffffffffffffffffffffffffffffffffffff16815260200190815260200160002060008473ffffffffffffffffffffffffffffffffffffffff1673ffffffffffffffffffffffffffffffffffffffff16815260200190815260200160002060006101000a81548160ff0219169083151502179055508173ffffffffffffffffffffffffffffffffffffffff168373ffffffffffffffffffffffffffffffffffffffff167f17307eab39ab6107e8899845ad3d59bd9653f200f220920489ca2b5937696c31836040516133169190613dda565b60405180910390a3505050565b60008373ffffffffffffffffffffffffffffffffffffffff163b11156134cd578273ffffffffffffffffffffffffffffffffffffffff1663150b7a02868685856040518563ffffffff1660e01b8152600401613382949392919061515b565b6020604051808303816000875af19250505080156133be57506040513d601f19601f820116820180604052508101906133bb91906151bc565b60015b613442573d80600081146133ee576040519150601f19603f3d011682016040523d82523d6000602084013e6133f3565b606091505b50600081510361343a57836040517f64a0ae920000000000000000000000000000000000000000000000000000000081526004016134319190613f4b565b60405180910390fd5b805181602001fd5b63150b7a0260e01b7bffffffffffffffffffffffffffffffffffffffffffffffffffffffff1916817bffffffffffffffffffffffffffffffffffffffffffffffffffffffff1916146134cb57836040517f64a0ae920000000000000000000000000000000000000000000000000000000081526004016134c29190613f4b565b60405180910390fd5b505b5050505050565b606060405180602001604052806000815250905090565b60606134f682612b3e565b5060006135016134d4565b90506000815111613521576040518060200160405280600081525061354c565b8061352b8461390b565b60405160200161353c92919061504d565b6040516020818303038152906040525b915050919050565b61355c6139d9565b6000600860006101000a81548160ff0219169083151502179055507f5db9ee0a495bf2e6ff9c91a7834c1ba4fdd244a5e8aa4e537bd38aeae4b073aa6135a0612c03565b6040516135ad9190613f4b565b60405180910390a1565b60007f01ffc9a7000000000000000000000000000000000000000000000000000000007bffffffffffffffffffffffffffffffffffffffffffffffffffffffff1916827bffffffffffffffffffffffffffffffffffffffffffffffffffffffff1916149050919050565b60006003600083815260200190815260200160002060009054906101000a900473ffffffffffffffffffffffffffffffffffffffff169050919050565b80806136975750600073ffffffffffffffffffffffffffffffffffffffff168273ffffffffffffffffffffffffffffffffffffffff1614155b156137cb5760006136a784612b3e565b9050600073ffffffffffffffffffffffffffffffffffffffff168373ffffffffffffffffffffffffffffffffffffffff161415801561371257508273ffffffffffffffffffffffffffffffffffffffff168173ffffffffffffffffffffffffffffffffffffffff1614155b80156137255750613723818461292a565b155b1561376757826040517fa9fbf51f00000000000000000000000000000000000000000000000000000000815260040161375e9190613f4b565b60405180910390fd5b81156137c957838573ffffffffffffffffffffffffffffffffffffffff168273ffffffffffffffffffffffffffffffffffffffff167f8c5be1e5ebec7d5bd14f71427d1e84f3dd0314c0f7b2291e5b200ac8c7c3b92560405160405180910390a45b505b836005600085815260200190815260200160002060006101000a81548173ffffffffffffffffffffffffffffffffffffffff021916908373ffffffffffffffffffffffffffffffffffffffff16021790555050505050565b61382e838383613a19565b6138e257600073ffffffffffffffffffffffffffffffffffffffff168373ffffffffffffffffffffffffffffffffffffffff16036138a357806040517f7e27328900000000000000000000000000000000000000000000000000000000815260040161389a91906143be565b60405180910390fd5b81816040517f177e802f0000000000000000000000000000000000000000000000000000000081526004016138d99291906151e9565b60405180910390fd5b505050565b6138f18383613ada565b6139066138fc612c03565b6000858585613323565b505050565b60606000600161391a84613bd3565b01905060008167ffffffffffffffff8111156139395761393861409b565b5b6040519080825280601f01601f19166020018201604052801561396b5781602001600182028036833780820191505090505b509050600082602001820190505b6001156139ce578080600190039150507f3031323334353637383961626364656600000000000000000000000000000000600a86061a8153600a85816139c2576139c16148b2565b5b04945060008503613979575b819350505050919050565b6139e1611c79565b613a17576040517f8dfc202b00000000000000000000000000000000000000000000000000000000815260040160405180910390fd5b565b60008073ffffffffffffffffffffffffffffffffffffffff168373ffffffffffffffffffffffffffffffffffffffff1614158015613ad157508273ffffffffffffffffffffffffffffffffffffffff168473ffffffffffffffffffffffffffffffffffffffff161480613a925750613a91848461292a565b5b80613ad057508273ffffffffffffffffffffffffffffffffffffffff16613ab883612bc6565b73ffffffffffffffffffffffffffffffffffffffff16145b5b90509392505050565b600073ffffffffffffffffffffffffffffffffffffffff168273ffffffffffffffffffffffffffffffffffffffff1603613b4c5760006040517f64a0ae92000000000000000000000000000000000000000000000000000000008152600401613b439190613f4b565b60405180910390fd5b6000613b5a83836000612dce565b9050600073ffffffffffffffffffffffffffffffffffffffff168173ffffffffffffffffffffffffffffffffffffffff1614613bce5760006040517f73c6ac6e000000000000000000000000000000000000000000000000000000008152600401613bc59190613f4b565b60405180910390fd5b505050565b600080600090507a184f03e93ff9f4daa797ed6e38ed64bf6a1f0100000000000000008310613c31577a184f03e93ff9f4daa797ed6e38ed64bf6a1f0100000000000000008381613c2757613c266148b2565b5b0492506040810190505b6d04ee2d6d415b85acef81000000008310613c6e576d04ee2d6d415b85acef81000000008381613c6457613c636148b2565b5b0492506020810190505b662386f26fc100008310613c9d57662386f26fc100008381613c9357613c926148b2565b5b0492506010810190505b6305f5e1008310613cc6576305f5e1008381613cbc57613cbb6148b2565b5b0492506008810190505b6127108310613ceb576127108381613ce157613ce06148b2565b5b0492506004810190505b60648310613d0e5760648381613d0457613d036148b2565b5b0492506002810190505b600a8310613d1d576001810190505b80915050919050565b6000604051905090565b600080fd5b600080fd5b60007fffffffff0000000000000000000000000000000000000000000000000000000082169050919050565b613d6f81613d3a565b8114613d7a57600080fd5b50565b600081359050613d8c81613d66565b92915050565b600060208284031215613da857613da7613d30565b5b6000613db684828501613d7d565b91505092915050565b60008115159050919050565b613dd481613dbf565b82525050565b6000602082019050613def6000830184613dcb565b92915050565b600081519050919050565b600082825260208201905092915050565b60005b83811015613e2f578082015181840152602081019050613e14565b60008484015250505050565b6000601f19601f8301169050919050565b6000613e5782613df5565b613e618185613e00565b9350613e71818560208601613e11565b613e7a81613e3b565b840191505092915050565b60006020820190508181036000830152613e9f8184613e4c565b905092915050565b6000819050919050565b613eba81613ea7565b8114613ec557600080fd5b50565b600081359050613ed781613eb1565b92915050565b600060208284031215613ef357613ef2613d30565b5b6000613f0184828501613ec8565b91505092915050565b600073ffffffffffffffffffffffffffffffffffffffff82169050919050565b6000613f3582613f0a565b9050919050565b613f4581613f2a565b82525050565b6000602082019050613f606000830184613f3c565b92915050565b613f6f81613f2a565b8114613f7a57600080fd5b50565b600081359050613f8c81613f66565b92915050565b60008060408385031215613fa957613fa8613d30565b5b6000613fb785828601613f7d565b9250506020613fc885828601613ec8565b9150509250929050565b613fdb81613ea7565b82525050565b6000610120820190508181036000830152613ffc818c613e4c565b90508181036020830152614010818b613e4c565b90508181036040830152614024818a613e4c565b905081810360608301526140388189613e4c565b9050818103608083015261404c8188613e4c565b905061405b60a0830187613fd2565b61406860c0830186613fd2565b61407560e0830185613fd2565b614083610100830184613f3c565b9a9950505050505050505050565b600080fd5b600080fd5b7f4e487b7100000000000000000000000000000000000000000000000000000000600052604160045260246000fd5b6140d382613e3b565b810181811067ffffffffffffffff821117156140f2576140f161409b565b5b80604052505050565b6000614105613d26565b905061411182826140ca565b919050565b600067ffffffffffffffff8211156141315761413061409b565b5b61413a82613e3b565b9050602081019050919050565b82818337600083830152505050565b600061416961416484614116565b6140fb565b90508281526020810184848401111561418557614184614096565b5b614190848285614147565b509392505050565b600082601f8301126141ad576141ac614091565b5b81356141bd848260208601614156565b91505092915050565b600080600080600080600060e0888a0312156141e5576141e4613d30565b5b600088013567ffffffffffffffff81111561420357614202613d35565b5b61420f8a828b01614198565b975050602088013567ffffffffffffffff8111156142305761422f613d35565b5b61423c8a828b01614198565b965050604088013567ffffffffffffffff81111561425d5761425c613d35565b5b6142698a828b01614198565b955050606088013567ffffffffffffffff81111561428a57614289613d35565b5b6142968a828b01614198565b945050608088013567ffffffffffffffff8111156142b7576142b6613d35565b5b6142c38a828b01614198565b93505060a06142d48a828b01613ec8565b92505060c06142e58a828b01613ec8565b91505092959891949750929550565b60008060006060848603121561430d5761430c613d30565b5b600061431b86828701613f7d565b935050602061432c86828701613f7d565b925050604061433d86828701613ec8565b9150509250925092565b6000806040838503121561435e5761435d613d30565b5b600061436c85828601613ec8565b925050602061437d85828601613ec8565b9150509250929050565b600060608201905061439c6000830186613fd2565b6143a96020830185613fd2565b6143b66040830184613fd2565b949350505050565b60006020820190506143d36000830184613fd2565b92915050565b600080604083850312156143f0576143ef613d30565b5b60006143fe85828601613ec8565b925050602061440f85828601613f7d565b9150509250929050565b60006020828403121561442f5761442e613d30565b5b600061443d84828501613f7d565b91505092915050565b6000819050919050565b600061446b61446661446184613f0a565b614446565b613f0a565b9050919050565b600061447d82614450565b9050919050565b600061448f82614472565b9050919050565b61449f81614484565b82525050565b60006020820190506144ba6000830184614496565b92915050565b6144c981613dbf565b81146144d457600080fd5b50565b6000813590506144e6816144c0565b92915050565b6000806040838503121561450357614502613d30565b5b600061451185828601613f7d565b9250506020614522858286016144d7565b9150509250929050565b600067ffffffffffffffff8211156145475761454661409b565b5b61455082613e3b565b9050602081019050919050565b600061457061456b8461452c565b6140fb565b90508281526020810184848401111561458c5761458b614096565b5b614597848285614147565b509392505050565b600082601f8301126145b4576145b3614091565b5b81356145c484826020860161455d565b91505092915050565b600080600080608085870312156145e7576145e6613d30565b5b60006145f587828801613f7d565b945050602061460687828801613f7d565b935050604061461787828801613ec8565b925050606085013567ffffffffffffffff81111561463857614637613d35565b5b6146448782880161459f565b91505092959194509250565b6000806040838503121561466757614666613d30565b5b600061467585828601613f7d565b925050602061468685828601613f7d565b9150509250929050565b7f4e487b7100000000000000000000000000000000000000000000000000000000600052602260045260246000fd5b600060028204905060018216806146d757607f821691505b6020821081036146ea576146e9614690565b5b50919050565b7f5469636b6574206e6f74206c697374656420666f7220726573616c6500000000600082015250565b6000614726601c83613e00565b9150614731826146f0565b602082019050919050565b6000602082019050818103600083015261475581614719565b9050919050565b60006060820190506147716000830186613f3c565b61477e6020830185613f3c565b61478b6040830184613fd2565b949350505050565b6000815190506147a2816144c0565b92915050565b6000602082840312156147be576147bd613d30565b5b60006147cc84828501614793565b91505092915050565b7f5472616e7366657220746f2073656c6c6572206661696c656400000000000000600082015250565b600061480b601983613e00565b9150614816826147d5565b602082019050919050565b6000602082019050818103600083015261483a816147fe565b9050919050565b7f4e487b7100000000000000000000000000000000000000000000000000000000600052601160045260246000fd5b600061487b82613ea7565b915061488683613ea7565b925082820261489481613ea7565b915082820484148315176148ab576148aa614841565b5b5092915050565b7f4e487b7100000000000000000000000000000000000000000000000000000000600052601260045260246000fd5b60006148ec82613ea7565b91506148f783613ea7565b925082614907576149066148b2565b5b828204905092915050565b7f5472616e7366657220706c6174666f726d20666565206661696c656400000000600082015250565b6000614948601c83613e00565b915061495382614912565b602082019050919050565b600060208201905081810360008301526149778161493b565b9050919050565b7f5472616e7366657220726f79616c747920666565206661696c65640000000000600082015250565b60006149b4601b83613e00565b91506149bf8261497e565b602082019050919050565b600060208201905081810360008301526149e3816149a7565b9050919050565b60006060820190506149ff6000830186613fd2565b614a0c6020830185613fd2565b614a196040830184613f3c565b949350505050565b60008190508160005260206000209050919050565b60006020601f8301049050919050565b600082821b905092915050565b600060088302614a837fffffffffffffffffffffffffffffffffffffffffffffffffffffffffffffffff82614a46565b614a8d8683614a46565b95508019841693508086168417925050509392505050565b6000614ac0614abb614ab684613ea7565b614446565b613ea7565b9050919050565b6000819050919050565b614ada83614aa5565b614aee614ae682614ac7565b848454614a53565b825550505050565b600090565b614b03614af6565b614b0e818484614ad1565b505050565b5b81811015614b3257614b27600082614afb565b600181019050614b14565b5050565b601f821115614b7757614b4881614a21565b614b5184614a36565b81016020851015614b60578190505b614b74614b6c85614a36565b830182614b13565b50505b505050565b600082821c905092915050565b6000614b9a60001984600802614b7c565b1980831691505092915050565b6000614bb38383614b89565b9150826002028217905092915050565b614bcc82613df5565b67ffffffffffffffff811115614be557614be461409b565b5b614bef82546146bf565b614bfa828285614b36565b600060209050601f831160018114614c2d5760008415614c1b578287015190505b614c258582614ba7565b865550614c8d565b601f198416614c3b86614a21565b60005b82811015614c6357848901518255600182019150602085019450602081019050614c3e565b86831015614c805784890151614c7c601f891682614b89565b8355505b6001600288020188555050505b505050505050565b6000606082019050614caa6000830186613fd2565b8181036020830152614cbc8185613e4c565b9050614ccb6040830184613fd2565b949350505050565b6000614cde82613ea7565b91507fffffffffffffffffffffffffffffffffffffffffffffffffffffffffffffffff8203614d1057614d0f614841565b5b600182019050919050565b6000606082019050614d306000830186613f3c565b614d3d6020830185613fd2565b614d4a6040830184613f3c565b949350505050565b7f536f6c64206f7574000000000000000000000000000000000000000000000000600082015250565b6000614d88600883613e00565b9150614d9382614d52565b602082019050919050565b60006020820190508181036000830152614db781614d7b565b9050919050565b7f5472616e7366657220746f206f7267616e697a6572206661696c656400000000600082015250565b6000614df4601c83613e00565b9150614dff82614dbe565b602082019050919050565b60006020820190508181036000830152614e2381614de7565b9050919050565b7f546f6b656e20646f6573206e6f74206578697374732e00000000000000000000600082015250565b6000614e60601683613e00565b9150614e6b82614e2a565b602082019050919050565b60006020820190508181036000830152614e8f81614e53565b9050919050565b7f496e76616c69642070657263656e746167650000000000000000000000000000600082015250565b6000614ecc601283613e00565b9150614ed782614e96565b602082019050919050565b60006020820190508181036000830152614efb81614ebf565b9050919050565b7f4e6f74207469636b6574206f776e657200000000000000000000000000000000600082015250565b6000614f38601083613e00565b9150614f4382614f02565b602082019050919050565b60006020820190508181036000830152614f6781614f2b565b9050919050565b6000606082019050614f836000830186613fd2565b614f906020830185613f3c565b614f9d6040830184613f3c565b949350505050565b7f4e6f74206576656e74206f7267616e697a657200000000000000000000000000600082015250565b6000614fdb601383613e00565b9150614fe682614fa5565b602082019050919050565b6000602082019050818103600083015261500a81614fce565b9050919050565b600081905092915050565b600061502782613df5565b6150318185615011565b9350615041818560208601613e11565b80840191505092915050565b6000615059828561501c565b9150615065828461501c565b91508190509392505050565b7f7072696365206d7573742062652067726561746572207468616e203000000000600082015250565b60006150a7601c83613e00565b91506150b282615071565b602082019050919050565b600060208201905081810360008301526150d68161509a565b9050919050565b60006040820190506150f26000830185613fd2565b6150ff6020830184613fd2565b9392505050565b600081519050919050565b600082825260208201905092915050565b600061512d82615106565b6151378185615111565b9350615147818560208601613e11565b61515081613e3b565b840191505092915050565b60006080820190506151706000830187613f3c565b61517d6020830186613f3c565b61518a6040830185613fd2565b818103606083015261519c8184615122565b905095945050505050565b6000815190506151b681613d66565b92915050565b6000602082840312156151d2576151d1613d30565b5b60006151e0848285016151a7565b91505092915050565b60006040820190506151fe6000830185613f3c565b61520b6020830184613fd2565b939250505056fea2646970667358221220d1592de46ea6177a1d66b730357a32790f40eb74f37e9ac6b10b67158c93fbd964736f6c634300081c0033","opcodes":"PUSH1 0x80 PUSH1 0x40 MSTORE PUSH1 0x1 PUSH1 0x9 SSTORE PUSH1 0x1 PUSH1 0xA SSTORE PUSH1 0x5 PUSH1 0xB SSTORE PUSH1 0xA PUSH1 0xC SSTORE CALLVALUE DUP1 ISZERO PUSH2 0x24 JUMPI PUSH1 0x0 DUP1 REVERT JUMPDEST POP PUSH1 0x40 MLOAD PUSH2 0x59A8 CODESIZE SUB DUP1 PUSH2 0x59A8 DUP4 CODECOPY DUP2 DUP2 ADD PUSH1 0x40 MSTORE DUP2 ADD SWAP1 PUSH2 0x46 SWAP2 SWAP1 PUSH2 0x3B2 JUMP JUMPDEST PUSH1 0x40 MLOAD DUP1 PUSH1 0x40 ADD PUSH1 0x40 MSTORE DUP1 PUSH1 0xC DUP2 MSTORE PUSH1 0x20 ADD PUSH32 0x4576656E74205469636B65740000000000000000000000000000000000000000 DUP2 MSTORE POP PUSH1 0x40 MLOAD DUP1 PUSH1 0x40 ADD PUSH1 0x40 MSTORE DUP1 PUSH1 0x3 DUP2 MSTORE PUSH1 0x20 ADD PUSH32 0x5449580000000000000000000000000000000000000000000000000000000000 DUP2 MSTORE POP DUP5 PUSH1 0x0 PUSH20 0xFFFFFFFFFFFFFFFFFFFFFFFFFFFFFFFFFFFFFFFF AND DUP2 PUSH20 0xFFFFFFFFFFFFFFFFFFFFFFFFFFFFFFFFFFFFFFFF AND SUB PUSH2 0x125 JUMPI PUSH1 0x0 PUSH1 0x40 MLOAD PUSH32 0x1E4FBDF700000000000000000000000000000000000000000000000000000000 DUP2 MSTORE PUSH1 0x4 ADD PUSH2 0x11C SWAP2 SWAP1 PUSH2 0x414 JUMP JUMPDEST PUSH1 0x40 MLOAD DUP1 SWAP2 SUB SWAP1 REVERT JUMPDEST PUSH2 0x134 DUP2 PUSH2 0x24A PUSH1 0x20 SHL PUSH1 0x20 SHR JUMP JUMPDEST POP DUP2 PUSH1 0x1 SWAP1 DUP2 PUSH2 0x144 SWAP2 SWAP1 PUSH2 0x67F JUMP JUMPDEST POP DUP1 PUSH1 0x2 SWAP1 DUP2 PUSH2 0x154 SWAP2 SWAP1 PUSH2 0x67F JUMP JUMPDEST POP POP POP PUSH1 0x0 PUSH1 0x8 PUSH1 0x0 PUSH2 0x100 EXP DUP2 SLOAD DUP2 PUSH1 0xFF MUL NOT AND SWAP1 DUP4 ISZERO ISZERO MUL OR SWAP1 SSTORE POP PUSH2 0x18C PUSH8 0x250383B7E90C9393 PUSH1 0xC0 SHL PUSH2 0x30E PUSH1 0x20 SHL PUSH1 0x20 SHR JUMP JUMPDEST PUSH2 0x1A6 PUSH8 0xC13BC274CE8AEB6D PUSH1 0xC0 SHL PUSH2 0x30E PUSH1 0x20 SHL PUSH1 0x20 SHR JUMP JUMPDEST DUP2 PUSH1 0xD PUSH1 0x0 PUSH2 0x100 EXP DUP2 SLOAD DUP2 PUSH20 0xFFFFFFFFFFFFFFFFFFFFFFFFFFFFFFFFFFFFFFFF MUL NOT AND SWAP1 DUP4 PUSH20 0xFFFFFFFFFFFFFFFFFFFFFFFFFFFFFFFFFFFFFFFF AND MUL OR SWAP1 SSTORE POP PUSH2 0x201 PUSH8 0xD0A707D95FE8B2C9 PUSH1 0xC0 SHL PUSH2 0x30E PUSH1 0x20 SHL PUSH1 0x20 SHR JUMP JUMPDEST DUP1 PUSH1 0x8 PUSH1 0x1 PUSH2 0x100 EXP DUP2 SLOAD DUP2 PUSH20 0xFFFFFFFFFFFFFFFFFFFFFFFFFFFFFFFFFFFFFFFF MUL NOT AND SWAP1 DUP4 PUSH20 0xFFFFFFFFFFFFFFFFFFFFFFFFFFFFFFFFFFFFFFFF AND MUL OR SWAP1 SSTORE POP POP POP POP PUSH2 0x751 JUMP JUMPDEST PUSH1 0x0 DUP1 PUSH1 0x0 SWAP1 SLOAD SWAP1 PUSH2 0x100 EXP SWAP1 DIV PUSH20 0xFFFFFFFFFFFFFFFFFFFFFFFFFFFFFFFFFFFFFFFF AND SWAP1 POP DUP2 PUSH1 0x0 DUP1 PUSH2 0x100 EXP DUP2 SLOAD DUP2 PUSH20 0xFFFFFFFFFFFFFFFFFFFFFFFFFFFFFFFFFFFFFFFF MUL NOT AND SWAP1 DUP4 PUSH20 0xFFFFFFFFFFFFFFFFFFFFFFFFFFFFFFFFFFFFFFFF AND MUL OR SWAP1 SSTORE POP DUP2 PUSH20 0xFFFFFFFFFFFFFFFFFFFFFFFFFFFFFFFFFFFFFFFF AND DUP2 PUSH20 0xFFFFFFFFFFFFFFFFFFFFFFFFFFFFFFFFFFFFFFFF AND PUSH32 0x8BE0079C531659141344CD1FD0A4F28419497F9722A3DAAFE3B4186F6B6457E0 PUSH1 0x40 MLOAD PUSH1 0x40 MLOAD DUP1 SWAP2 SUB SWAP1 LOG3 POP POP JUMP JUMPDEST POP JUMP JUMPDEST PUSH1 0x0 DUP1 REVERT JUMPDEST PUSH1 0x0 PUSH20 0xFFFFFFFFFFFFFFFFFFFFFFFFFFFFFFFFFFFFFFFF DUP3 AND SWAP1 POP SWAP2 SWAP1 POP JUMP JUMPDEST PUSH1 0x0 PUSH2 0x341 DUP3 PUSH2 0x316 JUMP JUMPDEST SWAP1 POP SWAP2 SWAP1 POP JUMP JUMPDEST PUSH2 0x351 DUP2 PUSH2 0x336 JUMP JUMPDEST DUP2 EQ PUSH2 0x35C JUMPI PUSH1 0x0 DUP1 REVERT JUMPDEST POP JUMP JUMPDEST PUSH1 0x0 DUP2 MLOAD SWAP1 POP PUSH2 0x36E DUP2 PUSH2 0x348 JUMP JUMPDEST SWAP3 SWAP2 POP POP JUMP JUMPDEST PUSH1 0x0 PUSH2 0x37F DUP3 PUSH2 0x336 JUMP JUMPDEST SWAP1 POP SWAP2 SWAP1 POP JUMP JUMPDEST PUSH2 0x38F DUP2 PUSH2 0x374 JUMP JUMPDEST DUP2 EQ PUSH2 0x39A JUMPI PUSH1 0x0 DUP1 REVERT JUMPDEST POP JUMP JUMPDEST PUSH1 0x0 DUP2 MLOAD SWAP1 POP PUSH2 0x3AC DUP2 PUSH2 0x386 JUMP JUMPDEST SWAP3 SWAP2 POP POP JUMP JUMPDEST PUSH1 0x0 DUP1 PUSH1 0x0 PUSH1 0x60 DUP5 DUP7 SUB SLT ISZERO PUSH2 0x3CB JUMPI PUSH2 0x3CA PUSH2 0x311 JUMP JUMPDEST JUMPDEST PUSH1 0x0 PUSH2 0x3D9 DUP7 DUP3 DUP8 ADD PUSH2 0x35F JUMP JUMPDEST SWAP4 POP POP PUSH1 0x20 PUSH2 0x3EA DUP7 DUP3 DUP8 ADD PUSH2 0x35F JUMP JUMPDEST SWAP3 POP POP PUSH1 0x40 PUSH2 0x3FB DUP7 DUP3 DUP8 ADD PUSH2 0x39D JUMP JUMPDEST SWAP2 POP POP SWAP3 POP SWAP3 POP SWAP3 JUMP JUMPDEST PUSH2 0x40E DUP2 PUSH2 0x336 JUMP JUMPDEST DUP3 MSTORE POP POP JUMP JUMPDEST PUSH1 0x0 PUSH1 0x20 DUP3 ADD SWAP1 POP PUSH2 0x429 PUSH1 0x0 DUP4 ADD DUP5 PUSH2 0x405 JUMP JUMPDEST SWAP3 SWAP2 POP POP JUMP JUMPDEST PUSH1 0x0 DUP2 MLOAD SWAP1 POP SWAP2 SWAP1 POP JUMP JUMPDEST PUSH32 0x4E487B7100000000000000000000000000000000000000000000000000000000 PUSH1 0x0 MSTORE PUSH1 0x41 PUSH1 0x4 MSTORE PUSH1 0x24 PUSH1 0x0 REVERT JUMPDEST PUSH32 0x4E487B7100000000000000000000000000000000000000000000000000000000 PUSH1 0x0 MSTORE PUSH1 0x22 PUSH1 0x4 MSTORE PUSH1 0x24 PUSH1 0x0 REVERT JUMPDEST PUSH1 0x0 PUSH1 0x2 DUP3 DIV SWAP1 POP PUSH1 0x1 DUP3 AND DUP1 PUSH2 0x4B0 JUMPI PUSH1 0x7F DUP3 AND SWAP2 POP JUMPDEST PUSH1 0x20 DUP3 LT DUP2 SUB PUSH2 0x4C3 JUMPI PUSH2 0x4C2 PUSH2 0x469 JUMP JUMPDEST JUMPDEST POP SWAP2 SWAP1 POP JUMP JUMPDEST PUSH1 0x0 DUP2 SWAP1 POP DUP2 PUSH1 0x0 MSTORE PUSH1 0x20 PUSH1 0x0 KECCAK256 SWAP1 POP SWAP2 SWAP1 POP JUMP JUMPDEST PUSH1 0x0 PUSH1 0x20 PUSH1 0x1F DUP4 ADD DIV SWAP1 POP SWAP2 SWAP1 POP JUMP JUMPDEST PUSH1 0x0 DUP3 DUP3 SHL SWAP1 POP SWAP3 SWAP2 POP POP JUMP JUMPDEST PUSH1 0x0 PUSH1 0x8 DUP4 MUL PUSH2 0x52B PUSH32 0xFFFFFFFFFFFFFFFFFFFFFFFFFFFFFFFFFFFFFFFFFFFFFFFFFFFFFFFFFFFFFFFF DUP3 PUSH2 0x4EE JUMP JUMPDEST PUSH2 0x535 DUP7 DUP4 PUSH2 0x4EE JUMP JUMPDEST SWAP6 POP DUP1 NOT DUP5 AND SWAP4 POP DUP1 DUP7 AND DUP5 OR SWAP3 POP POP POP SWAP4 SWAP3 POP POP POP JUMP JUMPDEST PUSH1 0x0 DUP2 SWAP1 POP SWAP2 SWAP1 POP JUMP JUMPDEST PUSH1 0x0 DUP2 SWAP1 POP SWAP2 SWAP1 POP JUMP JUMPDEST PUSH1 0x0 PUSH2 0x57C PUSH2 0x577 PUSH2 0x572 DUP5 PUSH2 0x54D JUMP JUMPDEST PUSH2 0x557 JUMP JUMPDEST PUSH2 0x54D JUMP JUMPDEST SWAP1 POP SWAP2 SWAP1 POP JUMP JUMPDEST PUSH1 0x0 DUP2 SWAP1 POP SWAP2 SWAP1 POP JUMP JUMPDEST PUSH2 0x596 DUP4 PUSH2 0x561 JUMP JUMPDEST PUSH2 0x5AA PUSH2 0x5A2 DUP3 PUSH2 0x583 JUMP JUMPDEST DUP5 DUP5 SLOAD PUSH2 0x4FB JUMP JUMPDEST DUP3 SSTORE POP POP POP POP JUMP JUMPDEST PUSH1 0x0 SWAP1 JUMP JUMPDEST PUSH2 0x5BF PUSH2 0x5B2 JUMP JUMPDEST PUSH2 0x5CA DUP2 DUP5 DUP5 PUSH2 0x58D JUMP JUMPDEST POP POP POP JUMP JUMPDEST JUMPDEST DUP2 DUP2 LT ISZERO PUSH2 0x5EE JUMPI PUSH2 0x5E3 PUSH1 0x0 DUP3 PUSH2 0x5B7 JUMP JUMPDEST PUSH1 0x1 DUP2 ADD SWAP1 POP PUSH2 0x5D0 JUMP JUMPDEST POP POP JUMP JUMPDEST PUSH1 0x1F DUP3 GT ISZERO PUSH2 0x633 JUMPI PUSH2 0x604 DUP2 PUSH2 0x4C9 JUMP JUMPDEST PUSH2 0x60D DUP5 PUSH2 0x4DE JUMP JUMPDEST DUP2 ADD PUSH1 0x20 DUP6 LT ISZERO PUSH2 0x61C JUMPI DUP2 SWAP1 POP JUMPDEST PUSH2 0x630 PUSH2 0x628 DUP6 PUSH2 0x4DE JUMP JUMPDEST DUP4 ADD DUP3 PUSH2 0x5CF JUMP JUMPDEST POP POP JUMPDEST POP POP POP JUMP JUMPDEST PUSH1 0x0 DUP3 DUP3 SHR SWAP1 POP SWAP3 SWAP2 POP POP JUMP JUMPDEST PUSH1 0x0 PUSH2 0x656 PUSH1 0x0 NOT DUP5 PUSH1 0x8 MUL PUSH2 0x638 JUMP JUMPDEST NOT DUP1 DUP4 AND SWAP2 POP POP SWAP3 SWAP2 POP POP JUMP JUMPDEST PUSH1 0x0 PUSH2 0x66F DUP4 DUP4 PUSH2 0x645 JUMP JUMPDEST SWAP2 POP DUP3 PUSH1 0x2 MUL DUP3 OR SWAP1 POP SWAP3 SWAP2 POP POP JUMP JUMPDEST PUSH2 0x688 DUP3 PUSH2 0x42F JUMP JUMPDEST PUSH8 0xFFFFFFFFFFFFFFFF DUP2 GT ISZERO PUSH2 0x6A1 JUMPI PUSH2 0x6A0 PUSH2 0x43A JUMP JUMPDEST JUMPDEST PUSH2 0x6AB DUP3 SLOAD PUSH2 0x498 JUMP JUMPDEST PUSH2 0x6B6 DUP3 DUP3 DUP6 PUSH2 0x5F2 JUMP JUMPDEST PUSH1 0x0 PUSH1 0x20 SWAP1 POP PUSH1 0x1F DUP4 GT PUSH1 0x1 DUP2 EQ PUSH2 0x6E9 JUMPI PUSH1 0x0 DUP5 ISZERO PUSH2 0x6D7 JUMPI DUP3 DUP8 ADD MLOAD SWAP1 POP JUMPDEST PUSH2 0x6E1 DUP6 DUP3 PUSH2 0x663 JUMP JUMPDEST DUP7 SSTORE POP PUSH2 0x749 JUMP JUMPDEST PUSH1 0x1F NOT DUP5 AND PUSH2 0x6F7 DUP7 PUSH2 0x4C9 JUMP JUMPDEST PUSH1 0x0 JUMPDEST DUP3 DUP2 LT ISZERO PUSH2 0x71F JUMPI DUP5 DUP10 ADD MLOAD DUP3 SSTORE PUSH1 0x1 DUP3 ADD SWAP2 POP PUSH1 0x20 DUP6 ADD SWAP5 POP PUSH1 0x20 DUP2 ADD SWAP1 POP PUSH2 0x6FA JUMP JUMPDEST DUP7 DUP4 LT ISZERO PUSH2 0x73C JUMPI DUP5 DUP10 ADD MLOAD PUSH2 0x738 PUSH1 0x1F DUP10 AND DUP3 PUSH2 0x645 JUMP JUMPDEST DUP4 SSTORE POP JUMPDEST PUSH1 0x1 PUSH1 0x2 DUP9 MUL ADD DUP9 SSTORE POP POP POP JUMPDEST POP POP POP POP POP POP JUMP JUMPDEST PUSH2 0x5248 DUP1 PUSH2 0x760 PUSH1 0x0 CODECOPY PUSH1 0x0 RETURN INVALID PUSH1 0x80 PUSH1 0x40 MSTORE CALLVALUE DUP1 ISZERO PUSH2 0x10 JUMPI PUSH1 0x0 DUP1 REVERT JUMPDEST POP PUSH1 0x4 CALLDATASIZE LT PUSH2 0x23D JUMPI PUSH1 0x0 CALLDATALOAD PUSH1 0xE0 SHR DUP1 PUSH4 0x704B6C02 GT PUSH2 0x13B JUMPI DUP1 PUSH4 0xA22CB465 GT PUSH2 0xB8 JUMPI DUP1 PUSH4 0xD524D32D GT PUSH2 0x7C JUMPI DUP1 PUSH4 0xD524D32D EQ PUSH2 0x694 JUMPI DUP1 PUSH4 0xE2082E79 EQ PUSH2 0x6B0 JUMPI DUP1 PUSH4 0xE985E9C5 EQ PUSH2 0x6BA JUMPI DUP1 PUSH4 0xF0A38CB0 EQ PUSH2 0x6EA JUMPI DUP1 PUSH4 0xF2FDE38B EQ PUSH2 0x71A JUMPI PUSH2 0x23D JUMP JUMPDEST DUP1 PUSH4 0xA22CB465 EQ PUSH2 0x5F4 JUMPI DUP1 PUSH4 0xA8602FEA EQ PUSH2 0x610 JUMPI DUP1 PUSH4 0xAA4C4CC1 EQ PUSH2 0x62C JUMPI DUP1 PUSH4 0xB88D4FDE EQ PUSH2 0x648 JUMPI DUP1 PUSH4 0xC87B56DD EQ PUSH2 0x664 JUMPI PUSH2 0x23D JUMP JUMPDEST DUP1 PUSH4 0x8C639A85 GT PUSH2 0xFF JUMPI DUP1 PUSH4 0x8C639A85 EQ PUSH2 0x55E JUMPI DUP1 PUSH4 0x8DA5CB5B EQ PUSH2 0x57C JUMPI DUP1 PUSH4 0x95D89B41 EQ PUSH2 0x59A JUMPI DUP1 PUSH4 0x9F67756D EQ PUSH2 0x5B8 JUMPI DUP1 PUSH4 0x9F9D903A EQ PUSH2 0x5D6 JUMPI PUSH2 0x23D JUMP JUMPDEST DUP1 PUSH4 0x704B6C02 EQ PUSH2 0x4CE JUMPI DUP1 PUSH4 0x70A08231 EQ PUSH2 0x4EA JUMPI DUP1 PUSH4 0x715018A6 EQ PUSH2 0x51A JUMPI DUP1 PUSH4 0x8333903E EQ PUSH2 0x524 JUMPI DUP1 PUSH4 0x85FC4550 EQ PUSH2 0x540 JUMPI PUSH2 0x23D JUMP JUMPDEST DUP1 PUSH4 0x2D21A464 GT PUSH2 0x1C9 JUMPI DUP1 PUSH4 0x5C975ABB GT PUSH2 0x18D JUMPI DUP1 PUSH4 0x5C975ABB EQ PUSH2 0x42A JUMPI DUP1 PUSH4 0x6031A52F EQ PUSH2 0x448 JUMPI DUP1 PUSH4 0x61BA27DA EQ PUSH2 0x466 JUMPI DUP1 PUSH4 0x6352211E EQ PUSH2 0x482 JUMPI DUP1 PUSH4 0x679EBF1A EQ PUSH2 0x4B2 JUMPI PUSH2 0x23D JUMP JUMPDEST DUP1 PUSH4 0x2D21A464 EQ PUSH2 0x384 JUMPI DUP1 PUSH4 0x42842E0E EQ PUSH2 0x38E JUMPI DUP1 PUSH4 0x4626402B EQ PUSH2 0x3AA JUMPI DUP1 PUSH4 0x50B44712 EQ PUSH2 0x3C8 JUMPI DUP1 PUSH4 0x543CB81F EQ PUSH2 0x3FA JUMPI PUSH2 0x23D JUMP JUMPDEST DUP1 PUSH4 0xB791430 GT PUSH2 0x210 JUMPI DUP1 PUSH4 0xB791430 EQ PUSH2 0x2DC JUMPI DUP1 PUSH4 0x1D9C5D5C EQ PUSH2 0x314 JUMPI DUP1 PUSH4 0x204B7D90 EQ PUSH2 0x330 JUMPI DUP1 PUSH4 0x23B872DD EQ PUSH2 0x34C JUMPI DUP1 PUSH4 0x298EC208 EQ PUSH2 0x368 JUMPI PUSH2 0x23D JUMP JUMPDEST DUP1 PUSH4 0x1FFC9A7 EQ PUSH2 0x242 JUMPI DUP1 PUSH4 0x6FDDE03 EQ PUSH2 0x272 JUMPI DUP1 PUSH4 0x81812FC EQ PUSH2 0x290 JUMPI DUP1 PUSH4 0x95EA7B3 EQ PUSH2 0x2C0 JUMPI JUMPDEST PUSH1 0x0 DUP1 REVERT JUMPDEST PUSH2 0x25C PUSH1 0x4 DUP1 CALLDATASIZE SUB DUP2 ADD SWAP1 PUSH2 0x257 SWAP2 SWAP1 PUSH2 0x3D92 JUMP JUMPDEST PUSH2 0x736 JUMP JUMPDEST PUSH1 0x40 MLOAD PUSH2 0x269 SWAP2 SWAP1 PUSH2 0x3DDA JUMP JUMPDEST PUSH1 0x40 MLOAD DUP1 SWAP2 SUB SWAP1 RETURN JUMPDEST PUSH2 0x27A PUSH2 0x797 JUMP JUMPDEST PUSH1 0x40 MLOAD PUSH2 0x287 SWAP2 SWAP1 PUSH2 0x3E85 JUMP JUMPDEST PUSH1 0x40 MLOAD DUP1 SWAP2 SUB SWAP1 RETURN JUMPDEST PUSH2 0x2AA PUSH1 0x4 DUP1 CALLDATASIZE SUB DUP2 ADD SWAP1 PUSH2 0x2A5 SWAP2 SWAP1 PUSH2 0x3EDD JUMP JUMPDEST PUSH2 0x829 JUMP JUMPDEST PUSH1 0x40 MLOAD PUSH2 0x2B7 SWAP2 SWAP1 PUSH2 0x3F4B JUMP JUMPDEST PUSH1 0x40 MLOAD DUP1 SWAP2 SUB SWAP1 RETURN JUMPDEST PUSH2 0x2DA PUSH1 0x4 DUP1 CALLDATASIZE SUB DUP2 ADD SWAP1 PUSH2 0x2D5 SWAP2 SWAP1 PUSH2 0x3F92 JUMP JUMPDEST PUSH2 0x845 JUMP JUMPDEST STOP JUMPDEST PUSH2 0x2F6 PUSH1 0x4 DUP1 CALLDATASIZE SUB DUP2 ADD SWAP1 PUSH2 0x2F1 SWAP2 SWAP1 PUSH2 0x3EDD JUMP JUMPDEST PUSH2 0x85B JUMP JUMPDEST PUSH1 0x40 MLOAD PUSH2 0x30B SWAP10 SWAP9 SWAP8 SWAP7 SWAP6 SWAP5 SWAP4 SWAP3 SWAP2 SWAP1 PUSH2 0x3FE1 JUMP JUMPDEST PUSH1 0x40 MLOAD DUP1 SWAP2 SUB SWAP1 RETURN JUMPDEST PUSH2 0x32E PUSH1 0x4 DUP1 CALLDATASIZE SUB DUP2 ADD SWAP1 PUSH2 0x329 SWAP2 SWAP1 PUSH2 0x3EDD JUMP JUMPDEST PUSH2 0xB71 JUMP JUMPDEST STOP JUMPDEST PUSH2 0x34A PUSH1 0x4 DUP1 CALLDATASIZE SUB DUP2 ADD SWAP1 PUSH2 0x345 SWAP2 SWAP1 PUSH2 0x41C6 JUMP JUMPDEST PUSH2 0x11C4 JUMP JUMPDEST STOP JUMPDEST PUSH2 0x366 PUSH1 0x4 DUP1 CALLDATASIZE SUB DUP2 ADD SWAP1 PUSH2 0x361 SWAP2 SWAP1 PUSH2 0x42F4 JUMP JUMPDEST PUSH2 0x13F9 JUMP JUMPDEST STOP JUMPDEST PUSH2 0x382 PUSH1 0x4 DUP1 CALLDATASIZE SUB DUP2 ADD SWAP1 PUSH2 0x37D SWAP2 SWAP1 PUSH2 0x4347 JUMP JUMPDEST PUSH2 0x14FB JUMP JUMPDEST STOP JUMPDEST PUSH2 0x38C PUSH2 0x1A50 JUMP JUMPDEST STOP JUMPDEST PUSH2 0x3A8 PUSH1 0x4 DUP1 CALLDATASIZE SUB DUP2 ADD SWAP1 PUSH2 0x3A3 SWAP2 SWAP1 PUSH2 0x42F4 JUMP JUMPDEST PUSH2 0x1AC6 JUMP JUMPDEST STOP JUMPDEST PUSH2 0x3B2 PUSH2 0x1AE6 JUMP JUMPDEST PUSH1 0x40 MLOAD PUSH2 0x3BF SWAP2 SWAP1 PUSH2 0x3F4B JUMP JUMPDEST PUSH1 0x40 MLOAD DUP1 SWAP2 SUB SWAP1 RETURN JUMPDEST PUSH2 0x3E2 PUSH1 0x4 DUP1 CALLDATASIZE SUB DUP2 ADD SWAP1 PUSH2 0x3DD SWAP2 SWAP1 PUSH2 0x3EDD JUMP JUMPDEST PUSH2 0x1B0C JUMP JUMPDEST PUSH1 0x40 MLOAD PUSH2 0x3F1 SWAP4 SWAP3 SWAP2 SWAP1 PUSH2 0x4387 JUMP JUMPDEST PUSH1 0x40 MLOAD DUP1 SWAP2 SUB SWAP1 RETURN JUMPDEST PUSH2 0x414 PUSH1 0x4 DUP1 CALLDATASIZE SUB DUP2 ADD SWAP1 PUSH2 0x40F SWAP2 SWAP1 PUSH2 0x3EDD JUMP JUMPDEST PUSH2 0x1B36 JUMP JUMPDEST PUSH1 0x40 MLOAD PUSH2 0x421 SWAP2 SWAP1 PUSH2 0x3DDA JUMP JUMPDEST PUSH1 0x40 MLOAD DUP1 SWAP2 SUB SWAP1 RETURN JUMPDEST PUSH2 0x432 PUSH2 0x1C79 JUMP JUMPDEST PUSH1 0x40 MLOAD PUSH2 0x43F SWAP2 SWAP1 PUSH2 0x3DDA JUMP JUMPDEST PUSH1 0x40 MLOAD DUP1 SWAP2 SUB SWAP1 RETURN JUMPDEST PUSH2 0x450 PUSH2 0x1C90 JUMP JUMPDEST PUSH1 0x40 MLOAD PUSH2 0x45D SWAP2 SWAP1 PUSH2 0x43BE JUMP JUMPDEST PUSH1 0x40 MLOAD DUP1 SWAP2 SUB SWAP1 RETURN JUMPDEST PUSH2 0x480 PUSH1 0x4 DUP1 CALLDATASIZE SUB DUP2 ADD SWAP1 PUSH2 0x47B SWAP2 SWAP1 PUSH2 0x3EDD JUMP JUMPDEST PUSH2 0x1C96 JUMP JUMPDEST STOP JUMPDEST PUSH2 0x49C PUSH1 0x4 DUP1 CALLDATASIZE SUB DUP2 ADD SWAP1 PUSH2 0x497 SWAP2 SWAP1 PUSH2 0x3EDD JUMP JUMPDEST PUSH2 0x1D8C JUMP JUMPDEST PUSH1 0x40 MLOAD PUSH2 0x4A9 SWAP2 SWAP1 PUSH2 0x3F4B JUMP JUMPDEST PUSH1 0x40 MLOAD DUP1 SWAP2 SUB SWAP1 RETURN JUMPDEST PUSH2 0x4CC PUSH1 0x4 DUP1 CALLDATASIZE SUB DUP2 ADD SWAP1 PUSH2 0x4C7 SWAP2 SWAP1 PUSH2 0x43D9 JUMP JUMPDEST PUSH2 0x1D9E JUMP JUMPDEST STOP JUMPDEST PUSH2 0x4E8 PUSH1 0x4 DUP1 CALLDATASIZE SUB DUP2 ADD SWAP1 PUSH2 0x4E3 SWAP2 SWAP1 PUSH2 0x4419 JUMP JUMPDEST PUSH2 0x1F94 JUMP JUMPDEST STOP JUMPDEST PUSH2 0x504 PUSH1 0x4 DUP1 CALLDATASIZE SUB DUP2 ADD SWAP1 PUSH2 0x4FF SWAP2 SWAP1 PUSH2 0x4419 JUMP JUMPDEST PUSH2 0x200C JUMP JUMPDEST PUSH1 0x40 MLOAD PUSH2 0x511 SWAP2 SWAP1 PUSH2 0x43BE JUMP JUMPDEST PUSH1 0x40 MLOAD DUP1 SWAP2 SUB SWAP1 RETURN JUMPDEST PUSH2 0x522 PUSH2 0x20C6 JUMP JUMPDEST STOP JUMPDEST PUSH2 0x53E PUSH1 0x4 DUP1 CALLDATASIZE SUB DUP2 ADD SWAP1 PUSH2 0x539 SWAP2 SWAP1 PUSH2 0x3EDD JUMP JUMPDEST PUSH2 0x20DA JUMP JUMPDEST STOP JUMPDEST PUSH2 0x548 PUSH2 0x21D0 JUMP JUMPDEST PUSH1 0x40 MLOAD PUSH2 0x555 SWAP2 SWAP1 PUSH2 0x44A5 JUMP JUMPDEST PUSH1 0x40 MLOAD DUP1 SWAP2 SUB SWAP1 RETURN JUMPDEST PUSH2 0x566 PUSH2 0x21F6 JUMP JUMPDEST PUSH1 0x40 MLOAD PUSH2 0x573 SWAP2 SWAP1 PUSH2 0x43BE JUMP JUMPDEST PUSH1 0x40 MLOAD DUP1 SWAP2 SUB SWAP1 RETURN JUMPDEST PUSH2 0x584 PUSH2 0x21FC JUMP JUMPDEST PUSH1 0x40 MLOAD PUSH2 0x591 SWAP2 SWAP1 PUSH2 0x3F4B JUMP JUMPDEST PUSH1 0x40 MLOAD DUP1 SWAP2 SUB SWAP1 RETURN JUMPDEST PUSH2 0x5A2 PUSH2 0x2225 JUMP JUMPDEST PUSH1 0x40 MLOAD PUSH2 0x5AF SWAP2 SWAP1 PUSH2 0x3E85 JUMP JUMPDEST PUSH1 0x40 MLOAD DUP1 SWAP2 SUB SWAP1 RETURN JUMPDEST PUSH2 0x5C0 PUSH2 0x22B7 JUMP JUMPDEST PUSH1 0x40 MLOAD PUSH2 0x5CD SWAP2 SWAP1 PUSH2 0x43BE JUMP JUMPDEST PUSH1 0x40 MLOAD DUP1 SWAP2 SUB SWAP1 RETURN JUMPDEST PUSH2 0x5DE PUSH2 0x22BD JUMP JUMPDEST PUSH1 0x40 MLOAD PUSH2 0x5EB SWAP2 SWAP1 PUSH2 0x43BE JUMP JUMPDEST PUSH1 0x40 MLOAD DUP1 SWAP2 SUB SWAP1 RETURN JUMPDEST PUSH2 0x60E PUSH1 0x4 DUP1 CALLDATASIZE SUB DUP2 ADD SWAP1 PUSH2 0x609 SWAP2 SWAP1 PUSH2 0x44EC JUMP JUMPDEST PUSH2 0x22C3 JUMP JUMPDEST STOP JUMPDEST PUSH2 0x62A PUSH1 0x4 DUP1 CALLDATASIZE SUB DUP2 ADD SWAP1 PUSH2 0x625 SWAP2 SWAP1 PUSH2 0x4419 JUMP JUMPDEST PUSH2 0x22D9 JUMP JUMPDEST STOP JUMPDEST PUSH2 0x646 PUSH1 0x4 DUP1 CALLDATASIZE SUB DUP2 ADD SWAP1 PUSH2 0x641 SWAP2 SWAP1 PUSH2 0x4347 JUMP JUMPDEST PUSH2 0x2375 JUMP JUMPDEST STOP JUMPDEST PUSH2 0x662 PUSH1 0x4 DUP1 CALLDATASIZE SUB DUP2 ADD SWAP1 PUSH2 0x65D SWAP2 SWAP1 PUSH2 0x45CD JUMP JUMPDEST PUSH2 0x24FC JUMP JUMPDEST STOP JUMPDEST PUSH2 0x67E PUSH1 0x4 DUP1 CALLDATASIZE SUB DUP2 ADD SWAP1 PUSH2 0x679 SWAP2 SWAP1 PUSH2 0x3EDD JUMP JUMPDEST PUSH2 0x2521 JUMP JUMPDEST PUSH1 0x40 MLOAD PUSH2 0x68B SWAP2 SWAP1 PUSH2 0x3E85 JUMP JUMPDEST PUSH1 0x40 MLOAD DUP1 SWAP2 SUB SWAP1 RETURN JUMPDEST PUSH2 0x6AE PUSH1 0x4 DUP1 CALLDATASIZE SUB DUP2 ADD SWAP1 PUSH2 0x6A9 SWAP2 SWAP1 PUSH2 0x4347 JUMP JUMPDEST PUSH2 0x2634 JUMP JUMPDEST STOP JUMPDEST PUSH2 0x6B8 PUSH2 0x28B4 JUMP JUMPDEST STOP JUMPDEST PUSH2 0x6D4 PUSH1 0x4 DUP1 CALLDATASIZE SUB DUP2 ADD SWAP1 PUSH2 0x6CF SWAP2 SWAP1 PUSH2 0x4650 JUMP JUMPDEST PUSH2 0x292A JUMP JUMPDEST PUSH1 0x40 MLOAD PUSH2 0x6E1 SWAP2 SWAP1 PUSH2 0x3DDA JUMP JUMPDEST PUSH1 0x40 MLOAD DUP1 SWAP2 SUB SWAP1 RETURN JUMPDEST PUSH2 0x704 PUSH1 0x4 DUP1 CALLDATASIZE SUB DUP2 ADD SWAP1 PUSH2 0x6FF SWAP2 SWAP1 PUSH2 0x3EDD JUMP JUMPDEST PUSH2 0x29BE JUMP JUMPDEST PUSH1 0x40 MLOAD PUSH2 0x711 SWAP2 SWAP1 PUSH2 0x43BE JUMP JUMPDEST PUSH1 0x40 MLOAD DUP1 SWAP2 SUB SWAP1 RETURN JUMPDEST PUSH2 0x734 PUSH1 0x4 DUP1 CALLDATASIZE SUB DUP2 ADD SWAP1 PUSH2 0x72F SWAP2 SWAP1 PUSH2 0x4419 JUMP JUMPDEST PUSH2 0x29D6 JUMP JUMPDEST STOP JUMPDEST PUSH1 0x0 PUSH4 0x49064906 PUSH1 0xE0 SHL PUSH28 0xFFFFFFFFFFFFFFFFFFFFFFFFFFFFFFFFFFFFFFFFFFFFFFFFFFFFFFFF NOT AND DUP3 PUSH28 0xFFFFFFFFFFFFFFFFFFFFFFFFFFFFFFFFFFFFFFFFFFFFFFFFFFFFFFFF NOT AND EQ DUP1 PUSH2 0x790 JUMPI POP PUSH2 0x78F DUP3 PUSH2 0x2A5C JUMP JUMPDEST JUMPDEST SWAP1 POP SWAP2 SWAP1 POP JUMP JUMPDEST PUSH1 0x60 PUSH1 0x1 DUP1 SLOAD PUSH2 0x7A6 SWAP1 PUSH2 0x46BF JUMP JUMPDEST DUP1 PUSH1 0x1F ADD PUSH1 0x20 DUP1 SWAP2 DIV MUL PUSH1 0x20 ADD PUSH1 0x40 MLOAD SWAP1 DUP2 ADD PUSH1 0x40 MSTORE DUP1 SWAP3 SWAP2 SWAP1 DUP2 DUP2 MSTORE PUSH1 0x20 ADD DUP3 DUP1 SLOAD PUSH2 0x7D2 SWAP1 PUSH2 0x46BF JUMP JUMPDEST DUP1 ISZERO PUSH2 0x81F JUMPI DUP1 PUSH1 0x1F LT PUSH2 0x7F4 JUMPI PUSH2 0x100 DUP1 DUP4 SLOAD DIV MUL DUP4 MSTORE SWAP2 PUSH1 0x20 ADD SWAP2 PUSH2 0x81F JUMP JUMPDEST DUP3 ADD SWAP2 SWAP1 PUSH1 0x0 MSTORE PUSH1 0x20 PUSH1 0x0 KECCAK256 SWAP1 JUMPDEST DUP2 SLOAD DUP2 MSTORE SWAP1 PUSH1 0x1 ADD SWAP1 PUSH1 0x20 ADD DUP1 DUP4 GT PUSH2 0x802 JUMPI DUP3 SWAP1 SUB PUSH1 0x1F AND DUP3 ADD SWAP2 JUMPDEST POP POP POP POP POP SWAP1 POP SWAP1 JUMP JUMPDEST PUSH1 0x0 PUSH2 0x834 DUP3 PUSH2 0x2B3E JUMP JUMPDEST POP PUSH2 0x83E DUP3 PUSH2 0x2BC6 JUMP JUMPDEST SWAP1 POP SWAP2 SWAP1 POP JUMP JUMPDEST PUSH2 0x857 DUP3 DUP3 PUSH2 0x852 PUSH2 0x2C03 JUMP JUMPDEST PUSH2 0x2C0B JUMP JUMPDEST POP POP JUMP JUMPDEST PUSH1 0xE PUSH1 0x20 MSTORE DUP1 PUSH1 0x0 MSTORE PUSH1 0x40 PUSH1 0x0 KECCAK256 PUSH1 0x0 SWAP2 POP SWAP1 POP DUP1 PUSH1 0x0 ADD DUP1 SLOAD PUSH2 0x87E SWAP1 PUSH2 0x46BF JUMP JUMPDEST DUP1 PUSH1 0x1F ADD PUSH1 0x20 DUP1 SWAP2 DIV MUL PUSH1 0x20 ADD PUSH1 0x40 MLOAD SWAP1 DUP2 ADD PUSH1 0x40 MSTORE DUP1 SWAP3 SWAP2 SWAP1 DUP2 DUP2 MSTORE PUSH1 0x20 ADD DUP3 DUP1 SLOAD PUSH2 0x8AA SWAP1 PUSH2 0x46BF JUMP JUMPDEST DUP1 ISZERO PUSH2 0x8F7 JUMPI DUP1 PUSH1 0x1F LT PUSH2 0x8CC JUMPI PUSH2 0x100 DUP1 DUP4 SLOAD DIV MUL DUP4 MSTORE SWAP2 PUSH1 0x20 ADD SWAP2 PUSH2 0x8F7 JUMP JUMPDEST DUP3 ADD SWAP2 SWAP1 PUSH1 0x0 MSTORE PUSH1 0x20 PUSH1 0x0 KECCAK256 SWAP1 JUMPDEST DUP2 SLOAD DUP2 MSTORE SWAP1 PUSH1 0x1 ADD SWAP1 PUSH1 0x20 ADD DUP1 DUP4 GT PUSH2 0x8DA JUMPI DUP3 SWAP1 SUB PUSH1 0x1F AND DUP3 ADD SWAP2 JUMPDEST POP POP POP POP POP SWAP1 DUP1 PUSH1 0x1 ADD DUP1 SLOAD PUSH2 0x90C SWAP1 PUSH2 0x46BF JUMP JUMPDEST DUP1 PUSH1 0x1F ADD PUSH1 0x20 DUP1 SWAP2 DIV MUL PUSH1 0x20 ADD PUSH1 0x40 MLOAD SWAP1 DUP2 ADD PUSH1 0x40 MSTORE DUP1 SWAP3 SWAP2 SWAP1 DUP2 DUP2 MSTORE PUSH1 0x20 ADD DUP3 DUP1 SLOAD PUSH2 0x938 SWAP1 PUSH2 0x46BF JUMP JUMPDEST DUP1 ISZERO PUSH2 0x985 JUMPI DUP1 PUSH1 0x1F LT PUSH2 0x95A JUMPI PUSH2 0x100 DUP1 DUP4 SLOAD DIV MUL DUP4 MSTORE SWAP2 PUSH1 0x20 ADD SWAP2 PUSH2 0x985 JUMP JUMPDEST DUP3 ADD SWAP2 SWAP1 PUSH1 0x0 MSTORE PUSH1 0x20 PUSH1 0x0 KECCAK256 SWAP1 JUMPDEST DUP2 SLOAD DUP2 MSTORE SWAP1 PUSH1 0x1 ADD SWAP1 PUSH1 0x20 ADD DUP1 DUP4 GT PUSH2 0x968 JUMPI DUP3 SWAP1 SUB PUSH1 0x1F AND DUP3 ADD SWAP2 JUMPDEST POP POP POP POP POP SWAP1 DUP1 PUSH1 0x2 ADD DUP1 SLOAD PUSH2 0x99A SWAP1 PUSH2 0x46BF JUMP JUMPDEST DUP1 PUSH1 0x1F ADD PUSH1 0x20 DUP1 SWAP2 DIV MUL PUSH1 0x20 ADD PUSH1 0x40 MLOAD SWAP1 DUP2 ADD PUSH1 0x40 MSTORE DUP1 SWAP3 SWAP2 SWAP1 DUP2 DUP2 MSTORE PUSH1 0x20 ADD DUP3 DUP1 SLOAD PUSH2 0x9C6 SWAP1 PUSH2 0x46BF JUMP JUMPDEST DUP1 ISZERO PUSH2 0xA13 JUMPI DUP1 PUSH1 0x1F LT PUSH2 0x9E8 JUMPI PUSH2 0x100 DUP1 DUP4 SLOAD DIV MUL DUP4 MSTORE SWAP2 PUSH1 0x20 ADD SWAP2 PUSH2 0xA13 JUMP JUMPDEST DUP3 ADD SWAP2 SWAP1 PUSH1 0x0 MSTORE PUSH1 0x20 PUSH1 0x0 KECCAK256 SWAP1 JUMPDEST DUP2 SLOAD DUP2 MSTORE SWAP1 PUSH1 0x1 ADD SWAP1 PUSH1 0x20 ADD DUP1 DUP4 GT PUSH2 0x9F6 JUMPI DUP3 SWAP1 SUB PUSH1 0x1F AND DUP3 ADD SWAP2 JUMPDEST POP POP POP POP POP SWAP1 DUP1 PUSH1 0x3 ADD DUP1 SLOAD PUSH2 0xA28 SWAP1 PUSH2 0x46BF JUMP JUMPDEST DUP1 PUSH1 0x1F ADD PUSH1 0x20 DUP1 SWAP2 DIV MUL PUSH1 0x20 ADD PUSH1 0x40 MLOAD SWAP1 DUP2 ADD PUSH1 0x40 MSTORE DUP1 SWAP3 SWAP2 SWAP1 DUP2 DUP2 MSTORE PUSH1 0x20 ADD DUP3 DUP1 SLOAD PUSH2 0xA54 SWAP1 PUSH2 0x46BF JUMP JUMPDEST DUP1 ISZERO PUSH2 0xAA1 JUMPI DUP1 PUSH1 0x1F LT PUSH2 0xA76 JUMPI PUSH2 0x100 DUP1 DUP4 SLOAD DIV MUL DUP4 MSTORE SWAP2 PUSH1 0x20 ADD SWAP2 PUSH2 0xAA1 JUMP JUMPDEST DUP3 ADD SWAP2 SWAP1 PUSH1 0x0 MSTORE PUSH1 0x20 PUSH1 0x0 KECCAK256 SWAP1 JUMPDEST DUP2 SLOAD DUP2 MSTORE SWAP1 PUSH1 0x1 ADD SWAP1 PUSH1 0x20 ADD DUP1 DUP4 GT PUSH2 0xA84 JUMPI DUP3 SWAP1 SUB PUSH1 0x1F AND DUP3 ADD SWAP2 JUMPDEST POP POP POP POP POP SWAP1 DUP1 PUSH1 0x4 ADD DUP1 SLOAD PUSH2 0xAB6 SWAP1 PUSH2 0x46BF JUMP JUMPDEST DUP1 PUSH1 0x1F ADD PUSH1 0x20 DUP1 SWAP2 DIV MUL PUSH1 0x20 ADD PUSH1 0x40 MLOAD SWAP1 DUP2 ADD PUSH1 0x40 MSTORE DUP1 SWAP3 SWAP2 SWAP1 DUP2 DUP2 MSTORE PUSH1 0x20 ADD DUP3 DUP1 SLOAD PUSH2 0xAE2 SWAP1 PUSH2 0x46BF JUMP JUMPDEST DUP1 ISZERO PUSH2 0xB2F JUMPI DUP1 PUSH1 0x1F LT PUSH2 0xB04 JUMPI PUSH2 0x100 DUP1 DUP4 SLOAD DIV MUL DUP4 MSTORE SWAP2 PUSH1 0x20 ADD SWAP2 PUSH2 0xB2F JUMP JUMPDEST DUP3 ADD SWAP2 SWAP1 PUSH1 0x0 MSTORE PUSH1 0x20 PUSH1 0x0 KECCAK256 SWAP1 JUMPDEST DUP2 SLOAD DUP2 MSTORE SWAP1 PUSH1 0x1 ADD SWAP1 PUSH1 0x20 ADD DUP1 DUP4 GT PUSH2 0xB12 JUMPI DUP3 SWAP1 SUB PUSH1 0x1F AND DUP3 ADD SWAP2 JUMPDEST POP POP POP POP POP SWAP1 DUP1 PUSH1 0x5 ADD SLOAD SWAP1 DUP1 PUSH1 0x6 ADD SLOAD SWAP1 DUP1 PUSH1 0x7 ADD SLOAD SWAP1 DUP1 PUSH1 0x8 ADD PUSH1 0x0 SWAP1 SLOAD SWAP1 PUSH2 0x100 EXP SWAP1 DIV PUSH20 0xFFFFFFFFFFFFFFFFFFFFFFFFFFFFFFFFFFFFFFFF AND SWAP1 POP DUP10 JUMP JUMPDEST PUSH2 0xB85 PUSH8 0x32B7420D5B6D67D2 PUSH1 0xC0 SHL PUSH2 0x2C1D JUMP JUMPDEST PUSH2 0xB8D PUSH2 0x2C20 JUMP JUMPDEST PUSH2 0xBA1 PUSH8 0xFEFF446ACF04C9E5 PUSH1 0xC0 SHL PUSH2 0x2C1D JUMP JUMPDEST PUSH2 0xBB5 PUSH8 0xA043ABCBBAE44431 PUSH1 0xC0 SHL PUSH2 0x2C1D JUMP JUMPDEST PUSH2 0xBC9 PUSH8 0x782C349E73FEB61F PUSH1 0xC0 SHL PUSH2 0x2C1D JUMP JUMPDEST PUSH2 0xBDD PUSH8 0x282C5810E6B6D1A PUSH1 0xC0 SHL PUSH2 0x2C1D JUMP JUMPDEST PUSH1 0x0 PUSH1 0xF PUSH1 0x0 DUP4 DUP2 MSTORE PUSH1 0x20 ADD SWAP1 DUP2 MSTORE PUSH1 0x20 ADD PUSH1 0x0 KECCAK256 SWAP1 POP PUSH2 0xC08 PUSH8 0xBD2DE946A3847AFB PUSH1 0xC0 SHL PUSH2 0x2C1D JUMP JUMPDEST PUSH2 0xC1C PUSH8 0x965736B09DDAF196 PUSH1 0xC0 SHL PUSH2 0x2C1D JUMP JUMPDEST PUSH1 0x0 PUSH1 0x10 PUSH1 0x0 DUP5 DUP2 MSTORE PUSH1 0x20 ADD SWAP1 DUP2 MSTORE PUSH1 0x20 ADD PUSH1 0x0 KECCAK256 SLOAD SWAP1 POP PUSH2 0xC48 PUSH8 0x303F36762FD99760 PUSH1 0xC0 SHL PUSH2 0x2C1D JUMP JUMPDEST PUSH2 0xC5C PUSH8 0xCD6928006A6690C8 PUSH1 0xC0 SHL PUSH2 0x2C1D JUMP JUMPDEST PUSH2 0xC70 PUSH8 0x2C2DC7E2602E2A8C PUSH1 0xC0 SHL PUSH2 0x2C1D JUMP JUMPDEST PUSH1 0x0 DUP2 GT PUSH2 0xCB3 JUMPI PUSH1 0x40 MLOAD PUSH32 0x8C379A000000000000000000000000000000000000000000000000000000000 DUP2 MSTORE PUSH1 0x4 ADD PUSH2 0xCAA SWAP1 PUSH2 0x473C JUMP JUMPDEST PUSH1 0x40 MLOAD DUP1 SWAP2 SUB SWAP1 REVERT JUMPDEST PUSH2 0xCC7 PUSH8 0x251BADFD01150A94 PUSH1 0xC0 SHL PUSH2 0x2C1D JUMP JUMPDEST PUSH2 0xCDB PUSH8 0x67E26CCBE6F82AE9 PUSH1 0xC0 SHL PUSH2 0x2C1D JUMP JUMPDEST PUSH2 0xCEF PUSH8 0x4E9E330D23D2AB0E PUSH1 0xC0 SHL PUSH2 0x2C1D JUMP JUMPDEST PUSH2 0xD03 PUSH8 0xA576A57C935CA576 PUSH1 0xC0 SHL PUSH2 0x2C1D JUMP JUMPDEST PUSH1 0x8 PUSH1 0x1 SWAP1 SLOAD SWAP1 PUSH2 0x100 EXP SWAP1 DIV PUSH20 0xFFFFFFFFFFFFFFFFFFFFFFFFFFFFFFFFFFFFFFFF AND PUSH20 0xFFFFFFFFFFFFFFFFFFFFFFFFFFFFFFFFFFFFFFFF AND PUSH4 0x23B872DD CALLER PUSH2 0xD4B DUP7 PUSH2 0x1D8C JUMP JUMPDEST DUP5 PUSH1 0x40 MLOAD DUP5 PUSH4 0xFFFFFFFF AND PUSH1 0xE0 SHL DUP2 MSTORE PUSH1 0x4 ADD PUSH2 0xD6A SWAP4 SWAP3 SWAP2 SWAP1 PUSH2 0x475C JUMP JUMPDEST PUSH1 0x20 PUSH1 0x40 MLOAD DUP1 DUP4 SUB DUP2 PUSH1 0x0 DUP8 GAS CALL ISZERO DUP1 ISZERO PUSH2 0xD89 JUMPI RETURNDATASIZE PUSH1 0x0 DUP1 RETURNDATACOPY RETURNDATASIZE PUSH1 0x0 REVERT JUMPDEST POP POP POP POP PUSH1 0x40 MLOAD RETURNDATASIZE PUSH1 0x1F NOT PUSH1 0x1F DUP3 ADD AND DUP3 ADD DUP1 PUSH1 0x40 MSTORE POP DUP2 ADD SWAP1 PUSH2 0xDAD SWAP2 SWAP1 PUSH2 0x47A8 JUMP JUMPDEST PUSH2 0xDEC JUMPI PUSH1 0x40 MLOAD PUSH32 0x8C379A000000000000000000000000000000000000000000000000000000000 DUP2 MSTORE PUSH1 0x4 ADD PUSH2 0xDE3 SWAP1 PUSH2 0x4821 JUMP JUMPDEST PUSH1 0x40 MLOAD DUP1 SWAP2 SUB SWAP1 REVERT JUMPDEST PUSH2 0xE00 PUSH8 0xFC2FBC460DB6880C PUSH1 0xC0 SHL PUSH2 0x2C1D JUMP JUMPDEST PUSH2 0xE14 PUSH8 0x39F00D6BF8A161B1 PUSH1 0xC0 SHL PUSH2 0x2C1D JUMP JUMPDEST PUSH2 0xE28 PUSH8 0xBD98BB1D9522BDAA PUSH1 0xC0 SHL PUSH2 0x2C1D JUMP JUMPDEST PUSH2 0xE3C PUSH8 0x4827259FEACB071B PUSH1 0xC0 SHL PUSH2 0x2C1D JUMP JUMPDEST PUSH1 0x8 PUSH1 0x1 SWAP1 SLOAD SWAP1 PUSH2 0x100 EXP SWAP1 DIV PUSH20 0xFFFFFFFFFFFFFFFFFFFFFFFFFFFFFFFFFFFFFFFF AND PUSH20 0xFFFFFFFFFFFFFFFFFFFFFFFFFFFFFFFFFFFFFFFF AND PUSH4 0x23B872DD CALLER PUSH1 0xD PUSH1 0x0 SWAP1 SLOAD SWAP1 PUSH2 0x100 EXP SWAP1 DIV PUSH20 0xFFFFFFFFFFFFFFFFFFFFFFFFFFFFFFFFFFFFFFFF AND PUSH1 0x64 PUSH1 0xB SLOAD DUP7 PUSH2 0xEAE SWAP2 SWAP1 PUSH2 0x4870 JUMP JUMPDEST PUSH2 0xEB8 SWAP2 SWAP1 PUSH2 0x48E1 JUMP JUMPDEST PUSH1 0x40 MLOAD DUP5 PUSH4 0xFFFFFFFF AND PUSH1 0xE0 SHL DUP2 MSTORE PUSH1 0x4 ADD PUSH2 0xED6 SWAP4 SWAP3 SWAP2 SWAP1 PUSH2 0x475C JUMP JUMPDEST PUSH1 0x20 PUSH1 0x40 MLOAD DUP1 DUP4 SUB DUP2 PUSH1 0x0 DUP8 GAS CALL ISZERO DUP1 ISZERO PUSH2 0xEF5 JUMPI RETURNDATASIZE PUSH1 0x0 DUP1 RETURNDATACOPY RETURNDATASIZE PUSH1 0x0 REVERT JUMPDEST POP POP POP POP PUSH1 0x40 MLOAD RETURNDATASIZE PUSH1 0x1F NOT PUSH1 0x1F DUP3 ADD AND DUP3 ADD DUP1 PUSH1 0x40 MSTORE POP DUP2 ADD SWAP1 PUSH2 0xF19 SWAP2 SWAP1 PUSH2 0x47A8 JUMP JUMPDEST PUSH2 0xF58 JUMPI PUSH1 0x40 MLOAD PUSH32 0x8C379A000000000000000000000000000000000000000000000000000000000 DUP2 MSTORE PUSH1 0x4 ADD PUSH2 0xF4F SWAP1 PUSH2 0x495E JUMP JUMPDEST PUSH1 0x40 MLOAD DUP1 SWAP2 SUB SWAP1 REVERT JUMPDEST PUSH2 0xF6C PUSH8 0x4032FC252230BDE PUSH1 0xC0 SHL PUSH2 0x2C1D JUMP JUMPDEST PUSH2 0xF80 PUSH8 0xA222FB657097E064 PUSH1 0xC0 SHL PUSH2 0x2C1D JUMP JUMPDEST PUSH2 0xF94 PUSH8 0xFF46AAC216003B03 PUSH1 0xC0 SHL PUSH2 0x2C1D JUMP JUMPDEST PUSH2 0xFA8 PUSH8 0x7BCA388BF5B0D300 PUSH1 0xC0 SHL PUSH2 0x2C1D JUMP JUMPDEST PUSH1 0x8 PUSH1 0x1 SWAP1 SLOAD SWAP1 PUSH2 0x100 EXP SWAP1 DIV PUSH20 0xFFFFFFFFFFFFFFFFFFFFFFFFFFFFFFFFFFFFFFFF AND PUSH20 0xFFFFFFFFFFFFFFFFFFFFFFFFFFFFFFFFFFFFFFFF AND PUSH4 0x23B872DD CALLER PUSH1 0xE PUSH1 0x0 DUP7 PUSH1 0x1 ADD SLOAD DUP2 MSTORE PUSH1 0x20 ADD SWAP1 DUP2 MSTORE PUSH1 0x20 ADD PUSH1 0x0 KECCAK256 PUSH1 0x8 ADD PUSH1 0x0 SWAP1 SLOAD SWAP1 PUSH2 0x100 EXP SWAP1 DIV PUSH20 0xFFFFFFFFFFFFFFFFFFFFFFFFFFFFFFFFFFFFFFFF AND PUSH1 0x64 PUSH1 0xC SLOAD DUP7 PUSH2 0x1032 SWAP2 SWAP1 PUSH2 0x4870 JUMP JUMPDEST PUSH2 0x103C SWAP2 SWAP1 PUSH2 0x48E1 JUMP JUMPDEST PUSH1 0x40 MLOAD DUP5 PUSH4 0xFFFFFFFF AND PUSH1 0xE0 SHL DUP2 MSTORE PUSH1 0x4 ADD PUSH2 0x105A SWAP4 SWAP3 SWAP2 SWAP1 PUSH2 0x475C JUMP JUMPDEST PUSH1 0x20 PUSH1 0x40 MLOAD DUP1 DUP4 SUB DUP2 PUSH1 0x0 DUP8 GAS CALL ISZERO DUP1 ISZERO PUSH2 0x1079 JUMPI RETURNDATASIZE PUSH1 0x0 DUP1 RETURNDATACOPY RETURNDATASIZE PUSH1 0x0 REVERT JUMPDEST POP POP POP POP PUSH1 0x40 MLOAD RETURNDATASIZE PUSH1 0x1F NOT PUSH1 0x1F DUP3 ADD AND DUP3 ADD DUP1 PUSH1 0x40 MSTORE POP DUP2 ADD SWAP1 PUSH2 0x109D SWAP2 SWAP1 PUSH2 0x47A8 JUMP JUMPDEST PUSH2 0x10DC JUMPI PUSH1 0x40 MLOAD PUSH32 0x8C379A000000000000000000000000000000000000000000000000000000000 DUP2 MSTORE PUSH1 0x4 ADD PUSH2 0x10D3 SWAP1 PUSH2 0x49CA JUMP JUMPDEST PUSH1 0x40 MLOAD DUP1 SWAP2 SUB SWAP1 REVERT JUMPDEST PUSH2 0x10F0 PUSH8 0xAC33CBB4BD202A9E PUSH1 0xC0 SHL PUSH2 0x2C1D JUMP JUMPDEST PUSH2 0x1104 PUSH8 0xE7DDDACB23B732AE PUSH1 0xC0 SHL PUSH2 0x2C1D JUMP JUMPDEST PUSH2 0x1118 PUSH8 0xF1FC8E068CE72398 PUSH1 0xC0 SHL PUSH2 0x2C1D JUMP JUMPDEST PUSH2 0x112B PUSH2 0x1124 DUP5 PUSH2 0x1D8C JUMP JUMPDEST CALLER DUP6 PUSH2 0x2C61 JUMP JUMPDEST PUSH2 0x113F PUSH8 0x318C3AB1A06B0434 PUSH1 0xC0 SHL PUSH2 0x2C1D JUMP JUMPDEST PUSH1 0x0 PUSH1 0x10 PUSH1 0x0 DUP6 DUP2 MSTORE PUSH1 0x20 ADD SWAP1 DUP2 MSTORE PUSH1 0x20 ADD PUSH1 0x0 KECCAK256 DUP2 SWAP1 SSTORE POP PUSH2 0x116C PUSH8 0xD1C3EB391E7E42BB PUSH1 0xC0 SHL PUSH2 0x2C1D JUMP JUMPDEST PUSH2 0x1180 PUSH8 0x34289C59ED7431C0 PUSH1 0xC0 SHL PUSH2 0x2C1D JUMP JUMPDEST PUSH32 0x94C5953E15F54D38B82A662BDD5739FC91AF3A23D3EF7E67269DFAEEE71A813C DUP4 DUP4 PUSH1 0x1 ADD SLOAD CALLER PUSH1 0x40 MLOAD PUSH2 0x11B7 SWAP4 SWAP3 SWAP2 SWAP1 PUSH2 0x49EA JUMP JUMPDEST PUSH1 0x40 MLOAD DUP1 SWAP2 SUB SWAP1 LOG1 POP POP POP JUMP JUMPDEST PUSH2 0x11D8 PUSH8 0xF8D5CD7B4A82C2CB PUSH1 0xC0 SHL PUSH2 0x2C1D JUMP JUMPDEST PUSH2 0x11E0 PUSH2 0x2C20 JUMP JUMPDEST PUSH2 0x11F4 PUSH8 0xED6A7E5D0DD8F76E PUSH1 0xC0 SHL PUSH2 0x2C1D JUMP JUMPDEST PUSH2 0x1208 PUSH8 0xE1DDBF9C0BBF8461 PUSH1 0xC0 SHL PUSH2 0x2C1D JUMP JUMPDEST PUSH2 0x121C PUSH8 0x728CAFED82226B79 PUSH1 0xC0 SHL PUSH2 0x2C1D JUMP JUMPDEST PUSH1 0x40 MLOAD DUP1 PUSH2 0x120 ADD PUSH1 0x40 MSTORE DUP1 DUP9 DUP2 MSTORE PUSH1 0x20 ADD DUP8 DUP2 MSTORE PUSH1 0x20 ADD DUP7 DUP2 MSTORE PUSH1 0x20 ADD DUP6 DUP2 MSTORE PUSH1 0x20 ADD DUP5 DUP2 MSTORE PUSH1 0x20 ADD DUP4 DUP2 MSTORE PUSH1 0x20 ADD DUP3 DUP2 MSTORE PUSH1 0x20 ADD PUSH1 0x0 DUP2 MSTORE PUSH1 0x20 ADD CALLER PUSH20 0xFFFFFFFFFFFFFFFFFFFFFFFFFFFFFFFFFFFFFFFF AND DUP2 MSTORE POP PUSH1 0xE PUSH1 0x0 PUSH1 0x9 SLOAD DUP2 MSTORE PUSH1 0x20 ADD SWAP1 DUP2 MSTORE PUSH1 0x20 ADD PUSH1 0x0 KECCAK256 PUSH1 0x0 DUP3 ADD MLOAD DUP2 PUSH1 0x0 ADD SWAP1 DUP2 PUSH2 0x129D SWAP2 SWAP1 PUSH2 0x4BC3 JUMP JUMPDEST POP PUSH1 0x20 DUP3 ADD MLOAD DUP2 PUSH1 0x1 ADD SWAP1 DUP2 PUSH2 0x12B3 SWAP2 SWAP1 PUSH2 0x4BC3 JUMP JUMPDEST POP PUSH1 0x40 DUP3 ADD MLOAD DUP2 PUSH1 0x2 ADD SWAP1 DUP2 PUSH2 0x12C9 SWAP2 SWAP1 PUSH2 0x4BC3 JUMP JUMPDEST POP PUSH1 0x60 DUP3 ADD MLOAD DUP2 PUSH1 0x3 ADD SWAP1 DUP2 PUSH2 0x12DF SWAP2 SWAP1 PUSH2 0x4BC3 JUMP JUMPDEST POP PUSH1 0x80 DUP3 ADD MLOAD DUP2 PUSH1 0x4 ADD SWAP1 DUP2 PUSH2 0x12F5 SWAP2 SWAP1 PUSH2 0x4BC3 JUMP JUMPDEST POP PUSH1 0xA0 DUP3 ADD MLOAD DUP2 PUSH1 0x5 ADD SSTORE PUSH1 0xC0 DUP3 ADD MLOAD DUP2 PUSH1 0x6 ADD SSTORE PUSH1 0xE0 DUP3 ADD MLOAD DUP2 PUSH1 0x7 ADD SSTORE PUSH2 0x100 DUP3 ADD MLOAD DUP2 PUSH1 0x8 ADD PUSH1 0x0 PUSH2 0x100 EXP DUP2 SLOAD DUP2 PUSH20 0xFFFFFFFFFFFFFFFFFFFFFFFFFFFFFFFFFFFFFFFF MUL NOT AND SWAP1 DUP4 PUSH20 0xFFFFFFFFFFFFFFFFFFFFFFFFFFFFFFFFFFFFFFFF AND MUL OR SWAP1 SSTORE POP SWAP1 POP POP PUSH2 0x1373 PUSH8 0xF4933E3F7F43C63B PUSH1 0xC0 SHL PUSH2 0x2C1D JUMP JUMPDEST PUSH2 0x1387 PUSH8 0xB36A93E4F0D156A7 PUSH1 0xC0 SHL PUSH2 0x2C1D JUMP JUMPDEST PUSH32 0xEE37BB5143A14810F72E86FCE895BE08E16090409D2E18F79B308995E39B73D4 PUSH1 0x9 SLOAD DUP9 DUP4 PUSH1 0x40 MLOAD PUSH2 0x13BC SWAP4 SWAP3 SWAP2 SWAP1 PUSH2 0x4C95 JUMP JUMPDEST PUSH1 0x40 MLOAD DUP1 SWAP2 SUB SWAP1 LOG1 PUSH2 0x13D8 PUSH8 0xC442D6F4167ACCEB PUSH1 0xC0 SHL PUSH2 0x2C1D JUMP JUMPDEST PUSH1 0x9 PUSH1 0x0 DUP2 SLOAD DUP1 SWAP3 SWAP2 SWAP1 PUSH2 0x13EB SWAP1 PUSH2 0x4CD3 JUMP JUMPDEST SWAP2 SWAP1 POP SSTORE POP POP POP POP POP POP POP POP JUMP JUMPDEST PUSH1 0x0 PUSH20 0xFFFFFFFFFFFFFFFFFFFFFFFFFFFFFFFFFFFFFFFF AND DUP3 PUSH20 0xFFFFFFFFFFFFFFFFFFFFFFFFFFFFFFFFFFFFFFFF AND SUB PUSH2 0x146B JUMPI PUSH1 0x0 PUSH1 0x40 MLOAD PUSH32 0x64A0AE9200000000000000000000000000000000000000000000000000000000 DUP2 MSTORE PUSH1 0x4 ADD PUSH2 0x1462 SWAP2 SWAP1 PUSH2 0x3F4B JUMP JUMPDEST PUSH1 0x40 MLOAD DUP1 SWAP2 SUB SWAP1 REVERT JUMPDEST PUSH1 0x0 PUSH2 0x147F DUP4 DUP4 PUSH2 0x147A PUSH2 0x2C03 JUMP JUMPDEST PUSH2 0x2DCE JUMP JUMPDEST SWAP1 POP DUP4 PUSH20 0xFFFFFFFFFFFFFFFFFFFFFFFFFFFFFFFFFFFFFFFF AND DUP2 PUSH20 0xFFFFFFFFFFFFFFFFFFFFFFFFFFFFFFFFFFFFFFFF AND EQ PUSH2 0x14F5 JUMPI DUP4 DUP3 DUP3 PUSH1 0x40 MLOAD PUSH32 0x64283D7B00000000000000000000000000000000000000000000000000000000 DUP2 MSTORE PUSH1 0x4 ADD PUSH2 0x14EC SWAP4 SWAP3 SWAP2 SWAP1 PUSH2 0x4D1B JUMP JUMPDEST PUSH1 0x40 MLOAD DUP1 SWAP2 SUB SWAP1 REVERT JUMPDEST POP POP POP POP JUMP JUMPDEST PUSH2 0x150F PUSH8 0x7DD6E13CC166D2FF PUSH1 0xC0 SHL PUSH2 0x2C1D JUMP JUMPDEST PUSH2 0x1517 PUSH2 0x2C20 JUMP JUMPDEST PUSH2 0x152B PUSH8 0xBC8CEDFA962D8372 PUSH1 0xC0 SHL PUSH2 0x2C1D JUMP JUMPDEST PUSH2 0x153F PUSH8 0xC6FF294F3CB0113D PUSH1 0xC0 SHL PUSH2 0x2C1D JUMP JUMPDEST PUSH2 0x1553 PUSH8 0x4E1B3A2C35ACDC41 PUSH1 0xC0 SHL PUSH2 0x2C1D JUMP JUMPDEST PUSH2 0x1567 PUSH8 0xB96297C41D6B2EAC PUSH1 0xC0 SHL PUSH2 0x2C1D JUMP JUMPDEST PUSH1 0x0 PUSH1 0xE PUSH1 0x0 DUP5 DUP2 MSTORE PUSH1 0x20 ADD SWAP1 DUP2 MSTORE PUSH1 0x20 ADD PUSH1 0x0 KECCAK256 SWAP1 POP PUSH2 0x1592 PUSH8 0xE72E75A6B328406F PUSH1 0xC0 SHL PUSH2 0x2C1D JUMP JUMPDEST PUSH2 0x15A6 PUSH8 0x1FE8EAA8D15BF89E PUSH1 0xC0 SHL PUSH2 0x2C1D JUMP JUMPDEST PUSH2 0x15BA PUSH8 0x76DF47B18B7F1185 PUSH1 0xC0 SHL PUSH2 0x2C1D JUMP JUMPDEST DUP1 PUSH1 0x6 ADD SLOAD DUP2 PUSH1 0x7 ADD SLOAD LT PUSH2 0x1604 JUMPI PUSH1 0x40 MLOAD PUSH32 0x8C379A000000000000000000000000000000000000000000000000000000000 DUP2 MSTORE PUSH1 0x4 ADD PUSH2 0x15FB SWAP1 PUSH2 0x4D9E JUMP JUMPDEST PUSH1 0x40 MLOAD DUP1 SWAP2 SUB SWAP1 REVERT JUMPDEST PUSH2 0x1618 PUSH8 0x32C1BAEF20A67627 PUSH1 0xC0 SHL PUSH2 0x2C1D JUMP JUMPDEST PUSH2 0x162C PUSH8 0x2B22BB83EABD7717 PUSH1 0xC0 SHL PUSH2 0x2C1D JUMP JUMPDEST PUSH2 0x1640 PUSH8 0x3E37B0EE58A13A66 PUSH1 0xC0 SHL PUSH2 0x2C1D JUMP JUMPDEST PUSH2 0x1654 PUSH8 0x237C1FF87C72DA5C PUSH1 0xC0 SHL PUSH2 0x2C1D JUMP JUMPDEST PUSH1 0x8 PUSH1 0x1 SWAP1 SLOAD SWAP1 PUSH2 0x100 EXP SWAP1 DIV PUSH20 0xFFFFFFFFFFFFFFFFFFFFFFFFFFFFFFFFFFFFFFFF AND PUSH20 0xFFFFFFFFFFFFFFFFFFFFFFFFFFFFFFFFFFFFFFFF AND PUSH4 0x23B872DD CALLER DUP4 PUSH1 0x8 ADD PUSH1 0x0 SWAP1 SLOAD SWAP1 PUSH2 0x100 EXP SWAP1 DIV PUSH20 0xFFFFFFFFFFFFFFFFFFFFFFFFFFFFFFFFFFFFFFFF AND DUP5 PUSH1 0x5 ADD SLOAD PUSH1 0x40 MLOAD DUP5 PUSH4 0xFFFFFFFF AND PUSH1 0xE0 SHL DUP2 MSTORE PUSH1 0x4 ADD PUSH2 0x16DB SWAP4 SWAP3 SWAP2 SWAP1 PUSH2 0x475C JUMP JUMPDEST PUSH1 0x20 PUSH1 0x40 MLOAD DUP1 DUP4 SUB DUP2 PUSH1 0x0 DUP8 GAS CALL ISZERO DUP1 ISZERO PUSH2 0x16FA JUMPI RETURNDATASIZE PUSH1 0x0 DUP1 RETURNDATACOPY RETURNDATASIZE PUSH1 0x0 REVERT JUMPDEST POP POP POP POP PUSH1 0x40 MLOAD RETURNDATASIZE PUSH1 0x1F NOT PUSH1 0x1F DUP3 ADD AND DUP3 ADD DUP1 PUSH1 0x40 MSTORE POP DUP2 ADD SWAP1 PUSH2 0x171E SWAP2 SWAP1 PUSH2 0x47A8 JUMP JUMPDEST PUSH2 0x175D JUMPI PUSH1 0x40 MLOAD PUSH32 0x8C379A000000000000000000000000000000000000000000000000000000000 DUP2 MSTORE PUSH1 0x4 ADD PUSH2 0x1754 SWAP1 PUSH2 0x4E0A JUMP JUMPDEST PUSH1 0x40 MLOAD DUP1 SWAP2 SUB SWAP1 REVERT JUMPDEST PUSH2 0x1771 PUSH8 0xEF446621046E01D6 PUSH1 0xC0 SHL PUSH2 0x2C1D JUMP JUMPDEST PUSH2 0x1785 PUSH8 0x465A86C906EAD923 PUSH1 0xC0 SHL PUSH2 0x2C1D JUMP JUMPDEST PUSH2 0x1799 PUSH8 0xC646B50627CD1043 PUSH1 0xC0 SHL PUSH2 0x2C1D JUMP JUMPDEST PUSH2 0x17AD PUSH8 0x8016E461D4F5BF0 PUSH1 0xC0 SHL PUSH2 0x2C1D JUMP JUMPDEST PUSH1 0x8 PUSH1 0x1 SWAP1 SLOAD SWAP1 PUSH2 0x100 EXP SWAP1 DIV PUSH20 0xFFFFFFFFFFFFFFFFFFFFFFFFFFFFFFFFFFFFFFFF AND PUSH20 0xFFFFFFFFFFFFFFFFFFFFFFFFFFFFFFFFFFFFFFFF AND PUSH4 0x23B872DD CALLER PUSH1 0xD PUSH1 0x0 SWAP1 SLOAD SWAP1 PUSH2 0x100 EXP SWAP1 DIV PUSH20 0xFFFFFFFFFFFFFFFFFFFFFFFFFFFFFFFFFFFFFFFF AND PUSH1 0x64 PUSH1 0xB SLOAD DUP7 PUSH1 0x5 ADD SLOAD PUSH2 0x1823 SWAP2 SWAP1 PUSH2 0x4870 JUMP JUMPDEST PUSH2 0x182D SWAP2 SWAP1 PUSH2 0x48E1 JUMP JUMPDEST PUSH1 0x40 MLOAD DUP5 PUSH4 0xFFFFFFFF AND PUSH1 0xE0 SHL DUP2 MSTORE PUSH1 0x4 ADD PUSH2 0x184B SWAP4 SWAP3 SWAP2 SWAP1 PUSH2 0x475C JUMP JUMPDEST PUSH1 0x20 PUSH1 0x40 MLOAD DUP1 DUP4 SUB DUP2 PUSH1 0x0 DUP8 GAS CALL ISZERO DUP1 ISZERO PUSH2 0x186A JUMPI RETURNDATASIZE PUSH1 0x0 DUP1 RETURNDATACOPY RETURNDATASIZE PUSH1 0x0 REVERT JUMPDEST POP POP POP POP PUSH1 0x40 MLOAD RETURNDATASIZE PUSH1 0x1F NOT PUSH1 0x1F DUP3 ADD AND DUP3 ADD DUP1 PUSH1 0x40 MSTORE POP DUP2 ADD SWAP1 PUSH2 0x188E SWAP2 SWAP1 PUSH2 0x47A8 JUMP JUMPDEST PUSH2 0x18CD JUMPI PUSH1 0x40 MLOAD PUSH32 0x8C379A000000000000000000000000000000000000000000000000000000000 DUP2 MSTORE PUSH1 0x4 ADD PUSH2 0x18C4 SWAP1 PUSH2 0x495E JUMP JUMPDEST PUSH1 0x40 MLOAD DUP1 SWAP2 SUB SWAP1 REVERT JUMPDEST PUSH2 0x18E1 PUSH8 0x446E85413AFCBC14 PUSH1 0xC0 SHL PUSH2 0x2C1D JUMP JUMPDEST PUSH2 0x18F5 PUSH8 0x8E5DEAFA82C05CB2 PUSH1 0xC0 SHL PUSH2 0x2C1D JUMP JUMPDEST PUSH2 0x1909 PUSH8 0xE8D6640D9908874F PUSH1 0xC0 SHL PUSH2 0x2C1D JUMP JUMPDEST PUSH1 0x0 PUSH1 0xA PUSH1 0x0 DUP2 SLOAD DUP1 SWAP3 SWAP2 SWAP1 PUSH2 0x191E SWAP1 PUSH2 0x4CD3 JUMP JUMPDEST SWAP2 SWAP1 POP SSTORE SWAP1 POP PUSH2 0x1938 PUSH8 0x7EED84FC81DE4FE5 PUSH1 0xC0 SHL PUSH2 0x2C1D JUMP JUMPDEST PUSH2 0x194C PUSH8 0x46D06DCDBF8827C7 PUSH1 0xC0 SHL PUSH2 0x2C1D JUMP JUMPDEST PUSH2 0x1956 CALLER DUP3 PUSH2 0x2FE8 JUMP JUMPDEST PUSH2 0x196A PUSH8 0x6E442F15F4C84B00 PUSH1 0xC0 SHL PUSH2 0x2C1D JUMP JUMPDEST PUSH1 0x40 MLOAD DUP1 PUSH1 0x60 ADD PUSH1 0x40 MSTORE DUP1 DUP3 DUP2 MSTORE PUSH1 0x20 ADD DUP6 DUP2 MSTORE PUSH1 0x20 ADD DUP5 DUP2 MSTORE POP PUSH1 0xF PUSH1 0x0 DUP4 DUP2 MSTORE PUSH1 0x20 ADD SWAP1 DUP2 MSTORE PUSH1 0x20 ADD PUSH1 0x0 KECCAK256 PUSH1 0x0 DUP3 ADD MLOAD DUP2 PUSH1 0x0 ADD SSTORE PUSH1 0x20 DUP3 ADD MLOAD DUP2 PUSH1 0x1 ADD SSTORE PUSH1 0x40 DUP3 ADD MLOAD DUP2 PUSH1 0x2 ADD SSTORE SWAP1 POP POP PUSH2 0x19CD PUSH8 0xF683AFAF260DBD9A PUSH1 0xC0 SHL PUSH2 0x2C1D JUMP JUMPDEST DUP2 PUSH1 0x7 ADD PUSH1 0x0 DUP2 SLOAD DUP1 SWAP3 SWAP2 SWAP1 PUSH2 0x19E2 SWAP1 PUSH2 0x4CD3 JUMP JUMPDEST SWAP2 SWAP1 POP SSTORE POP PUSH2 0x19FB PUSH8 0x72C6140AE072C800 PUSH1 0xC0 SHL PUSH2 0x2C1D JUMP JUMPDEST PUSH2 0x1A0F PUSH8 0x5CECEBB93E9EA9E1 PUSH1 0xC0 SHL PUSH2 0x2C1D JUMP JUMPDEST PUSH32 0x94C5953E15F54D38B82A662BDD5739FC91AF3A23D3EF7E67269DFAEEE71A813C DUP2 DUP6 CALLER PUSH1 0x40 MLOAD PUSH2 0x1A42 SWAP4 SWAP3 SWAP2 SWAP1 PUSH2 0x49EA JUMP JUMPDEST PUSH1 0x40 MLOAD DUP1 SWAP2 SUB SWAP1 LOG1 POP POP POP POP JUMP JUMPDEST PUSH2 0x1A64 PUSH8 0x509EAE165F0392DE PUSH1 0xC0 SHL PUSH2 0x2C1D JUMP JUMPDEST PUSH2 0x1A6C PUSH2 0x3006 JUMP JUMPDEST PUSH2 0x1A80 PUSH8 0xB9381F2BCD47C9B6 PUSH1 0xC0 SHL PUSH2 0x2C1D JUMP JUMPDEST PUSH2 0x1A94 PUSH8 0x9D0DABE575FD1131 PUSH1 0xC0 SHL PUSH2 0x2C1D JUMP JUMPDEST PUSH2 0x1AA8 PUSH8 0x1B070F1800802DC1 PUSH1 0xC0 SHL PUSH2 0x2C1D JUMP JUMPDEST PUSH2 0x1ABC PUSH8 0xC67551D570831D5 PUSH1 0xC0 SHL PUSH2 0x2C1D JUMP JUMPDEST PUSH2 0x1AC4 PUSH2 0x308D JUMP JUMPDEST JUMP JUMPDEST PUSH2 0x1AE1 DUP4 DUP4 DUP4 PUSH1 0x40 MLOAD DUP1 PUSH1 0x20 ADD PUSH1 0x40 MSTORE DUP1 PUSH1 0x0 DUP2 MSTORE POP PUSH2 0x24FC JUMP JUMPDEST POP POP POP JUMP JUMPDEST PUSH1 0xD PUSH1 0x0 SWAP1 SLOAD SWAP1 PUSH2 0x100 EXP SWAP1 DIV PUSH20 0xFFFFFFFFFFFFFFFFFFFFFFFFFFFFFFFFFFFFFFFF AND DUP2 JUMP JUMPDEST PUSH1 0xF PUSH1 0x20 MSTORE DUP1 PUSH1 0x0 MSTORE PUSH1 0x40 PUSH1 0x0 KECCAK256 PUSH1 0x0 SWAP2 POP SWAP1 POP DUP1 PUSH1 0x0 ADD SLOAD SWAP1 DUP1 PUSH1 0x1 ADD SLOAD SWAP1 DUP1 PUSH1 0x2 ADD SLOAD SWAP1 POP DUP4 JUMP JUMPDEST PUSH1 0x0 PUSH2 0x1B4C PUSH8 0xCAC423CE11929ED6 PUSH1 0xC0 SHL PUSH2 0x2C1D JUMP JUMPDEST PUSH2 0x1B54 PUSH2 0x2C20 JUMP JUMPDEST PUSH2 0x1B68 PUSH8 0x7CEB915705B1E777 PUSH1 0xC0 SHL PUSH2 0x2C1D JUMP JUMPDEST PUSH2 0x1B7C PUSH8 0x1D5CFEC7B49DC232 PUSH1 0xC0 SHL PUSH2 0x2C1D JUMP JUMPDEST PUSH2 0x1B90 PUSH8 0xBF776F34B2DF3256 PUSH1 0xC0 SHL PUSH2 0x2C1D JUMP JUMPDEST PUSH2 0x1BA4 PUSH8 0x160103D3A93A262A PUSH1 0xC0 SHL PUSH2 0x2C1D JUMP JUMPDEST PUSH2 0x1BB8 PUSH8 0x19A83D7FB2C777A5 PUSH1 0xC0 SHL PUSH2 0x2C1D JUMP JUMPDEST PUSH1 0xA SLOAD DUP3 GT ISZERO PUSH2 0x1BFD JUMPI PUSH1 0x40 MLOAD PUSH32 0x8C379A000000000000000000000000000000000000000000000000000000000 DUP2 MSTORE PUSH1 0x4 ADD PUSH2 0x1BF4 SWAP1 PUSH2 0x4E76 JUMP JUMPDEST PUSH1 0x40 MLOAD DUP1 SWAP2 SUB SWAP1 REVERT JUMPDEST PUSH2 0x1C11 PUSH8 0xFB415392D5602DC2 PUSH1 0xC0 SHL PUSH2 0x2C1D JUMP JUMPDEST PUSH2 0x1C25 PUSH8 0xE98A61A786F84FD3 PUSH1 0xC0 SHL PUSH2 0x2C1D JUMP JUMPDEST PUSH2 0x1C39 PUSH8 0x19EE01E78D19DB1 PUSH1 0xC0 SHL PUSH2 0x2C1D JUMP JUMPDEST PUSH1 0x0 PUSH20 0xFFFFFFFFFFFFFFFFFFFFFFFFFFFFFFFFFFFFFFFF AND PUSH2 0x1C5A DUP4 PUSH2 0x1D8C JUMP JUMPDEST PUSH20 0xFFFFFFFFFFFFFFFFFFFFFFFFFFFFFFFFFFFFFFFF AND EQ ISZERO SWAP1 POP SWAP2 SWAP1 POP JUMP JUMPDEST PUSH1 0x0 PUSH1 0x8 PUSH1 0x0 SWAP1 SLOAD SWAP1 PUSH2 0x100 EXP SWAP1 DIV PUSH1 0xFF AND SWAP1 POP SWAP1 JUMP JUMPDEST PUSH1 0xA SLOAD DUP2 JUMP JUMPDEST PUSH2 0x1CAA PUSH8 0xDE5CBA1629D21691 PUSH1 0xC0 SHL PUSH2 0x2C1D JUMP JUMPDEST PUSH2 0x1CB2 PUSH2 0x3006 JUMP JUMPDEST PUSH2 0x1CC6 PUSH8 0x63E9D1DA11B9D0D7 PUSH1 0xC0 SHL PUSH2 0x2C1D JUMP JUMPDEST PUSH2 0x1CDA PUSH8 0xD40CEB34BF8707D7 PUSH1 0xC0 SHL PUSH2 0x2C1D JUMP JUMPDEST PUSH2 0x1CEE PUSH8 0x574904FAF72AD0B PUSH1 0xC0 SHL PUSH2 0x2C1D JUMP JUMPDEST PUSH2 0x1D02 PUSH8 0xCA8CA1AB96B32383 PUSH1 0xC0 SHL PUSH2 0x2C1D JUMP JUMPDEST PUSH2 0x1D16 PUSH8 0xF48565462087B934 PUSH1 0xC0 SHL PUSH2 0x2C1D JUMP JUMPDEST PUSH1 0x64 DUP2 GT ISZERO PUSH2 0x1D5A JUMPI PUSH1 0x40 MLOAD PUSH32 0x8C379A000000000000000000000000000000000000000000000000000000000 DUP2 MSTORE PUSH1 0x4 ADD PUSH2 0x1D51 SWAP1 PUSH2 0x4EE2 JUMP JUMPDEST PUSH1 0x40 MLOAD DUP1 SWAP2 SUB SWAP1 REVERT JUMPDEST PUSH2 0x1D6E PUSH8 0x467DECB92D7E84BA PUSH1 0xC0 SHL PUSH2 0x2C1D JUMP JUMPDEST PUSH2 0x1D82 PUSH8 0xB70282DC3DA7BB9D PUSH1 0xC0 SHL PUSH2 0x2C1D JUMP JUMPDEST DUP1 PUSH1 0xC DUP2 SWAP1 SSTORE POP POP JUMP JUMPDEST PUSH1 0x0 PUSH2 0x1D97 DUP3 PUSH2 0x2B3E JUMP JUMPDEST SWAP1 POP SWAP2 SWAP1 POP JUMP JUMPDEST PUSH2 0x1DB2 PUSH8 0x37AEED37B40D863 PUSH1 0xC0 SHL PUSH2 0x2C1D JUMP JUMPDEST PUSH2 0x1DBA PUSH2 0x2C20 JUMP JUMPDEST PUSH2 0x1DCE PUSH8 0xE01A579E201E07E PUSH1 0xC0 SHL PUSH2 0x2C1D JUMP JUMPDEST PUSH2 0x1DE2 PUSH8 0x5D3E9F197458AAF9 PUSH1 0xC0 SHL PUSH2 0x2C1D JUMP JUMPDEST DUP2 PUSH2 0x1DF7 PUSH8 0xB50460FA9A722BCA PUSH1 0xC0 SHL PUSH2 0x2C1D JUMP JUMPDEST PUSH2 0x1E0B PUSH8 0x5A116D31BEE01397 PUSH1 0xC0 SHL PUSH2 0x2C1D JUMP JUMPDEST PUSH2 0x1E1F PUSH8 0xCE948C8F45C9AE43 PUSH1 0xC0 SHL PUSH2 0x2C1D JUMP JUMPDEST PUSH2 0x1E33 PUSH8 0xF2401812D41F1868 PUSH1 0xC0 SHL PUSH2 0x2C1D JUMP JUMPDEST CALLER PUSH20 0xFFFFFFFFFFFFFFFFFFFFFFFFFFFFFFFFFFFFFFFF AND PUSH2 0x1E53 DUP3 PUSH2 0x1D8C JUMP JUMPDEST PUSH20 0xFFFFFFFFFFFFFFFFFFFFFFFFFFFFFFFFFFFFFFFF AND EQ PUSH2 0x1EA9 JUMPI PUSH1 0x40 MLOAD PUSH32 0x8C379A000000000000000000000000000000000000000000000000000000000 DUP2 MSTORE PUSH1 0x4 ADD PUSH2 0x1EA0 SWAP1 PUSH2 0x4F4E JUMP JUMPDEST PUSH1 0x40 MLOAD DUP1 SWAP2 SUB SWAP1 REVERT JUMPDEST PUSH2 0x1EBD PUSH8 0xB8618EBAF7D42A94 PUSH1 0xC0 SHL PUSH2 0x2C1D JUMP JUMPDEST PUSH2 0x1ED1 PUSH8 0xF980F7AFF3806866 PUSH1 0xC0 SHL PUSH2 0x2C1D JUMP JUMPDEST PUSH2 0x1EE5 PUSH8 0xDDDC20B4281C0011 PUSH1 0xC0 SHL PUSH2 0x2C1D JUMP JUMPDEST PUSH2 0x1EF9 PUSH8 0x20B29840031A2A88 PUSH1 0xC0 SHL PUSH2 0x2C1D JUMP JUMPDEST PUSH2 0x1F0D PUSH8 0x17AFA7888EA66430 PUSH1 0xC0 SHL PUSH2 0x2C1D JUMP JUMPDEST PUSH2 0x1F21 PUSH8 0xDDA64C15C6C10D51 PUSH1 0xC0 SHL PUSH2 0x2C1D JUMP JUMPDEST PUSH2 0x1F2C CALLER DUP4 DUP6 PUSH2 0x2C61 JUMP JUMPDEST PUSH2 0x1F40 PUSH8 0xC1D48E8C070077D7 PUSH1 0xC0 SHL PUSH2 0x2C1D JUMP JUMPDEST PUSH2 0x1F54 PUSH8 0xAB88F08866AD3C80 PUSH1 0xC0 SHL PUSH2 0x2C1D JUMP JUMPDEST PUSH32 0xD15524263AE66F75C1E604C47DB6085085110F23EF7322B355179AC5E3B0783A DUP4 CALLER DUP5 PUSH1 0x40 MLOAD PUSH2 0x1F87 SWAP4 SWAP3 SWAP2 SWAP1 PUSH2 0x4F6E JUMP JUMPDEST PUSH1 0x40 MLOAD DUP1 SWAP2 SUB SWAP1 LOG1 POP POP POP JUMP JUMPDEST PUSH2 0x1FA8 PUSH8 0x6F6DBABB4DA8164D PUSH1 0xC0 SHL PUSH2 0x2C1D JUMP JUMPDEST PUSH2 0x1FB0 PUSH2 0x3006 JUMP JUMPDEST PUSH2 0x1FC4 PUSH8 0x796BAB4CFC57AC60 PUSH1 0xC0 SHL PUSH2 0x2C1D JUMP JUMPDEST PUSH2 0x1FD8 PUSH8 0x8F2818C019E30C43 PUSH1 0xC0 SHL PUSH2 0x2C1D JUMP JUMPDEST PUSH2 0x1FEC PUSH8 0x103240973F90CBC4 PUSH1 0xC0 SHL PUSH2 0x2C1D JUMP JUMPDEST PUSH2 0x2000 PUSH8 0xF1BFAFC6BEA0C138 PUSH1 0xC0 SHL PUSH2 0x2C1D JUMP JUMPDEST PUSH2 0x2009 DUP2 PUSH2 0x29D6 JUMP JUMPDEST POP JUMP JUMPDEST PUSH1 0x0 DUP1 PUSH20 0xFFFFFFFFFFFFFFFFFFFFFFFFFFFFFFFFFFFFFFFF AND DUP3 PUSH20 0xFFFFFFFFFFFFFFFFFFFFFFFFFFFFFFFFFFFFFFFF AND SUB PUSH2 0x207F JUMPI PUSH1 0x0 PUSH1 0x40 MLOAD PUSH32 0x89C62B6400000000000000000000000000000000000000000000000000000000 DUP2 MSTORE PUSH1 0x4 ADD PUSH2 0x2076 SWAP2 SWAP1 PUSH2 0x3F4B JUMP JUMPDEST PUSH1 0x40 MLOAD DUP1 SWAP2 SUB SWAP1 REVERT JUMPDEST PUSH1 0x4 PUSH1 0x0 DUP4 PUSH20 0xFFFFFFFFFFFFFFFFFFFFFFFFFFFFFFFFFFFFFFFF AND PUSH20 0xFFFFFFFFFFFFFFFFFFFFFFFFFFFFFFFFFFFFFFFF AND DUP2 MSTORE PUSH1 0x20 ADD SWAP1 DUP2 MSTORE PUSH1 0x20 ADD PUSH1 0x0 KECCAK256 SLOAD SWAP1 POP SWAP2 SWAP1 POP JUMP JUMPDEST PUSH2 0x20CE PUSH2 0x3006 JUMP JUMPDEST PUSH2 0x20D8 PUSH1 0x0 PUSH2 0x30F0 JUMP JUMPDEST JUMP JUMPDEST PUSH2 0x20EE PUSH8 0xE45CEDEBDF86D0CB PUSH1 0xC0 SHL PUSH2 0x2C1D JUMP JUMPDEST PUSH2 0x20F6 PUSH2 0x3006 JUMP JUMPDEST PUSH2 0x210A PUSH8 0xEC5EFA8CFA6E0E04 PUSH1 0xC0 SHL PUSH2 0x2C1D JUMP JUMPDEST PUSH2 0x211E PUSH8 0x5415331889ECC79B PUSH1 0xC0 SHL PUSH2 0x2C1D JUMP JUMPDEST PUSH2 0x2132 PUSH8 0x22AF26DA22B79551 PUSH1 0xC0 SHL PUSH2 0x2C1D JUMP JUMPDEST PUSH2 0x2146 PUSH8 0x248614E338B8387E PUSH1 0xC0 SHL PUSH2 0x2C1D JUMP JUMPDEST PUSH2 0x215A PUSH8 0xC13194F09462F929 PUSH1 0xC0 SHL PUSH2 0x2C1D JUMP JUMPDEST PUSH1 0x64 DUP2 GT ISZERO PUSH2 0x219E JUMPI PUSH1 0x40 MLOAD PUSH32 0x8C379A000000000000000000000000000000000000000000000000000000000 DUP2 MSTORE PUSH1 0x4 ADD PUSH2 0x2195 SWAP1 PUSH2 0x4EE2 JUMP JUMPDEST PUSH1 0x40 MLOAD DUP1 SWAP2 SUB SWAP1 REVERT JUMPDEST PUSH2 0x21B2 PUSH8 0xFF7B6AAE3DACC145 PUSH1 0xC0 SHL PUSH2 0x2C1D JUMP JUMPDEST PUSH2 0x21C6 PUSH8 0x22315F25232D01C2 PUSH1 0xC0 SHL PUSH2 0x2C1D JUMP JUMPDEST DUP1 PUSH1 0xB DUP2 SWAP1 SSTORE POP POP JUMP JUMPDEST PUSH1 0x8 PUSH1 0x1 SWAP1 SLOAD SWAP1 PUSH2 0x100 EXP SWAP1 DIV PUSH20 0xFFFFFFFFFFFFFFFFFFFFFFFFFFFFFFFFFFFFFFFF AND DUP2 JUMP JUMPDEST PUSH1 0xB SLOAD DUP2 JUMP JUMPDEST PUSH1 0x0 DUP1 PUSH1 0x0 SWAP1 SLOAD SWAP1 PUSH2 0x100 EXP SWAP1 DIV PUSH20 0xFFFFFFFFFFFFFFFFFFFFFFFFFFFFFFFFFFFFFFFF AND SWAP1 POP SWAP1 JUMP JUMPDEST PUSH1 0x60 PUSH1 0x2 DUP1 SLOAD PUSH2 0x2234 SWAP1 PUSH2 0x46BF JUMP JUMPDEST DUP1 PUSH1 0x1F ADD PUSH1 0x20 DUP1 SWAP2 DIV MUL PUSH1 0x20 ADD PUSH1 0x40 MLOAD SWAP1 DUP2 ADD PUSH1 0x40 MSTORE DUP1 SWAP3 SWAP2 SWAP1 DUP2 DUP2 MSTORE PUSH1 0x20 ADD DUP3 DUP1 SLOAD PUSH2 0x2260 SWAP1 PUSH2 0x46BF JUMP JUMPDEST DUP1 ISZERO PUSH2 0x22AD JUMPI DUP1 PUSH1 0x1F LT PUSH2 0x2282 JUMPI PUSH2 0x100 DUP1 DUP4 SLOAD DIV MUL DUP4 MSTORE SWAP2 PUSH1 0x20 ADD SWAP2 PUSH2 0x22AD JUMP JUMPDEST DUP3 ADD SWAP2 SWAP1 PUSH1 0x0 MSTORE PUSH1 0x20 PUSH1 0x0 KECCAK256 SWAP1 JUMPDEST DUP2 SLOAD DUP2 MSTORE SWAP1 PUSH1 0x1 ADD SWAP1 PUSH1 0x20 ADD DUP1 DUP4 GT PUSH2 0x2290 JUMPI DUP3 SWAP1 SUB PUSH1 0x1F AND DUP3 ADD SWAP2 JUMPDEST POP POP POP POP POP SWAP1 POP SWAP1 JUMP JUMPDEST PUSH1 0xC SLOAD DUP2 JUMP JUMPDEST PUSH1 0x9 SLOAD DUP2 JUMP JUMPDEST PUSH2 0x22D5 PUSH2 0x22CE PUSH2 0x2C03 JUMP JUMPDEST DUP4 DUP4 PUSH2 0x31B4 JUMP JUMPDEST POP POP JUMP JUMPDEST PUSH2 0x22ED PUSH8 0xFEA2C6CE0E890859 PUSH1 0xC0 SHL PUSH2 0x2C1D JUMP JUMPDEST PUSH2 0x22F5 PUSH2 0x3006 JUMP JUMPDEST PUSH2 0x2309 PUSH8 0x2C2ABEC2EDFF98F7 PUSH1 0xC0 SHL PUSH2 0x2C1D JUMP JUMPDEST PUSH2 0x231D PUSH8 0xC925B191B96C7E66 PUSH1 0xC0 SHL PUSH2 0x2C1D JUMP JUMPDEST PUSH2 0x2331 PUSH8 0x99F509D458240FE0 PUSH1 0xC0 SHL PUSH2 0x2C1D JUMP JUMPDEST DUP1 PUSH1 0xD PUSH1 0x0 PUSH2 0x100 EXP DUP2 SLOAD DUP2 PUSH20 0xFFFFFFFFFFFFFFFFFFFFFFFFFFFFFFFFFFFFFFFF MUL NOT AND SWAP1 DUP4 PUSH20 0xFFFFFFFFFFFFFFFFFFFFFFFFFFFFFFFFFFFFFFFF AND MUL OR SWAP1 SSTORE POP POP JUMP JUMPDEST PUSH2 0x2389 PUSH8 0xB3A61DF65F2A4AE3 PUSH1 0xC0 SHL PUSH2 0x2C1D JUMP JUMPDEST PUSH2 0x2391 PUSH2 0x2C20 JUMP JUMPDEST PUSH2 0x23A5 PUSH8 0x6536FFC58B3B5240 PUSH1 0xC0 SHL PUSH2 0x2C1D JUMP JUMPDEST PUSH2 0x23B9 PUSH8 0x21AC468D358B3F1 PUSH1 0xC0 SHL PUSH2 0x2C1D JUMP JUMPDEST PUSH2 0x23CD PUSH8 0x31D0C53AD3CFF256 PUSH1 0xC0 SHL PUSH2 0x2C1D JUMP JUMPDEST PUSH2 0x23E1 PUSH8 0x9AF521583CD3FDE5 PUSH1 0xC0 SHL PUSH2 0x2C1D JUMP JUMPDEST PUSH1 0x0 PUSH1 0xE PUSH1 0x0 DUP5 DUP2 MSTORE PUSH1 0x20 ADD SWAP1 DUP2 MSTORE PUSH1 0x20 ADD PUSH1 0x0 KECCAK256 SWAP1 POP PUSH2 0x240C PUSH8 0x8EA984716430FBFA PUSH1 0xC0 SHL PUSH2 0x2C1D JUMP JUMPDEST PUSH2 0x2420 PUSH8 0xEE7C7F2510A79852 PUSH1 0xC0 SHL PUSH2 0x2C1D JUMP JUMPDEST PUSH2 0x2434 PUSH8 0xE5EB6CD360039AF5 PUSH1 0xC0 SHL PUSH2 0x2C1D JUMP JUMPDEST DUP1 PUSH1 0x8 ADD PUSH1 0x0 SWAP1 SLOAD SWAP1 PUSH2 0x100 EXP SWAP1 DIV PUSH20 0xFFFFFFFFFFFFFFFFFFFFFFFFFFFFFFFFFFFFFFFF AND PUSH20 0xFFFFFFFFFFFFFFFFFFFFFFFFFFFFFFFFFFFFFFFF AND CALLER PUSH20 0xFFFFFFFFFFFFFFFFFFFFFFFFFFFFFFFFFFFFFFFF AND EQ PUSH2 0x24C6 JUMPI PUSH1 0x40 MLOAD PUSH32 0x8C379A000000000000000000000000000000000000000000000000000000000 DUP2 MSTORE PUSH1 0x4 ADD PUSH2 0x24BD SWAP1 PUSH2 0x4FF1 JUMP JUMPDEST PUSH1 0x40 MLOAD DUP1 SWAP2 SUB SWAP1 REVERT JUMPDEST PUSH2 0x24DA PUSH8 0xF040BFA0B9592A93 PUSH1 0xC0 SHL PUSH2 0x2C1D JUMP JUMPDEST PUSH2 0x24EE PUSH8 0xBF97A03C60A71B37 PUSH1 0xC0 SHL PUSH2 0x2C1D JUMP JUMPDEST DUP2 DUP2 PUSH1 0x5 ADD DUP2 SWAP1 SSTORE POP POP POP POP JUMP JUMPDEST PUSH2 0x2507 DUP5 DUP5 DUP5 PUSH2 0x13F9 JUMP JUMPDEST PUSH2 0x251B PUSH2 0x2512 PUSH2 0x2C03 JUMP JUMPDEST DUP6 DUP6 DUP6 DUP6 PUSH2 0x3323 JUMP JUMPDEST POP POP POP POP JUMP JUMPDEST PUSH1 0x60 PUSH2 0x252C DUP3 PUSH2 0x2B3E JUMP JUMPDEST POP PUSH1 0x0 PUSH1 0x7 PUSH1 0x0 DUP5 DUP2 MSTORE PUSH1 0x20 ADD SWAP1 DUP2 MSTORE PUSH1 0x20 ADD PUSH1 0x0 KECCAK256 DUP1 SLOAD PUSH2 0x254D SWAP1 PUSH2 0x46BF JUMP JUMPDEST DUP1 PUSH1 0x1F ADD PUSH1 0x20 DUP1 SWAP2 DIV MUL PUSH1 0x20 ADD PUSH1 0x40 MLOAD SWAP1 DUP2 ADD PUSH1 0x40 MSTORE DUP1 SWAP3 SWAP2 SWAP1 DUP2 DUP2 MSTORE PUSH1 0x20 ADD DUP3 DUP1 SLOAD PUSH2 0x2579 SWAP1 PUSH2 0x46BF JUMP JUMPDEST DUP1 ISZERO PUSH2 0x25C6 JUMPI DUP1 PUSH1 0x1F LT PUSH2 0x259B JUMPI PUSH2 0x100 DUP1 DUP4 SLOAD DIV MUL DUP4 MSTORE SWAP2 PUSH1 0x20 ADD SWAP2 PUSH2 0x25C6 JUMP JUMPDEST DUP3 ADD SWAP2 SWAP1 PUSH1 0x0 MSTORE PUSH1 0x20 PUSH1 0x0 KECCAK256 SWAP1 JUMPDEST DUP2 SLOAD DUP2 MSTORE SWAP1 PUSH1 0x1 ADD SWAP1 PUSH1 0x20 ADD DUP1 DUP4 GT PUSH2 0x25A9 JUMPI DUP3 SWAP1 SUB PUSH1 0x1F AND DUP3 ADD SWAP2 JUMPDEST POP POP POP POP POP SWAP1 POP PUSH1 0x0 PUSH2 0x25D7 PUSH2 0x34D4 JUMP JUMPDEST SWAP1 POP PUSH1 0x0 DUP2 MLOAD SUB PUSH2 0x25EC JUMPI DUP2 SWAP3 POP POP POP PUSH2 0x262F JUMP JUMPDEST PUSH1 0x0 DUP3 MLOAD GT ISZERO PUSH2 0x2621 JUMPI DUP1 DUP3 PUSH1 0x40 MLOAD PUSH1 0x20 ADD PUSH2 0x2609 SWAP3 SWAP2 SWAP1 PUSH2 0x504D JUMP JUMPDEST PUSH1 0x40 MLOAD PUSH1 0x20 DUP2 DUP4 SUB SUB DUP2 MSTORE SWAP1 PUSH1 0x40 MSTORE SWAP3 POP POP POP PUSH2 0x262F JUMP JUMPDEST PUSH2 0x262A DUP5 PUSH2 0x34EB JUMP JUMPDEST SWAP3 POP POP POP JUMPDEST SWAP2 SWAP1 POP JUMP JUMPDEST PUSH2 0x2648 PUSH8 0x4F7023C5F4083B5A PUSH1 0xC0 SHL PUSH2 0x2C1D JUMP JUMPDEST PUSH2 0x2650 PUSH2 0x2C20 JUMP JUMPDEST PUSH2 0x2664 PUSH8 0xBC466DDBE60856FA PUSH1 0xC0 SHL PUSH2 0x2C1D JUMP JUMPDEST PUSH2 0x2678 PUSH8 0x547EDF9F3B798FC3 PUSH1 0xC0 SHL PUSH2 0x2C1D JUMP JUMPDEST DUP2 PUSH2 0x268D PUSH8 0xB50460FA9A722BCA PUSH1 0xC0 SHL PUSH2 0x2C1D JUMP JUMPDEST PUSH2 0x26A1 PUSH8 0x5A116D31BEE01397 PUSH1 0xC0 SHL PUSH2 0x2C1D JUMP JUMPDEST PUSH2 0x26B5 PUSH8 0xCE948C8F45C9AE43 PUSH1 0xC0 SHL PUSH2 0x2C1D JUMP JUMPDEST PUSH2 0x26C9 PUSH8 0xF2401812D41F1868 PUSH1 0xC0 SHL PUSH2 0x2C1D JUMP JUMPDEST CALLER PUSH20 0xFFFFFFFFFFFFFFFFFFFFFFFFFFFFFFFFFFFFFFFF AND PUSH2 0x26E9 DUP3 PUSH2 0x1D8C JUMP JUMPDEST PUSH20 0xFFFFFFFFFFFFFFFFFFFFFFFFFFFFFFFFFFFFFFFF AND EQ PUSH2 0x273F JUMPI PUSH1 0x40 MLOAD PUSH32 0x8C379A000000000000000000000000000000000000000000000000000000000 DUP2 MSTORE PUSH1 0x4 ADD PUSH2 0x2736 SWAP1 PUSH2 0x4F4E JUMP JUMPDEST PUSH1 0x40 MLOAD DUP1 SWAP2 SUB SWAP1 REVERT JUMPDEST PUSH2 0x2753 PUSH8 0xB8618EBAF7D42A94 PUSH1 0xC0 SHL PUSH2 0x2C1D JUMP JUMPDEST PUSH2 0x2767 PUSH8 0xF980F7AFF3806866 PUSH1 0xC0 SHL PUSH2 0x2C1D JUMP JUMPDEST PUSH2 0x277B PUSH8 0xC3AB91C93FDDF1EC PUSH1 0xC0 SHL PUSH2 0x2C1D JUMP JUMPDEST PUSH2 0x278F PUSH8 0x44456BC87CE7B5C2 PUSH1 0xC0 SHL PUSH2 0x2C1D JUMP JUMPDEST PUSH2 0x27A3 PUSH8 0x138D2293D90D8E5A PUSH1 0xC0 SHL PUSH2 0x2C1D JUMP JUMPDEST PUSH2 0x27B7 PUSH8 0xBC3F7453969D1EBA PUSH1 0xC0 SHL PUSH2 0x2C1D JUMP JUMPDEST PUSH2 0x27CB PUSH8 0x4AA959AFB8905CDB PUSH1 0xC0 SHL PUSH2 0x2C1D JUMP JUMPDEST PUSH1 0x0 DUP3 GT PUSH2 0x280E JUMPI PUSH1 0x40 MLOAD PUSH32 0x8C379A000000000000000000000000000000000000000000000000000000000 DUP2 MSTORE PUSH1 0x4 ADD PUSH2 0x2805 SWAP1 PUSH2 0x50BD JUMP JUMPDEST PUSH1 0x40 MLOAD DUP1 SWAP2 SUB SWAP1 REVERT JUMPDEST PUSH2 0x2822 PUSH8 0x2438FACC73640B47 PUSH1 0xC0 SHL PUSH2 0x2C1D JUMP JUMPDEST PUSH2 0x2836 PUSH8 0xF3583CD64D145119 PUSH1 0xC0 SHL PUSH2 0x2C1D JUMP JUMPDEST DUP2 PUSH1 0x10 PUSH1 0x0 DUP6 DUP2 MSTORE PUSH1 0x20 ADD SWAP1 DUP2 MSTORE PUSH1 0x20 ADD PUSH1 0x0 KECCAK256 DUP2 SWAP1 SSTORE POP PUSH2 0x2862 PUSH8 0x3CFC56C03A1129AC PUSH1 0xC0 SHL PUSH2 0x2C1D JUMP JUMPDEST PUSH2 0x2876 PUSH8 0x98BA417BABE9D414 PUSH1 0xC0 SHL PUSH2 0x2C1D JUMP JUMPDEST PUSH32 0xBCA2F6391CAFD6D28D39261BA883DD74090C618BEFB806E74EF434778BB2F7ED DUP4 DUP4 PUSH1 0x40 MLOAD PUSH2 0x28A7 SWAP3 SWAP2 SWAP1 PUSH2 0x50DD JUMP JUMPDEST PUSH1 0x40 MLOAD DUP1 SWAP2 SUB SWAP1 LOG1 POP POP POP JUMP JUMPDEST PUSH2 0x28C8 PUSH8 0x9BFBE53D596B0ABD PUSH1 0xC0 SHL PUSH2 0x2C1D JUMP JUMPDEST PUSH2 0x28D0 PUSH2 0x3006 JUMP JUMPDEST PUSH2 0x28E4 PUSH8 0xA82102D067AE0DEA PUSH1 0xC0 SHL PUSH2 0x2C1D JUMP JUMPDEST PUSH2 0x28F8 PUSH8 0xDB0F694C67C2A2C9 PUSH1 0xC0 SHL PUSH2 0x2C1D JUMP JUMPDEST PUSH2 0x290C PUSH8 0xC4AA980A67688293 PUSH1 0xC0 SHL PUSH2 0x2C1D JUMP JUMPDEST PUSH2 0x2920 PUSH8 0xD91EB95A8A761C91 PUSH1 0xC0 SHL PUSH2 0x2C1D JUMP JUMPDEST PUSH2 0x2928 PUSH2 0x3554 JUMP JUMPDEST JUMP JUMPDEST PUSH1 0x0 PUSH1 0x6 PUSH1 0x0 DUP5 PUSH20 0xFFFFFFFFFFFFFFFFFFFFFFFFFFFFFFFFFFFFFFFF AND PUSH20 0xFFFFFFFFFFFFFFFFFFFFFFFFFFFFFFFFFFFFFFFF AND DUP2 MSTORE PUSH1 0x20 ADD SWAP1 DUP2 MSTORE PUSH1 0x20 ADD PUSH1 0x0 KECCAK256 PUSH1 0x0 DUP4 PUSH20 0xFFFFFFFFFFFFFFFFFFFFFFFFFFFFFFFFFFFFFFFF AND PUSH20 0xFFFFFFFFFFFFFFFFFFFFFFFFFFFFFFFFFFFFFFFF AND DUP2 MSTORE PUSH1 0x20 ADD SWAP1 DUP2 MSTORE PUSH1 0x20 ADD PUSH1 0x0 KECCAK256 PUSH1 0x0 SWAP1 SLOAD SWAP1 PUSH2 0x100 EXP SWAP1 DIV PUSH1 0xFF AND SWAP1 POP SWAP3 SWAP2 POP POP JUMP JUMPDEST PUSH1 0x10 PUSH1 0x20 MSTORE DUP1 PUSH1 0x0 MSTORE PUSH1 0x40 PUSH1 0x0 KECCAK256 PUSH1 0x0 SWAP2 POP SWAP1 POP SLOAD DUP2 JUMP JUMPDEST PUSH2 0x29DE PUSH2 0x3006 JUMP JUMPDEST PUSH1 0x0 PUSH20 0xFFFFFFFFFFFFFFFFFFFFFFFFFFFFFFFFFFFFFFFF AND DUP2 PUSH20 0xFFFFFFFFFFFFFFFFFFFFFFFFFFFFFFFFFFFFFFFF AND SUB PUSH2 0x2A50 JUMPI PUSH1 0x0 PUSH1 0x40 MLOAD PUSH32 0x1E4FBDF700000000000000000000000000000000000000000000000000000000 DUP2 MSTORE PUSH1 0x4 ADD PUSH2 0x2A47 SWAP2 SWAP1 PUSH2 0x3F4B JUMP JUMPDEST PUSH1 0x40 MLOAD DUP1 SWAP2 SUB SWAP1 REVERT JUMPDEST PUSH2 0x2A59 DUP2 PUSH2 0x30F0 JUMP JUMPDEST POP JUMP JUMPDEST PUSH1 0x0 PUSH32 0x80AC58CD00000000000000000000000000000000000000000000000000000000 PUSH28 0xFFFFFFFFFFFFFFFFFFFFFFFFFFFFFFFFFFFFFFFFFFFFFFFFFFFFFFFF NOT AND DUP3 PUSH28 0xFFFFFFFFFFFFFFFFFFFFFFFFFFFFFFFFFFFFFFFFFFFFFFFFFFFFFFFF NOT AND EQ DUP1 PUSH2 0x2B27 JUMPI POP PUSH32 0x5B5E139F00000000000000000000000000000000000000000000000000000000 PUSH28 0xFFFFFFFFFFFFFFFFFFFFFFFFFFFFFFFFFFFFFFFFFFFFFFFFFFFFFFFF NOT AND DUP3 PUSH28 0xFFFFFFFFFFFFFFFFFFFFFFFFFFFFFFFFFFFFFFFFFFFFFFFFFFFFFFFF NOT AND EQ JUMPDEST DUP1 PUSH2 0x2B37 JUMPI POP PUSH2 0x2B36 DUP3 PUSH2 0x35B7 JUMP JUMPDEST JUMPDEST SWAP1 POP SWAP2 SWAP1 POP JUMP JUMPDEST PUSH1 0x0 DUP1 PUSH2 0x2B4A DUP4 PUSH2 0x3621 JUMP JUMPDEST SWAP1 POP PUSH1 0x0 PUSH20 0xFFFFFFFFFFFFFFFFFFFFFFFFFFFFFFFFFFFFFFFF AND DUP2 PUSH20 0xFFFFFFFFFFFFFFFFFFFFFFFFFFFFFFFFFFFFFFFF AND SUB PUSH2 0x2BBD JUMPI DUP3 PUSH1 0x40 MLOAD PUSH32 0x7E27328900000000000000000000000000000000000000000000000000000000 DUP2 MSTORE PUSH1 0x4 ADD PUSH2 0x2BB4 SWAP2 SWAP1 PUSH2 0x43BE JUMP JUMPDEST PUSH1 0x40 MLOAD DUP1 SWAP2 SUB SWAP1 REVERT JUMPDEST DUP1 SWAP2 POP POP SWAP2 SWAP1 POP JUMP JUMPDEST PUSH1 0x0 PUSH1 0x5 PUSH1 0x0 DUP4 DUP2 MSTORE PUSH1 0x20 ADD SWAP1 DUP2 MSTORE PUSH1 0x20 ADD PUSH1 0x0 KECCAK256 PUSH1 0x0 SWAP1 SLOAD SWAP1 PUSH2 0x100 EXP SWAP1 DIV PUSH20 0xFFFFFFFFFFFFFFFFFFFFFFFFFFFFFFFFFFFFFFFF AND SWAP1 POP SWAP2 SWAP1 POP JUMP JUMPDEST PUSH1 0x0 CALLER SWAP1 POP SWAP1 JUMP JUMPDEST PUSH2 0x2C18 DUP4 DUP4 DUP4 PUSH1 0x1 PUSH2 0x365E JUMP JUMPDEST POP POP POP JUMP JUMPDEST POP JUMP JUMPDEST PUSH2 0x2C28 PUSH2 0x1C79 JUMP JUMPDEST ISZERO PUSH2 0x2C5F JUMPI PUSH1 0x40 MLOAD PUSH32 0xD93C066500000000000000000000000000000000000000000000000000000000 DUP2 MSTORE PUSH1 0x4 ADD PUSH1 0x40 MLOAD DUP1 SWAP2 SUB SWAP1 REVERT JUMPDEST JUMP JUMPDEST PUSH1 0x0 PUSH20 0xFFFFFFFFFFFFFFFFFFFFFFFFFFFFFFFFFFFFFFFF AND DUP3 PUSH20 0xFFFFFFFFFFFFFFFFFFFFFFFFFFFFFFFFFFFFFFFF AND SUB PUSH2 0x2CD3 JUMPI PUSH1 0x0 PUSH1 0x40 MLOAD PUSH32 0x64A0AE9200000000000000000000000000000000000000000000000000000000 DUP2 MSTORE PUSH1 0x4 ADD PUSH2 0x2CCA SWAP2 SWAP1 PUSH2 0x3F4B JUMP JUMPDEST PUSH1 0x40 MLOAD DUP1 SWAP2 SUB SWAP1 REVERT JUMPDEST PUSH1 0x0 PUSH2 0x2CE1 DUP4 DUP4 PUSH1 0x0 PUSH2 0x2DCE JUMP JUMPDEST SWAP1 POP PUSH1 0x0 PUSH20 0xFFFFFFFFFFFFFFFFFFFFFFFFFFFFFFFFFFFFFFFF AND DUP2 PUSH20 0xFFFFFFFFFFFFFFFFFFFFFFFFFFFFFFFFFFFFFFFF AND SUB PUSH2 0x2D54 JUMPI DUP2 PUSH1 0x40 MLOAD PUSH32 0x7E27328900000000000000000000000000000000000000000000000000000000 DUP2 MSTORE PUSH1 0x4 ADD PUSH2 0x2D4B SWAP2 SWAP1 PUSH2 0x43BE JUMP JUMPDEST PUSH1 0x40 MLOAD DUP1 SWAP2 SUB SWAP1 REVERT JUMPDEST DUP4 PUSH20 0xFFFFFFFFFFFFFFFFFFFFFFFFFFFFFFFFFFFFFFFF AND DUP2 PUSH20 0xFFFFFFFFFFFFFFFFFFFFFFFFFFFFFFFFFFFFFFFF AND EQ PUSH2 0x2DC8 JUMPI DUP4 DUP3 DUP3 PUSH1 0x40 MLOAD PUSH32 0x64283D7B00000000000000000000000000000000000000000000000000000000 DUP2 MSTORE PUSH1 0x4 ADD PUSH2 0x2DBF SWAP4 SWAP3 SWAP2 SWAP1 PUSH2 0x4D1B JUMP JUMPDEST PUSH1 0x40 MLOAD DUP1 SWAP2 SUB SWAP1 REVERT JUMPDEST POP POP POP POP JUMP JUMPDEST PUSH1 0x0 DUP1 PUSH2 0x2DDA DUP5 PUSH2 0x3621 JUMP JUMPDEST SWAP1 POP PUSH1 0x0 PUSH20 0xFFFFFFFFFFFFFFFFFFFFFFFFFFFFFFFFFFFFFFFF AND DUP4 PUSH20 0xFFFFFFFFFFFFFFFFFFFFFFFFFFFFFFFFFFFFFFFF AND EQ PUSH2 0x2E1C JUMPI PUSH2 0x2E1B DUP2 DUP5 DUP7 PUSH2 0x3823 JUMP JUMPDEST JUMPDEST PUSH1 0x0 PUSH20 0xFFFFFFFFFFFFFFFFFFFFFFFFFFFFFFFFFFFFFFFF AND DUP2 PUSH20 0xFFFFFFFFFFFFFFFFFFFFFFFFFFFFFFFFFFFFFFFF AND EQ PUSH2 0x2EAD JUMPI PUSH2 0x2E5E PUSH1 0x0 DUP6 PUSH1 0x0 DUP1 PUSH2 0x365E JUMP JUMPDEST PUSH1 0x1 PUSH1 0x4 PUSH1 0x0 DUP4 PUSH20 0xFFFFFFFFFFFFFFFFFFFFFFFFFFFFFFFFFFFFFFFF AND PUSH20 0xFFFFFFFFFFFFFFFFFFFFFFFFFFFFFFFFFFFFFFFF AND DUP2 MSTORE PUSH1 0x20 ADD SWAP1 DUP2 MSTORE PUSH1 0x20 ADD PUSH1 0x0 KECCAK256 PUSH1 0x0 DUP3 DUP3 SLOAD SUB SWAP3 POP POP DUP2 SWAP1 SSTORE POP JUMPDEST PUSH1 0x0 PUSH20 0xFFFFFFFFFFFFFFFFFFFFFFFFFFFFFFFFFFFFFFFF AND DUP6 PUSH20 0xFFFFFFFFFFFFFFFFFFFFFFFFFFFFFFFFFFFFFFFF AND EQ PUSH2 0x2F30 JUMPI PUSH1 0x1 PUSH1 0x4 PUSH1 0x0 DUP8 PUSH20 0xFFFFFFFFFFFFFFFFFFFFFFFFFFFFFFFFFFFFFFFF AND PUSH20 0xFFFFFFFFFFFFFFFFFFFFFFFFFFFFFFFFFFFFFFFF AND DUP2 MSTORE PUSH1 0x20 ADD SWAP1 DUP2 MSTORE PUSH1 0x20 ADD PUSH1 0x0 KECCAK256 PUSH1 0x0 DUP3 DUP3 SLOAD ADD SWAP3 POP POP DUP2 SWAP1 SSTORE POP JUMPDEST DUP5 PUSH1 0x3 PUSH1 0x0 DUP7 DUP2 MSTORE PUSH1 0x20 ADD SWAP1 DUP2 MSTORE PUSH1 0x20 ADD PUSH1 0x0 KECCAK256 PUSH1 0x0 PUSH2 0x100 EXP DUP2 SLOAD DUP2 PUSH20 0xFFFFFFFFFFFFFFFFFFFFFFFFFFFFFFFFFFFFFFFF MUL NOT AND SWAP1 DUP4 PUSH20 0xFFFFFFFFFFFFFFFFFFFFFFFFFFFFFFFFFFFFFFFF AND MUL OR SWAP1 SSTORE POP DUP4 DUP6 PUSH20 0xFFFFFFFFFFFFFFFFFFFFFFFFFFFFFFFFFFFFFFFF AND DUP3 PUSH20 0xFFFFFFFFFFFFFFFFFFFFFFFFFFFFFFFFFFFFFFFF AND PUSH32 0xDDF252AD1BE2C89B69C2B068FC378DAA952BA7F163C4A11628F55A4DF523B3EF PUSH1 0x40 MLOAD PUSH1 0x40 MLOAD DUP1 SWAP2 SUB SWAP1 LOG4 DUP1 SWAP2 POP POP SWAP4 SWAP3 POP POP POP JUMP JUMPDEST PUSH2 0x3002 DUP3 DUP3 PUSH1 0x40 MLOAD DUP1 PUSH1 0x20 ADD PUSH1 0x40 MSTORE DUP1 PUSH1 0x0 DUP2 MSTORE POP PUSH2 0x38E7 JUMP JUMPDEST POP POP JUMP JUMPDEST PUSH2 0x300E PUSH2 0x2C03 JUMP JUMPDEST PUSH20 0xFFFFFFFFFFFFFFFFFFFFFFFFFFFFFFFFFFFFFFFF AND PUSH2 0x302C PUSH2 0x21FC JUMP JUMPDEST PUSH20 0xFFFFFFFFFFFFFFFFFFFFFFFFFFFFFFFFFFFFFFFF AND EQ PUSH2 0x308B JUMPI PUSH2 0x304F PUSH2 0x2C03 JUMP JUMPDEST PUSH1 0x40 MLOAD PUSH32 0x118CDAA700000000000000000000000000000000000000000000000000000000 DUP2 MSTORE PUSH1 0x4 ADD PUSH2 0x3082 SWAP2 SWAP1 PUSH2 0x3F4B JUMP JUMPDEST PUSH1 0x40 MLOAD DUP1 SWAP2 SUB SWAP1 REVERT JUMPDEST JUMP JUMPDEST PUSH2 0x3095 PUSH2 0x2C20 JUMP JUMPDEST PUSH1 0x1 PUSH1 0x8 PUSH1 0x0 PUSH2 0x100 EXP DUP2 SLOAD DUP2 PUSH1 0xFF MUL NOT AND SWAP1 DUP4 ISZERO ISZERO MUL OR SWAP1 SSTORE POP PUSH32 0x62E78CEA01BEE320CD4E420270B5EA74000D11B0C9F74754EBDBFC544B05A258 PUSH2 0x30D9 PUSH2 0x2C03 JUMP JUMPDEST PUSH1 0x40 MLOAD PUSH2 0x30E6 SWAP2 SWAP1 PUSH2 0x3F4B JUMP JUMPDEST PUSH1 0x40 MLOAD DUP1 SWAP2 SUB SWAP1 LOG1 JUMP JUMPDEST PUSH1 0x0 DUP1 PUSH1 0x0 SWAP1 SLOAD SWAP1 PUSH2 0x100 EXP SWAP1 DIV PUSH20 0xFFFFFFFFFFFFFFFFFFFFFFFFFFFFFFFFFFFFFFFF AND SWAP1 POP DUP2 PUSH1 0x0 DUP1 PUSH2 0x100 EXP DUP2 SLOAD DUP2 PUSH20 0xFFFFFFFFFFFFFFFFFFFFFFFFFFFFFFFFFFFFFFFF MUL NOT AND SWAP1 DUP4 PUSH20 0xFFFFFFFFFFFFFFFFFFFFFFFFFFFFFFFFFFFFFFFF AND MUL OR SWAP1 SSTORE POP DUP2 PUSH20 0xFFFFFFFFFFFFFFFFFFFFFFFFFFFFFFFFFFFFFFFF AND DUP2 PUSH20 0xFFFFFFFFFFFFFFFFFFFFFFFFFFFFFFFFFFFFFFFF AND PUSH32 0x8BE0079C531659141344CD1FD0A4F28419497F9722A3DAAFE3B4186F6B6457E0 PUSH1 0x40 MLOAD PUSH1 0x40 MLOAD DUP1 SWAP2 SUB SWAP1 LOG3 POP POP JUMP JUMPDEST PUSH1 0x0 PUSH20 0xFFFFFFFFFFFFFFFFFFFFFFFFFFFFFFFFFFFFFFFF AND DUP3 PUSH20 0xFFFFFFFFFFFFFFFFFFFFFFFFFFFFFFFFFFFFFFFF AND SUB PUSH2 0x3225 JUMPI DUP2 PUSH1 0x40 MLOAD PUSH32 0x5B08BA1800000000000000000000000000000000000000000000000000000000 DUP2 MSTORE PUSH1 0x4 ADD PUSH2 0x321C SWAP2 SWAP1 PUSH2 0x3F4B JUMP JUMPDEST PUSH1 0x40 MLOAD DUP1 SWAP2 SUB SWAP1 REVERT JUMPDEST DUP1 PUSH1 0x6 PUSH1 0x0 DUP6 PUSH20 0xFFFFFFFFFFFFFFFFFFFFFFFFFFFFFFFFFFFFFFFF AND PUSH20 0xFFFFFFFFFFFFFFFFFFFFFFFFFFFFFFFFFFFFFFFF AND DUP2 MSTORE PUSH1 0x20 ADD SWAP1 DUP2 MSTORE PUSH1 0x20 ADD PUSH1 0x0 KECCAK256 PUSH1 0x0 DUP5 PUSH20 0xFFFFFFFFFFFFFFFFFFFFFFFFFFFFFFFFFFFFFFFF AND PUSH20 0xFFFFFFFFFFFFFFFFFFFFFFFFFFFFFFFFFFFFFFFF AND DUP2 MSTORE PUSH1 0x20 ADD SWAP1 DUP2 MSTORE PUSH1 0x20 ADD PUSH1 0x0 KECCAK256 PUSH1 0x0 PUSH2 0x100 EXP DUP2 SLOAD DUP2 PUSH1 0xFF MUL NOT AND SWAP1 DUP4 ISZERO ISZERO MUL OR SWAP1 SSTORE POP DUP2 PUSH20 0xFFFFFFFFFFFFFFFFFFFFFFFFFFFFFFFFFFFFFFFF AND DUP4 PUSH20 0xFFFFFFFFFFFFFFFFFFFFFFFFFFFFFFFFFFFFFFFF AND PUSH32 0x17307EAB39AB6107E8899845AD3D59BD9653F200F220920489CA2B5937696C31 DUP4 PUSH1 0x40 MLOAD PUSH2 0x3316 SWAP2 SWAP1 PUSH2 0x3DDA JUMP JUMPDEST PUSH1 0x40 MLOAD DUP1 SWAP2 SUB SWAP1 LOG3 POP POP POP JUMP JUMPDEST PUSH1 0x0 DUP4 PUSH20 0xFFFFFFFFFFFFFFFFFFFFFFFFFFFFFFFFFFFFFFFF AND EXTCODESIZE GT ISZERO PUSH2 0x34CD JUMPI DUP3 PUSH20 0xFFFFFFFFFFFFFFFFFFFFFFFFFFFFFFFFFFFFFFFF AND PUSH4 0x150B7A02 DUP7 DUP7 DUP6 DUP6 PUSH1 0x40 MLOAD DUP6 PUSH4 0xFFFFFFFF AND PUSH1 0xE0 SHL DUP2 MSTORE PUSH1 0x4 ADD PUSH2 0x3382 SWAP5 SWAP4 SWAP3 SWAP2 SWAP1 PUSH2 0x515B JUMP JUMPDEST PUSH1 0x20 PUSH1 0x40 MLOAD DUP1 DUP4 SUB DUP2 PUSH1 0x0 DUP8 GAS CALL SWAP3 POP POP POP DUP1 ISZERO PUSH2 0x33BE JUMPI POP PUSH1 0x40 MLOAD RETURNDATASIZE PUSH1 0x1F NOT PUSH1 0x1F DUP3 ADD AND DUP3 ADD DUP1 PUSH1 0x40 MSTORE POP DUP2 ADD SWAP1 PUSH2 0x33BB SWAP2 SWAP1 PUSH2 0x51BC JUMP JUMPDEST PUSH1 0x1 JUMPDEST PUSH2 0x3442 JUMPI RETURNDATASIZE DUP1 PUSH1 0x0 DUP2 EQ PUSH2 0x33EE JUMPI PUSH1 0x40 MLOAD SWAP2 POP PUSH1 0x1F NOT PUSH1 0x3F RETURNDATASIZE ADD AND DUP3 ADD PUSH1 0x40 MSTORE RETURNDATASIZE DUP3 MSTORE RETURNDATASIZE PUSH1 0x0 PUSH1 0x20 DUP5 ADD RETURNDATACOPY PUSH2 0x33F3 JUMP JUMPDEST PUSH1 0x60 SWAP2 POP JUMPDEST POP PUSH1 0x0 DUP2 MLOAD SUB PUSH2 0x343A JUMPI DUP4 PUSH1 0x40 MLOAD PUSH32 0x64A0AE9200000000000000000000000000000000000000000000000000000000 DUP2 MSTORE PUSH1 0x4 ADD PUSH2 0x3431 SWAP2 SWAP1 PUSH2 0x3F4B JUMP JUMPDEST PUSH1 0x40 MLOAD DUP1 SWAP2 SUB SWAP1 REVERT JUMPDEST DUP1 MLOAD DUP2 PUSH1 0x20 ADD REVERT JUMPDEST PUSH4 0x150B7A02 PUSH1 0xE0 SHL PUSH28 0xFFFFFFFFFFFFFFFFFFFFFFFFFFFFFFFFFFFFFFFFFFFFFFFFFFFFFFFF NOT AND DUP2 PUSH28 0xFFFFFFFFFFFFFFFFFFFFFFFFFFFFFFFFFFFFFFFFFFFFFFFFFFFFFFFF NOT AND EQ PUSH2 0x34CB JUMPI DUP4 PUSH1 0x40 MLOAD PUSH32 0x64A0AE9200000000000000000000000000000000000000000000000000000000 DUP2 MSTORE PUSH1 0x4 ADD PUSH2 0x34C2 SWAP2 SWAP1 PUSH2 0x3F4B JUMP JUMPDEST PUSH1 0x40 MLOAD DUP1 SWAP2 SUB SWAP1 REVERT JUMPDEST POP JUMPDEST POP POP POP POP POP JUMP JUMPDEST PUSH1 0x60 PUSH1 0x40 MLOAD DUP1 PUSH1 0x20 ADD PUSH1 0x40 MSTORE DUP1 PUSH1 0x0 DUP2 MSTORE POP SWAP1 POP SWAP1 JUMP JUMPDEST PUSH1 0x60 PUSH2 0x34F6 DUP3 PUSH2 0x2B3E JUMP JUMPDEST POP PUSH1 0x0 PUSH2 0x3501 PUSH2 0x34D4 JUMP JUMPDEST SWAP1 POP PUSH1 0x0 DUP2 MLOAD GT PUSH2 0x3521 JUMPI PUSH1 0x40 MLOAD DUP1 PUSH1 0x20 ADD PUSH1 0x40 MSTORE DUP1 PUSH1 0x0 DUP2 MSTORE POP PUSH2 0x354C JUMP JUMPDEST DUP1 PUSH2 0x352B DUP5 PUSH2 0x390B JUMP JUMPDEST PUSH1 0x40 MLOAD PUSH1 0x20 ADD PUSH2 0x353C SWAP3 SWAP2 SWAP1 PUSH2 0x504D JUMP JUMPDEST PUSH1 0x40 MLOAD PUSH1 0x20 DUP2 DUP4 SUB SUB DUP2 MSTORE SWAP1 PUSH1 0x40 MSTORE JUMPDEST SWAP2 POP POP SWAP2 SWAP1 POP JUMP JUMPDEST PUSH2 0x355C PUSH2 0x39D9 JUMP JUMPDEST PUSH1 0x0 PUSH1 0x8 PUSH1 0x0 PUSH2 0x100 EXP DUP2 SLOAD DUP2 PUSH1 0xFF MUL NOT AND SWAP1 DUP4 ISZERO ISZERO MUL OR SWAP1 SSTORE POP PUSH32 0x5DB9EE0A495BF2E6FF9C91A7834C1BA4FDD244A5E8AA4E537BD38AEAE4B073AA PUSH2 0x35A0 PUSH2 0x2C03 JUMP JUMPDEST PUSH1 0x40 MLOAD PUSH2 0x35AD SWAP2 SWAP1 PUSH2 0x3F4B JUMP JUMPDEST PUSH1 0x40 MLOAD DUP1 SWAP2 SUB SWAP1 LOG1 JUMP JUMPDEST PUSH1 0x0 PUSH32 0x1FFC9A700000000000000000000000000000000000000000000000000000000 PUSH28 0xFFFFFFFFFFFFFFFFFFFFFFFFFFFFFFFFFFFFFFFFFFFFFFFFFFFFFFFF NOT AND DUP3 PUSH28 0xFFFFFFFFFFFFFFFFFFFFFFFFFFFFFFFFFFFFFFFFFFFFFFFFFFFFFFFF NOT AND EQ SWAP1 POP SWAP2 SWAP1 POP JUMP JUMPDEST PUSH1 0x0 PUSH1 0x3 PUSH1 0x0 DUP4 DUP2 MSTORE PUSH1 0x20 ADD SWAP1 DUP2 MSTORE PUSH1 0x20 ADD PUSH1 0x0 KECCAK256 PUSH1 0x0 SWAP1 SLOAD SWAP1 PUSH2 0x100 EXP SWAP1 DIV PUSH20 0xFFFFFFFFFFFFFFFFFFFFFFFFFFFFFFFFFFFFFFFF AND SWAP1 POP SWAP2 SWAP1 POP JUMP JUMPDEST DUP1 DUP1 PUSH2 0x3697 JUMPI POP PUSH1 0x0 PUSH20 0xFFFFFFFFFFFFFFFFFFFFFFFFFFFFFFFFFFFFFFFF AND DUP3 PUSH20 0xFFFFFFFFFFFFFFFFFFFFFFFFFFFFFFFFFFFFFFFF AND EQ ISZERO JUMPDEST ISZERO PUSH2 0x37CB JUMPI PUSH1 0x0 PUSH2 0x36A7 DUP5 PUSH2 0x2B3E JUMP JUMPDEST SWAP1 POP PUSH1 0x0 PUSH20 0xFFFFFFFFFFFFFFFFFFFFFFFFFFFFFFFFFFFFFFFF AND DUP4 PUSH20 0xFFFFFFFFFFFFFFFFFFFFFFFFFFFFFFFFFFFFFFFF AND EQ ISZERO DUP1 ISZERO PUSH2 0x3712 JUMPI POP DUP3 PUSH20 0xFFFFFFFFFFFFFFFFFFFFFFFFFFFFFFFFFFFFFFFF AND DUP2 PUSH20 0xFFFFFFFFFFFFFFFFFFFFFFFFFFFFFFFFFFFFFFFF AND EQ ISZERO JUMPDEST DUP1 ISZERO PUSH2 0x3725 JUMPI POP PUSH2 0x3723 DUP2 DUP5 PUSH2 0x292A JUMP JUMPDEST ISZERO JUMPDEST ISZERO PUSH2 0x3767 JUMPI DUP3 PUSH1 0x40 MLOAD PUSH32 0xA9FBF51F00000000000000000000000000000000000000000000000000000000 DUP2 MSTORE PUSH1 0x4 ADD PUSH2 0x375E SWAP2 SWAP1 PUSH2 0x3F4B JUMP JUMPDEST PUSH1 0x40 MLOAD DUP1 SWAP2 SUB SWAP1 REVERT JUMPDEST DUP2 ISZERO PUSH2 0x37C9 JUMPI DUP4 DUP6 PUSH20 0xFFFFFFFFFFFFFFFFFFFFFFFFFFFFFFFFFFFFFFFF AND DUP3 PUSH20 0xFFFFFFFFFFFFFFFFFFFFFFFFFFFFFFFFFFFFFFFF AND PUSH32 0x8C5BE1E5EBEC7D5BD14F71427D1E84F3DD0314C0F7B2291E5B200AC8C7C3B925 PUSH1 0x40 MLOAD PUSH1 0x40 MLOAD DUP1 SWAP2 SUB SWAP1 LOG4 JUMPDEST POP JUMPDEST DUP4 PUSH1 0x5 PUSH1 0x0 DUP6 DUP2 MSTORE PUSH1 0x20 ADD SWAP1 DUP2 MSTORE PUSH1 0x20 ADD PUSH1 0x0 KECCAK256 PUSH1 0x0 PUSH2 0x100 EXP DUP2 SLOAD DUP2 PUSH20 0xFFFFFFFFFFFFFFFFFFFFFFFFFFFFFFFFFFFFFFFF MUL NOT AND SWAP1 DUP4 PUSH20 0xFFFFFFFFFFFFFFFFFFFFFFFFFFFFFFFFFFFFFFFF AND MUL OR SWAP1 SSTORE POP POP POP POP POP JUMP JUMPDEST PUSH2 0x382E DUP4 DUP4 DUP4 PUSH2 0x3A19 JUMP JUMPDEST PUSH2 0x38E2 JUMPI PUSH1 0x0 PUSH20 0xFFFFFFFFFFFFFFFFFFFFFFFFFFFFFFFFFFFFFFFF AND DUP4 PUSH20 0xFFFFFFFFFFFFFFFFFFFFFFFFFFFFFFFFFFFFFFFF AND SUB PUSH2 0x38A3 JUMPI DUP1 PUSH1 0x40 MLOAD PUSH32 0x7E27328900000000000000000000000000000000000000000000000000000000 DUP2 MSTORE PUSH1 0x4 ADD PUSH2 0x389A SWAP2 SWAP1 PUSH2 0x43BE JUMP JUMPDEST PUSH1 0x40 MLOAD DUP1 SWAP2 SUB SWAP1 REVERT JUMPDEST DUP2 DUP2 PUSH1 0x40 MLOAD PUSH32 0x177E802F00000000000000000000000000000000000000000000000000000000 DUP2 MSTORE PUSH1 0x4 ADD PUSH2 0x38D9 SWAP3 SWAP2 SWAP1 PUSH2 0x51E9 JUMP JUMPDEST PUSH1 0x40 MLOAD DUP1 SWAP2 SUB SWAP1 REVERT JUMPDEST POP POP POP JUMP JUMPDEST PUSH2 0x38F1 DUP4 DUP4 PUSH2 0x3ADA JUMP JUMPDEST PUSH2 0x3906 PUSH2 0x38FC PUSH2 0x2C03 JUMP JUMPDEST PUSH1 0x0 DUP6 DUP6 DUP6 PUSH2 0x3323 JUMP JUMPDEST POP POP POP JUMP JUMPDEST PUSH1 0x60 PUSH1 0x0 PUSH1 0x1 PUSH2 0x391A DUP5 PUSH2 0x3BD3 JUMP JUMPDEST ADD SWAP1 POP PUSH1 0x0 DUP2 PUSH8 0xFFFFFFFFFFFFFFFF DUP2 GT ISZERO PUSH2 0x3939 JUMPI PUSH2 0x3938 PUSH2 0x409B JUMP JUMPDEST JUMPDEST PUSH1 0x40 MLOAD SWAP1 DUP1 DUP3 MSTORE DUP1 PUSH1 0x1F ADD PUSH1 0x1F NOT AND PUSH1 0x20 ADD DUP3 ADD PUSH1 0x40 MSTORE DUP1 ISZERO PUSH2 0x396B JUMPI DUP2 PUSH1 0x20 ADD PUSH1 0x1 DUP3 MUL DUP1 CALLDATASIZE DUP4 CALLDATACOPY DUP1 DUP3 ADD SWAP2 POP POP SWAP1 POP JUMPDEST POP SWAP1 POP PUSH1 0x0 DUP3 PUSH1 0x20 ADD DUP3 ADD SWAP1 POP JUMPDEST PUSH1 0x1 ISZERO PUSH2 0x39CE JUMPI DUP1 DUP1 PUSH1 0x1 SWAP1 SUB SWAP2 POP POP PUSH32 0x3031323334353637383961626364656600000000000000000000000000000000 PUSH1 0xA DUP7 MOD BYTE DUP2 MSTORE8 PUSH1 0xA DUP6 DUP2 PUSH2 0x39C2 JUMPI PUSH2 0x39C1 PUSH2 0x48B2 JUMP JUMPDEST JUMPDEST DIV SWAP5 POP PUSH1 0x0 DUP6 SUB PUSH2 0x3979 JUMPI JUMPDEST DUP2 SWAP4 POP POP POP POP SWAP2 SWAP1 POP JUMP JUMPDEST PUSH2 0x39E1 PUSH2 0x1C79 JUMP JUMPDEST PUSH2 0x3A17 JUMPI PUSH1 0x40 MLOAD PUSH32 0x8DFC202B00000000000000000000000000000000000000000000000000000000 DUP2 MSTORE PUSH1 0x4 ADD PUSH1 0x40 MLOAD DUP1 SWAP2 SUB SWAP1 REVERT JUMPDEST JUMP JUMPDEST PUSH1 0x0 DUP1 PUSH20 0xFFFFFFFFFFFFFFFFFFFFFFFFFFFFFFFFFFFFFFFF AND DUP4 PUSH20 0xFFFFFFFFFFFFFFFFFFFFFFFFFFFFFFFFFFFFFFFF AND EQ ISZERO DUP1 ISZERO PUSH2 0x3AD1 JUMPI POP DUP3 PUSH20 0xFFFFFFFFFFFFFFFFFFFFFFFFFFFFFFFFFFFFFFFF AND DUP5 PUSH20 0xFFFFFFFFFFFFFFFFFFFFFFFFFFFFFFFFFFFFFFFF AND EQ DUP1 PUSH2 0x3A92 JUMPI POP PUSH2 0x3A91 DUP5 DUP5 PUSH2 0x292A JUMP JUMPDEST JUMPDEST DUP1 PUSH2 0x3AD0 JUMPI POP DUP3 PUSH20 0xFFFFFFFFFFFFFFFFFFFFFFFFFFFFFFFFFFFFFFFF AND PUSH2 0x3AB8 DUP4 PUSH2 0x2BC6 JUMP JUMPDEST PUSH20 0xFFFFFFFFFFFFFFFFFFFFFFFFFFFFFFFFFFFFFFFF AND EQ JUMPDEST JUMPDEST SWAP1 POP SWAP4 SWAP3 POP POP POP JUMP JUMPDEST PUSH1 0x0 PUSH20 0xFFFFFFFFFFFFFFFFFFFFFFFFFFFFFFFFFFFFFFFF AND DUP3 PUSH20 0xFFFFFFFFFFFFFFFFFFFFFFFFFFFFFFFFFFFFFFFF AND SUB PUSH2 0x3B4C JUMPI PUSH1 0x0 PUSH1 0x40 MLOAD PUSH32 0x64A0AE9200000000000000000000000000000000000000000000000000000000 DUP2 MSTORE PUSH1 0x4 ADD PUSH2 0x3B43 SWAP2 SWAP1 PUSH2 0x3F4B JUMP JUMPDEST PUSH1 0x40 MLOAD DUP1 SWAP2 SUB SWAP1 REVERT JUMPDEST PUSH1 0x0 PUSH2 0x3B5A DUP4 DUP4 PUSH1 0x0 PUSH2 0x2DCE JUMP JUMPDEST SWAP1 POP PUSH1 0x0 PUSH20 0xFFFFFFFFFFFFFFFFFFFFFFFFFFFFFFFFFFFFFFFF AND DUP2 PUSH20 0xFFFFFFFFFFFFFFFFFFFFFFFFFFFFFFFFFFFFFFFF AND EQ PUSH2 0x3BCE JUMPI PUSH1 0x0 PUSH1 0x40 MLOAD PUSH32 0x73C6AC6E00000000000000000000000000000000000000000000000000000000 DUP2 MSTORE PUSH1 0x4 ADD PUSH2 0x3BC5 SWAP2 SWAP1 PUSH2 0x3F4B JUMP JUMPDEST PUSH1 0x40 MLOAD DUP1 SWAP2 SUB SWAP1 REVERT JUMPDEST POP POP POP JUMP JUMPDEST PUSH1 0x0 DUP1 PUSH1 0x0 SWAP1 POP PUSH27 0x184F03E93FF9F4DAA797ED6E38ED64BF6A1F010000000000000000 DUP4 LT PUSH2 0x3C31 JUMPI PUSH27 0x184F03E93FF9F4DAA797ED6E38ED64BF6A1F010000000000000000 DUP4 DUP2 PUSH2 0x3C27 JUMPI PUSH2 0x3C26 PUSH2 0x48B2 JUMP JUMPDEST JUMPDEST DIV SWAP3 POP PUSH1 0x40 DUP2 ADD SWAP1 POP JUMPDEST PUSH14 0x4EE2D6D415B85ACEF8100000000 DUP4 LT PUSH2 0x3C6E JUMPI PUSH14 0x4EE2D6D415B85ACEF8100000000 DUP4 DUP2 PUSH2 0x3C64 JUMPI PUSH2 0x3C63 PUSH2 0x48B2 JUMP JUMPDEST JUMPDEST DIV SWAP3 POP PUSH1 0x20 DUP2 ADD SWAP1 POP JUMPDEST PUSH7 0x2386F26FC10000 DUP4 LT PUSH2 0x3C9D JUMPI PUSH7 0x2386F26FC10000 DUP4 DUP2 PUSH2 0x3C93 JUMPI PUSH2 0x3C92 PUSH2 0x48B2 JUMP JUMPDEST JUMPDEST DIV SWAP3 POP PUSH1 0x10 DUP2 ADD SWAP1 POP JUMPDEST PUSH4 0x5F5E100 DUP4 LT PUSH2 0x3CC6 JUMPI PUSH4 0x5F5E100 DUP4 DUP2 PUSH2 0x3CBC JUMPI PUSH2 0x3CBB PUSH2 0x48B2 JUMP JUMPDEST JUMPDEST DIV SWAP3 POP PUSH1 0x8 DUP2 ADD SWAP1 POP JUMPDEST PUSH2 0x2710 DUP4 LT PUSH2 0x3CEB JUMPI PUSH2 0x2710 DUP4 DUP2 PUSH2 0x3CE1 JUMPI PUSH2 0x3CE0 PUSH2 0x48B2 JUMP JUMPDEST JUMPDEST DIV SWAP3 POP PUSH1 0x4 DUP2 ADD SWAP1 POP JUMPDEST PUSH1 0x64 DUP4 LT PUSH2 0x3D0E JUMPI PUSH1 0x64 DUP4 DUP2 PUSH2 0x3D04 JUMPI PUSH2 0x3D03 PUSH2 0x48B2 JUMP JUMPDEST JUMPDEST DIV SWAP3 POP PUSH1 0x2 DUP2 ADD SWAP1 POP JUMPDEST PUSH1 0xA DUP4 LT PUSH2 0x3D1D JUMPI PUSH1 0x1 DUP2 ADD SWAP1 POP JUMPDEST DUP1 SWAP2 POP POP SWAP2 SWAP1 POP JUMP JUMPDEST PUSH1 0x0 PUSH1 0x40 MLOAD SWAP1 POP SWAP1 JUMP JUMPDEST PUSH1 0x0 DUP1 REVERT JUMPDEST PUSH1 0x0 DUP1 REVERT JUMPDEST PUSH1 0x0 PUSH32 0xFFFFFFFF00000000000000000000000000000000000000000000000000000000 DUP3 AND SWAP1 POP SWAP2 SWAP1 POP JUMP JUMPDEST PUSH2 0x3D6F DUP2 PUSH2 0x3D3A JUMP JUMPDEST DUP2 EQ PUSH2 0x3D7A JUMPI PUSH1 0x0 DUP1 REVERT JUMPDEST POP JUMP JUMPDEST PUSH1 0x0 DUP2 CALLDATALOAD SWAP1 POP PUSH2 0x3D8C DUP2 PUSH2 0x3D66 JUMP JUMPDEST SWAP3 SWAP2 POP POP JUMP JUMPDEST PUSH1 0x0 PUSH1 0x20 DUP3 DUP5 SUB SLT ISZERO PUSH2 0x3DA8 JUMPI PUSH2 0x3DA7 PUSH2 0x3D30 JUMP JUMPDEST JUMPDEST PUSH1 0x0 PUSH2 0x3DB6 DUP5 DUP3 DUP6 ADD PUSH2 0x3D7D JUMP JUMPDEST SWAP2 POP POP SWAP3 SWAP2 POP POP JUMP JUMPDEST PUSH1 0x0 DUP2 ISZERO ISZERO SWAP1 POP SWAP2 SWAP1 POP JUMP JUMPDEST PUSH2 0x3DD4 DUP2 PUSH2 0x3DBF JUMP JUMPDEST DUP3 MSTORE POP POP JUMP JUMPDEST PUSH1 0x0 PUSH1 0x20 DUP3 ADD SWAP1 POP PUSH2 0x3DEF PUSH1 0x0 DUP4 ADD DUP5 PUSH2 0x3DCB JUMP JUMPDEST SWAP3 SWAP2 POP POP JUMP JUMPDEST PUSH1 0x0 DUP2 MLOAD SWAP1 POP SWAP2 SWAP1 POP JUMP JUMPDEST PUSH1 0x0 DUP3 DUP3 MSTORE PUSH1 0x20 DUP3 ADD SWAP1 POP SWAP3 SWAP2 POP POP JUMP JUMPDEST PUSH1 0x0 JUMPDEST DUP4 DUP2 LT ISZERO PUSH2 0x3E2F JUMPI DUP1 DUP3 ADD MLOAD DUP2 DUP5 ADD MSTORE PUSH1 0x20 DUP2 ADD SWAP1 POP PUSH2 0x3E14 JUMP JUMPDEST PUSH1 0x0 DUP5 DUP5 ADD MSTORE POP POP POP POP JUMP JUMPDEST PUSH1 0x0 PUSH1 0x1F NOT PUSH1 0x1F DUP4 ADD AND SWAP1 POP SWAP2 SWAP1 POP JUMP JUMPDEST PUSH1 0x0 PUSH2 0x3E57 DUP3 PUSH2 0x3DF5 JUMP JUMPDEST PUSH2 0x3E61 DUP2 DUP6 PUSH2 0x3E00 JUMP JUMPDEST SWAP4 POP PUSH2 0x3E71 DUP2 DUP6 PUSH1 0x20 DUP7 ADD PUSH2 0x3E11 JUMP JUMPDEST PUSH2 0x3E7A DUP2 PUSH2 0x3E3B JUMP JUMPDEST DUP5 ADD SWAP2 POP POP SWAP3 SWAP2 POP POP JUMP JUMPDEST PUSH1 0x0 PUSH1 0x20 DUP3 ADD SWAP1 POP DUP2 DUP2 SUB PUSH1 0x0 DUP4 ADD MSTORE PUSH2 0x3E9F DUP2 DUP5 PUSH2 0x3E4C JUMP JUMPDEST SWAP1 POP SWAP3 SWAP2 POP POP JUMP JUMPDEST PUSH1 0x0 DUP2 SWAP1 POP SWAP2 SWAP1 POP JUMP JUMPDEST PUSH2 0x3EBA DUP2 PUSH2 0x3EA7 JUMP JUMPDEST DUP2 EQ PUSH2 0x3EC5 JUMPI PUSH1 0x0 DUP1 REVERT JUMPDEST POP JUMP JUMPDEST PUSH1 0x0 DUP2 CALLDATALOAD SWAP1 POP PUSH2 0x3ED7 DUP2 PUSH2 0x3EB1 JUMP JUMPDEST SWAP3 SWAP2 POP POP JUMP JUMPDEST PUSH1 0x0 PUSH1 0x20 DUP3 DUP5 SUB SLT ISZERO PUSH2 0x3EF3 JUMPI PUSH2 0x3EF2 PUSH2 0x3D30 JUMP JUMPDEST JUMPDEST PUSH1 0x0 PUSH2 0x3F01 DUP5 DUP3 DUP6 ADD PUSH2 0x3EC8 JUMP JUMPDEST SWAP2 POP POP SWAP3 SWAP2 POP POP JUMP JUMPDEST PUSH1 0x0 PUSH20 0xFFFFFFFFFFFFFFFFFFFFFFFFFFFFFFFFFFFFFFFF DUP3 AND SWAP1 POP SWAP2 SWAP1 POP JUMP JUMPDEST PUSH1 0x0 PUSH2 0x3F35 DUP3 PUSH2 0x3F0A JUMP JUMPDEST SWAP1 POP SWAP2 SWAP1 POP JUMP JUMPDEST PUSH2 0x3F45 DUP2 PUSH2 0x3F2A JUMP JUMPDEST DUP3 MSTORE POP POP JUMP JUMPDEST PUSH1 0x0 PUSH1 0x20 DUP3 ADD SWAP1 POP PUSH2 0x3F60 PUSH1 0x0 DUP4 ADD DUP5 PUSH2 0x3F3C JUMP JUMPDEST SWAP3 SWAP2 POP POP JUMP JUMPDEST PUSH2 0x3F6F DUP2 PUSH2 0x3F2A JUMP JUMPDEST DUP2 EQ PUSH2 0x3F7A JUMPI PUSH1 0x0 DUP1 REVERT JUMPDEST POP JUMP JUMPDEST PUSH1 0x0 DUP2 CALLDATALOAD SWAP1 POP PUSH2 0x3F8C DUP2 PUSH2 0x3F66 JUMP JUMPDEST SWAP3 SWAP2 POP POP JUMP JUMPDEST PUSH1 0x0 DUP1 PUSH1 0x40 DUP4 DUP6 SUB SLT ISZERO PUSH2 0x3FA9 JUMPI PUSH2 0x3FA8 PUSH2 0x3D30 JUMP JUMPDEST JUMPDEST PUSH1 0x0 PUSH2 0x3FB7 DUP6 DUP3 DUP7 ADD PUSH2 0x3F7D JUMP JUMPDEST SWAP3 POP POP PUSH1 0x20 PUSH2 0x3FC8 DUP6 DUP3 DUP7 ADD PUSH2 0x3EC8 JUMP JUMPDEST SWAP2 POP POP SWAP3 POP SWAP3 SWAP1 POP JUMP JUMPDEST PUSH2 0x3FDB DUP2 PUSH2 0x3EA7 JUMP JUMPDEST DUP3 MSTORE POP POP JUMP JUMPDEST PUSH1 0x0 PUSH2 0x120 DUP3 ADD SWAP1 POP DUP2 DUP2 SUB PUSH1 0x0 DUP4 ADD MSTORE PUSH2 0x3FFC DUP2 DUP13 PUSH2 0x3E4C JUMP JUMPDEST SWAP1 POP DUP2 DUP2 SUB PUSH1 0x20 DUP4 ADD MSTORE PUSH2 0x4010 DUP2 DUP12 PUSH2 0x3E4C JUMP JUMPDEST SWAP1 POP DUP2 DUP2 SUB PUSH1 0x40 DUP4 ADD MSTORE PUSH2 0x4024 DUP2 DUP11 PUSH2 0x3E4C JUMP JUMPDEST SWAP1 POP DUP2 DUP2 SUB PUSH1 0x60 DUP4 ADD MSTORE PUSH2 0x4038 DUP2 DUP10 PUSH2 0x3E4C JUMP JUMPDEST SWAP1 POP DUP2 DUP2 SUB PUSH1 0x80 DUP4 ADD MSTORE PUSH2 0x404C DUP2 DUP9 PUSH2 0x3E4C JUMP JUMPDEST SWAP1 POP PUSH2 0x405B PUSH1 0xA0 DUP4 ADD DUP8 PUSH2 0x3FD2 JUMP JUMPDEST PUSH2 0x4068 PUSH1 0xC0 DUP4 ADD DUP7 PUSH2 0x3FD2 JUMP JUMPDEST PUSH2 0x4075 PUSH1 0xE0 DUP4 ADD DUP6 PUSH2 0x3FD2 JUMP JUMPDEST PUSH2 0x4083 PUSH2 0x100 DUP4 ADD DUP5 PUSH2 0x3F3C JUMP JUMPDEST SWAP11 SWAP10 POP POP POP POP POP POP POP POP POP POP JUMP JUMPDEST PUSH1 0x0 DUP1 REVERT JUMPDEST PUSH1 0x0 DUP1 REVERT JUMPDEST PUSH32 0x4E487B7100000000000000000000000000000000000000000000000000000000 PUSH1 0x0 MSTORE PUSH1 0x41 PUSH1 0x4 MSTORE PUSH1 0x24 PUSH1 0x0 REVERT JUMPDEST PUSH2 0x40D3 DUP3 PUSH2 0x3E3B JUMP JUMPDEST DUP2 ADD DUP2 DUP2 LT PUSH8 0xFFFFFFFFFFFFFFFF DUP3 GT OR ISZERO PUSH2 0x40F2 JUMPI PUSH2 0x40F1 PUSH2 0x409B JUMP JUMPDEST JUMPDEST DUP1 PUSH1 0x40 MSTORE POP POP POP JUMP JUMPDEST PUSH1 0x0 PUSH2 0x4105 PUSH2 0x3D26 JUMP JUMPDEST SWAP1 POP PUSH2 0x4111 DUP3 DUP3 PUSH2 0x40CA JUMP JUMPDEST SWAP2 SWAP1 POP JUMP JUMPDEST PUSH1 0x0 PUSH8 0xFFFFFFFFFFFFFFFF DUP3 GT ISZERO PUSH2 0x4131 JUMPI PUSH2 0x4130 PUSH2 0x409B JUMP JUMPDEST JUMPDEST PUSH2 0x413A DUP3 PUSH2 0x3E3B JUMP JUMPDEST SWAP1 POP PUSH1 0x20 DUP2 ADD SWAP1 POP SWAP2 SWAP1 POP JUMP JUMPDEST DUP3 DUP2 DUP4 CALLDATACOPY PUSH1 0x0 DUP4 DUP4 ADD MSTORE POP POP POP JUMP JUMPDEST PUSH1 0x0 PUSH2 0x4169 PUSH2 0x4164 DUP5 PUSH2 0x4116 JUMP JUMPDEST PUSH2 0x40FB JUMP JUMPDEST SWAP1 POP DUP3 DUP2 MSTORE PUSH1 0x20 DUP2 ADD DUP5 DUP5 DUP5 ADD GT ISZERO PUSH2 0x4185 JUMPI PUSH2 0x4184 PUSH2 0x4096 JUMP JUMPDEST JUMPDEST PUSH2 0x4190 DUP5 DUP3 DUP6 PUSH2 0x4147 JUMP JUMPDEST POP SWAP4 SWAP3 POP POP POP JUMP JUMPDEST PUSH1 0x0 DUP3 PUSH1 0x1F DUP4 ADD SLT PUSH2 0x41AD JUMPI PUSH2 0x41AC PUSH2 0x4091 JUMP JUMPDEST JUMPDEST DUP2 CALLDATALOAD PUSH2 0x41BD DUP5 DUP3 PUSH1 0x20 DUP7 ADD PUSH2 0x4156 JUMP JUMPDEST SWAP2 POP POP SWAP3 SWAP2 POP POP JUMP JUMPDEST PUSH1 0x0 DUP1 PUSH1 0x0 DUP1 PUSH1 0x0 DUP1 PUSH1 0x0 PUSH1 0xE0 DUP9 DUP11 SUB SLT ISZERO PUSH2 0x41E5 JUMPI PUSH2 0x41E4 PUSH2 0x3D30 JUMP JUMPDEST JUMPDEST PUSH1 0x0 DUP9 ADD CALLDATALOAD PUSH8 0xFFFFFFFFFFFFFFFF DUP2 GT ISZERO PUSH2 0x4203 JUMPI PUSH2 0x4202 PUSH2 0x3D35 JUMP JUMPDEST JUMPDEST PUSH2 0x420F DUP11 DUP3 DUP12 ADD PUSH2 0x4198 JUMP JUMPDEST SWAP8 POP POP PUSH1 0x20 DUP9 ADD CALLDATALOAD PUSH8 0xFFFFFFFFFFFFFFFF DUP2 GT ISZERO PUSH2 0x4230 JUMPI PUSH2 0x422F PUSH2 0x3D35 JUMP JUMPDEST JUMPDEST PUSH2 0x423C DUP11 DUP3 DUP12 ADD PUSH2 0x4198 JUMP JUMPDEST SWAP7 POP POP PUSH1 0x40 DUP9 ADD CALLDATALOAD PUSH8 0xFFFFFFFFFFFFFFFF DUP2 GT ISZERO PUSH2 0x425D JUMPI PUSH2 0x425C PUSH2 0x3D35 JUMP JUMPDEST JUMPDEST PUSH2 0x4269 DUP11 DUP3 DUP12 ADD PUSH2 0x4198 JUMP JUMPDEST SWAP6 POP POP PUSH1 0x60 DUP9 ADD CALLDATALOAD PUSH8 0xFFFFFFFFFFFFFFFF DUP2 GT ISZERO PUSH2 0x428A JUMPI PUSH2 0x4289 PUSH2 0x3D35 JUMP JUMPDEST JUMPDEST PUSH2 0x4296 DUP11 DUP3 DUP12 ADD PUSH2 0x4198 JUMP JUMPDEST SWAP5 POP POP PUSH1 0x80 DUP9 ADD CALLDATALOAD PUSH8 0xFFFFFFFFFFFFFFFF DUP2 GT ISZERO PUSH2 0x42B7 JUMPI PUSH2 0x42B6 PUSH2 0x3D35 JUMP JUMPDEST JUMPDEST PUSH2 0x42C3 DUP11 DUP3 DUP12 ADD PUSH2 0x4198 JUMP JUMPDEST SWAP4 POP POP PUSH1 0xA0 PUSH2 0x42D4 DUP11 DUP3 DUP12 ADD PUSH2 0x3EC8 JUMP JUMPDEST SWAP3 POP POP PUSH1 0xC0 PUSH2 0x42E5 DUP11 DUP3 DUP12 ADD PUSH2 0x3EC8 JUMP JUMPDEST SWAP2 POP POP SWAP3 SWAP6 SWAP9 SWAP2 SWAP5 SWAP8 POP SWAP3 SWAP6 POP JUMP JUMPDEST PUSH1 0x0 DUP1 PUSH1 0x0 PUSH1 0x60 DUP5 DUP7 SUB SLT ISZERO PUSH2 0x430D JUMPI PUSH2 0x430C PUSH2 0x3D30 JUMP JUMPDEST JUMPDEST PUSH1 0x0 PUSH2 0x431B DUP7 DUP3 DUP8 ADD PUSH2 0x3F7D JUMP JUMPDEST SWAP4 POP POP PUSH1 0x20 PUSH2 0x432C DUP7 DUP3 DUP8 ADD PUSH2 0x3F7D JUMP JUMPDEST SWAP3 POP POP PUSH1 0x40 PUSH2 0x433D DUP7 DUP3 DUP8 ADD PUSH2 0x3EC8 JUMP JUMPDEST SWAP2 POP POP SWAP3 POP SWAP3 POP SWAP3 JUMP JUMPDEST PUSH1 0x0 DUP1 PUSH1 0x40 DUP4 DUP6 SUB SLT ISZERO PUSH2 0x435E JUMPI PUSH2 0x435D PUSH2 0x3D30 JUMP JUMPDEST JUMPDEST PUSH1 0x0 PUSH2 0x436C DUP6 DUP3 DUP7 ADD PUSH2 0x3EC8 JUMP JUMPDEST SWAP3 POP POP PUSH1 0x20 PUSH2 0x437D DUP6 DUP3 DUP7 ADD PUSH2 0x3EC8 JUMP JUMPDEST SWAP2 POP POP SWAP3 POP SWAP3 SWAP1 POP JUMP JUMPDEST PUSH1 0x0 PUSH1 0x60 DUP3 ADD SWAP1 POP PUSH2 0x439C PUSH1 0x0 DUP4 ADD DUP7 PUSH2 0x3FD2 JUMP JUMPDEST PUSH2 0x43A9 PUSH1 0x20 DUP4 ADD DUP6 PUSH2 0x3FD2 JUMP JUMPDEST PUSH2 0x43B6 PUSH1 0x40 DUP4 ADD DUP5 PUSH2 0x3FD2 JUMP JUMPDEST SWAP5 SWAP4 POP POP POP POP JUMP JUMPDEST PUSH1 0x0 PUSH1 0x20 DUP3 ADD SWAP1 POP PUSH2 0x43D3 PUSH1 0x0 DUP4 ADD DUP5 PUSH2 0x3FD2 JUMP JUMPDEST SWAP3 SWAP2 POP POP JUMP JUMPDEST PUSH1 0x0 DUP1 PUSH1 0x40 DUP4 DUP6 SUB SLT ISZERO PUSH2 0x43F0 JUMPI PUSH2 0x43EF PUSH2 0x3D30 JUMP JUMPDEST JUMPDEST PUSH1 0x0 PUSH2 0x43FE DUP6 DUP3 DUP7 ADD PUSH2 0x3EC8 JUMP JUMPDEST SWAP3 POP POP PUSH1 0x20 PUSH2 0x440F DUP6 DUP3 DUP7 ADD PUSH2 0x3F7D JUMP JUMPDEST SWAP2 POP POP SWAP3 POP SWAP3 SWAP1 POP JUMP JUMPDEST PUSH1 0x0 PUSH1 0x20 DUP3 DUP5 SUB SLT ISZERO PUSH2 0x442F JUMPI PUSH2 0x442E PUSH2 0x3D30 JUMP JUMPDEST JUMPDEST PUSH1 0x0 PUSH2 0x443D DUP5 DUP3 DUP6 ADD PUSH2 0x3F7D JUMP JUMPDEST SWAP2 POP POP SWAP3 SWAP2 POP POP JUMP JUMPDEST PUSH1 0x0 DUP2 SWAP1 POP SWAP2 SWAP1 POP JUMP JUMPDEST PUSH1 0x0 PUSH2 0x446B PUSH2 0x4466 PUSH2 0x4461 DUP5 PUSH2 0x3F0A JUMP JUMPDEST PUSH2 0x4446 JUMP JUMPDEST PUSH2 0x3F0A JUMP JUMPDEST SWAP1 POP SWAP2 SWAP1 POP JUMP JUMPDEST PUSH1 0x0 PUSH2 0x447D DUP3 PUSH2 0x4450 JUMP JUMPDEST SWAP1 POP SWAP2 SWAP1 POP JUMP JUMPDEST PUSH1 0x0 PUSH2 0x448F DUP3 PUSH2 0x4472 JUMP JUMPDEST SWAP1 POP SWAP2 SWAP1 POP JUMP JUMPDEST PUSH2 0x449F DUP2 PUSH2 0x4484 JUMP JUMPDEST DUP3 MSTORE POP POP JUMP JUMPDEST PUSH1 0x0 PUSH1 0x20 DUP3 ADD SWAP1 POP PUSH2 0x44BA PUSH1 0x0 DUP4 ADD DUP5 PUSH2 0x4496 JUMP JUMPDEST SWAP3 SWAP2 POP POP JUMP JUMPDEST PUSH2 0x44C9 DUP2 PUSH2 0x3DBF JUMP JUMPDEST DUP2 EQ PUSH2 0x44D4 JUMPI PUSH1 0x0 DUP1 REVERT JUMPDEST POP JUMP JUMPDEST PUSH1 0x0 DUP2 CALLDATALOAD SWAP1 POP PUSH2 0x44E6 DUP2 PUSH2 0x44C0 JUMP JUMPDEST SWAP3 SWAP2 POP POP JUMP JUMPDEST PUSH1 0x0 DUP1 PUSH1 0x40 DUP4 DUP6 SUB SLT ISZERO PUSH2 0x4503 JUMPI PUSH2 0x4502 PUSH2 0x3D30 JUMP JUMPDEST JUMPDEST PUSH1 0x0 PUSH2 0x4511 DUP6 DUP3 DUP7 ADD PUSH2 0x3F7D JUMP JUMPDEST SWAP3 POP POP PUSH1 0x20 PUSH2 0x4522 DUP6 DUP3 DUP7 ADD PUSH2 0x44D7 JUMP JUMPDEST SWAP2 POP POP SWAP3 POP SWAP3 SWAP1 POP JUMP JUMPDEST PUSH1 0x0 PUSH8 0xFFFFFFFFFFFFFFFF DUP3 GT ISZERO PUSH2 0x4547 JUMPI PUSH2 0x4546 PUSH2 0x409B JUMP JUMPDEST JUMPDEST PUSH2 0x4550 DUP3 PUSH2 0x3E3B JUMP JUMPDEST SWAP1 POP PUSH1 0x20 DUP2 ADD SWAP1 POP SWAP2 SWAP1 POP JUMP JUMPDEST PUSH1 0x0 PUSH2 0x4570 PUSH2 0x456B DUP5 PUSH2 0x452C JUMP JUMPDEST PUSH2 0x40FB JUMP JUMPDEST SWAP1 POP DUP3 DUP2 MSTORE PUSH1 0x20 DUP2 ADD DUP5 DUP5 DUP5 ADD GT ISZERO PUSH2 0x458C JUMPI PUSH2 0x458B PUSH2 0x4096 JUMP JUMPDEST JUMPDEST PUSH2 0x4597 DUP5 DUP3 DUP6 PUSH2 0x4147 JUMP JUMPDEST POP SWAP4 SWAP3 POP POP POP JUMP JUMPDEST PUSH1 0x0 DUP3 PUSH1 0x1F DUP4 ADD SLT PUSH2 0x45B4 JUMPI PUSH2 0x45B3 PUSH2 0x4091 JUMP JUMPDEST JUMPDEST DUP2 CALLDATALOAD PUSH2 0x45C4 DUP5 DUP3 PUSH1 0x20 DUP7 ADD PUSH2 0x455D JUMP JUMPDEST SWAP2 POP POP SWAP3 SWAP2 POP POP JUMP JUMPDEST PUSH1 0x0 DUP1 PUSH1 0x0 DUP1 PUSH1 0x80 DUP6 DUP8 SUB SLT ISZERO PUSH2 0x45E7 JUMPI PUSH2 0x45E6 PUSH2 0x3D30 JUMP JUMPDEST JUMPDEST PUSH1 0x0 PUSH2 0x45F5 DUP8 DUP3 DUP9 ADD PUSH2 0x3F7D JUMP JUMPDEST SWAP5 POP POP PUSH1 0x20 PUSH2 0x4606 DUP8 DUP3 DUP9 ADD PUSH2 0x3F7D JUMP JUMPDEST SWAP4 POP POP PUSH1 0x40 PUSH2 0x4617 DUP8 DUP3 DUP9 ADD PUSH2 0x3EC8 JUMP JUMPDEST SWAP3 POP POP PUSH1 0x60 DUP6 ADD CALLDATALOAD PUSH8 0xFFFFFFFFFFFFFFFF DUP2 GT ISZERO PUSH2 0x4638 JUMPI PUSH2 0x4637 PUSH2 0x3D35 JUMP JUMPDEST JUMPDEST PUSH2 0x4644 DUP8 DUP3 DUP9 ADD PUSH2 0x459F JUMP JUMPDEST SWAP2 POP POP SWAP3 SWAP6 SWAP2 SWAP5 POP SWAP3 POP JUMP JUMPDEST PUSH1 0x0 DUP1 PUSH1 0x40 DUP4 DUP6 SUB SLT ISZERO PUSH2 0x4667 JUMPI PUSH2 0x4666 PUSH2 0x3D30 JUMP JUMPDEST JUMPDEST PUSH1 0x0 PUSH2 0x4675 DUP6 DUP3 DUP7 ADD PUSH2 0x3F7D JUMP JUMPDEST SWAP3 POP POP PUSH1 0x20 PUSH2 0x4686 DUP6 DUP3 DUP7 ADD PUSH2 0x3F7D JUMP JUMPDEST SWAP2 POP POP SWAP3 POP SWAP3 SWAP1 POP JUMP JUMPDEST PUSH32 0x4E487B7100000000000000000000000000000000000000000000000000000000 PUSH1 0x0 MSTORE PUSH1 0x22 PUSH1 0x4 MSTORE PUSH1 0x24 PUSH1 0x0 REVERT JUMPDEST PUSH1 0x0 PUSH1 0x2 DUP3 DIV SWAP1 POP PUSH1 0x1 DUP3 AND DUP1 PUSH2 0x46D7 JUMPI PUSH1 0x7F DUP3 AND SWAP2 POP JUMPDEST PUSH1 0x20 DUP3 LT DUP2 SUB PUSH2 0x46EA JUMPI PUSH2 0x46E9 PUSH2 0x4690 JUMP JUMPDEST JUMPDEST POP SWAP2 SWAP1 POP JUMP JUMPDEST PUSH32 0x5469636B6574206E6F74206C697374656420666F7220726573616C6500000000 PUSH1 0x0 DUP3 ADD MSTORE POP JUMP JUMPDEST PUSH1 0x0 PUSH2 0x4726 PUSH1 0x1C DUP4 PUSH2 0x3E00 JUMP JUMPDEST SWAP2 POP PUSH2 0x4731 DUP3 PUSH2 0x46F0 JUMP JUMPDEST PUSH1 0x20 DUP3 ADD SWAP1 POP SWAP2 SWAP1 POP JUMP JUMPDEST PUSH1 0x0 PUSH1 0x20 DUP3 ADD SWAP1 POP DUP2 DUP2 SUB PUSH1 0x0 DUP4 ADD MSTORE PUSH2 0x4755 DUP2 PUSH2 0x4719 JUMP JUMPDEST SWAP1 POP SWAP2 SWAP1 POP JUMP JUMPDEST PUSH1 0x0 PUSH1 0x60 DUP3 ADD SWAP1 POP PUSH2 0x4771 PUSH1 0x0 DUP4 ADD DUP7 PUSH2 0x3F3C JUMP JUMPDEST PUSH2 0x477E PUSH1 0x20 DUP4 ADD DUP6 PUSH2 0x3F3C JUMP JUMPDEST PUSH2 0x478B PUSH1 0x40 DUP4 ADD DUP5 PUSH2 0x3FD2 JUMP JUMPDEST SWAP5 SWAP4 POP POP POP POP JUMP JUMPDEST PUSH1 0x0 DUP2 MLOAD SWAP1 POP PUSH2 0x47A2 DUP2 PUSH2 0x44C0 JUMP JUMPDEST SWAP3 SWAP2 POP POP JUMP JUMPDEST PUSH1 0x0 PUSH1 0x20 DUP3 DUP5 SUB SLT ISZERO PUSH2 0x47BE JUMPI PUSH2 0x47BD PUSH2 0x3D30 JUMP JUMPDEST JUMPDEST PUSH1 0x0 PUSH2 0x47CC DUP5 DUP3 DUP6 ADD PUSH2 0x4793 JUMP JUMPDEST SWAP2 POP POP SWAP3 SWAP2 POP POP JUMP JUMPDEST PUSH32 0x5472616E7366657220746F2073656C6C6572206661696C656400000000000000 PUSH1 0x0 DUP3 ADD MSTORE POP JUMP JUMPDEST PUSH1 0x0 PUSH2 0x480B PUSH1 0x19 DUP4 PUSH2 0x3E00 JUMP JUMPDEST SWAP2 POP PUSH2 0x4816 DUP3 PUSH2 0x47D5 JUMP JUMPDEST PUSH1 0x20 DUP3 ADD SWAP1 POP SWAP2 SWAP1 POP JUMP JUMPDEST PUSH1 0x0 PUSH1 0x20 DUP3 ADD SWAP1 POP DUP2 DUP2 SUB PUSH1 0x0 DUP4 ADD MSTORE PUSH2 0x483A DUP2 PUSH2 0x47FE JUMP JUMPDEST SWAP1 POP SWAP2 SWAP1 POP JUMP JUMPDEST PUSH32 0x4E487B7100000000000000000000000000000000000000000000000000000000 PUSH1 0x0 MSTORE PUSH1 0x11 PUSH1 0x4 MSTORE PUSH1 0x24 PUSH1 0x0 REVERT JUMPDEST PUSH1 0x0 PUSH2 0x487B DUP3 PUSH2 0x3EA7 JUMP JUMPDEST SWAP2 POP PUSH2 0x4886 DUP4 PUSH2 0x3EA7 JUMP JUMPDEST SWAP3 POP DUP3 DUP3 MUL PUSH2 0x4894 DUP2 PUSH2 0x3EA7 JUMP JUMPDEST SWAP2 POP DUP3 DUP3 DIV DUP5 EQ DUP4 ISZERO OR PUSH2 0x48AB JUMPI PUSH2 0x48AA PUSH2 0x4841 JUMP JUMPDEST JUMPDEST POP SWAP3 SWAP2 POP POP JUMP JUMPDEST PUSH32 0x4E487B7100000000000000000000000000000000000000000000000000000000 PUSH1 0x0 MSTORE PUSH1 0x12 PUSH1 0x4 MSTORE PUSH1 0x24 PUSH1 0x0 REVERT JUMPDEST PUSH1 0x0 PUSH2 0x48EC DUP3 PUSH2 0x3EA7 JUMP JUMPDEST SWAP2 POP PUSH2 0x48F7 DUP4 PUSH2 0x3EA7 JUMP JUMPDEST SWAP3 POP DUP3 PUSH2 0x4907 JUMPI PUSH2 0x4906 PUSH2 0x48B2 JUMP JUMPDEST JUMPDEST DUP3 DUP3 DIV SWAP1 POP SWAP3 SWAP2 POP POP JUMP JUMPDEST PUSH32 0x5472616E7366657220706C6174666F726D20666565206661696C656400000000 PUSH1 0x0 DUP3 ADD MSTORE POP JUMP JUMPDEST PUSH1 0x0 PUSH2 0x4948 PUSH1 0x1C DUP4 PUSH2 0x3E00 JUMP JUMPDEST SWAP2 POP PUSH2 0x4953 DUP3 PUSH2 0x4912 JUMP JUMPDEST PUSH1 0x20 DUP3 ADD SWAP1 POP SWAP2 SWAP1 POP JUMP JUMPDEST PUSH1 0x0 PUSH1 0x20 DUP3 ADD SWAP1 POP DUP2 DUP2 SUB PUSH1 0x0 DUP4 ADD MSTORE PUSH2 0x4977 DUP2 PUSH2 0x493B JUMP JUMPDEST SWAP1 POP SWAP2 SWAP1 POP JUMP JUMPDEST PUSH32 0x5472616E7366657220726F79616C747920666565206661696C65640000000000 PUSH1 0x0 DUP3 ADD MSTORE POP JUMP JUMPDEST PUSH1 0x0 PUSH2 0x49B4 PUSH1 0x1B DUP4 PUSH2 0x3E00 JUMP JUMPDEST SWAP2 POP PUSH2 0x49BF DUP3 PUSH2 0x497E JUMP JUMPDEST PUSH1 0x20 DUP3 ADD SWAP1 POP SWAP2 SWAP1 POP JUMP JUMPDEST PUSH1 0x0 PUSH1 0x20 DUP3 ADD SWAP1 POP DUP2 DUP2 SUB PUSH1 0x0 DUP4 ADD MSTORE PUSH2 0x49E3 DUP2 PUSH2 0x49A7 JUMP JUMPDEST SWAP1 POP SWAP2 SWAP1 POP JUMP JUMPDEST PUSH1 0x0 PUSH1 0x60 DUP3 ADD SWAP1 POP PUSH2 0x49FF PUSH1 0x0 DUP4 ADD DUP7 PUSH2 0x3FD2 JUMP JUMPDEST PUSH2 0x4A0C PUSH1 0x20 DUP4 ADD DUP6 PUSH2 0x3FD2 JUMP JUMPDEST PUSH2 0x4A19 PUSH1 0x40 DUP4 ADD DUP5 PUSH2 0x3F3C JUMP JUMPDEST SWAP5 SWAP4 POP POP POP POP JUMP JUMPDEST PUSH1 0x0 DUP2 SWAP1 POP DUP2 PUSH1 0x0 MSTORE PUSH1 0x20 PUSH1 0x0 KECCAK256 SWAP1 POP SWAP2 SWAP1 POP JUMP JUMPDEST PUSH1 0x0 PUSH1 0x20 PUSH1 0x1F DUP4 ADD DIV SWAP1 POP SWAP2 SWAP1 POP JUMP JUMPDEST PUSH1 0x0 DUP3 DUP3 SHL SWAP1 POP SWAP3 SWAP2 POP POP JUMP JUMPDEST PUSH1 0x0 PUSH1 0x8 DUP4 MUL PUSH2 0x4A83 PUSH32 0xFFFFFFFFFFFFFFFFFFFFFFFFFFFFFFFFFFFFFFFFFFFFFFFFFFFFFFFFFFFFFFFF DUP3 PUSH2 0x4A46 JUMP JUMPDEST PUSH2 0x4A8D DUP7 DUP4 PUSH2 0x4A46 JUMP JUMPDEST SWAP6 POP DUP1 NOT DUP5 AND SWAP4 POP DUP1 DUP7 AND DUP5 OR SWAP3 POP POP POP SWAP4 SWAP3 POP POP POP JUMP JUMPDEST PUSH1 0x0 PUSH2 0x4AC0 PUSH2 0x4ABB PUSH2 0x4AB6 DUP5 PUSH2 0x3EA7 JUMP JUMPDEST PUSH2 0x4446 JUMP JUMPDEST PUSH2 0x3EA7 JUMP JUMPDEST SWAP1 POP SWAP2 SWAP1 POP JUMP JUMPDEST PUSH1 0x0 DUP2 SWAP1 POP SWAP2 SWAP1 POP JUMP JUMPDEST PUSH2 0x4ADA DUP4 PUSH2 0x4AA5 JUMP JUMPDEST PUSH2 0x4AEE PUSH2 0x4AE6 DUP3 PUSH2 0x4AC7 JUMP JUMPDEST DUP5 DUP5 SLOAD PUSH2 0x4A53 JUMP JUMPDEST DUP3 SSTORE POP POP POP POP JUMP JUMPDEST PUSH1 0x0 SWAP1 JUMP JUMPDEST PUSH2 0x4B03 PUSH2 0x4AF6 JUMP JUMPDEST PUSH2 0x4B0E DUP2 DUP5 DUP5 PUSH2 0x4AD1 JUMP JUMPDEST POP POP POP JUMP JUMPDEST JUMPDEST DUP2 DUP2 LT ISZERO PUSH2 0x4B32 JUMPI PUSH2 0x4B27 PUSH1 0x0 DUP3 PUSH2 0x4AFB JUMP JUMPDEST PUSH1 0x1 DUP2 ADD SWAP1 POP PUSH2 0x4B14 JUMP JUMPDEST POP POP JUMP JUMPDEST PUSH1 0x1F DUP3 GT ISZERO PUSH2 0x4B77 JUMPI PUSH2 0x4B48 DUP2 PUSH2 0x4A21 JUMP JUMPDEST PUSH2 0x4B51 DUP5 PUSH2 0x4A36 JUMP JUMPDEST DUP2 ADD PUSH1 0x20 DUP6 LT ISZERO PUSH2 0x4B60 JUMPI DUP2 SWAP1 POP JUMPDEST PUSH2 0x4B74 PUSH2 0x4B6C DUP6 PUSH2 0x4A36 JUMP JUMPDEST DUP4 ADD DUP3 PUSH2 0x4B13 JUMP JUMPDEST POP POP JUMPDEST POP POP POP JUMP JUMPDEST PUSH1 0x0 DUP3 DUP3 SHR SWAP1 POP SWAP3 SWAP2 POP POP JUMP JUMPDEST PUSH1 0x0 PUSH2 0x4B9A PUSH1 0x0 NOT DUP5 PUSH1 0x8 MUL PUSH2 0x4B7C JUMP JUMPDEST NOT DUP1 DUP4 AND SWAP2 POP POP SWAP3 SWAP2 POP POP JUMP JUMPDEST PUSH1 0x0 PUSH2 0x4BB3 DUP4 DUP4 PUSH2 0x4B89 JUMP JUMPDEST SWAP2 POP DUP3 PUSH1 0x2 MUL DUP3 OR SWAP1 POP SWAP3 SWAP2 POP POP JUMP JUMPDEST PUSH2 0x4BCC DUP3 PUSH2 0x3DF5 JUMP JUMPDEST PUSH8 0xFFFFFFFFFFFFFFFF DUP2 GT ISZERO PUSH2 0x4BE5 JUMPI PUSH2 0x4BE4 PUSH2 0x409B JUMP JUMPDEST JUMPDEST PUSH2 0x4BEF DUP3 SLOAD PUSH2 0x46BF JUMP JUMPDEST PUSH2 0x4BFA DUP3 DUP3 DUP6 PUSH2 0x4B36 JUMP JUMPDEST PUSH1 0x0 PUSH1 0x20 SWAP1 POP PUSH1 0x1F DUP4 GT PUSH1 0x1 DUP2 EQ PUSH2 0x4C2D JUMPI PUSH1 0x0 DUP5 ISZERO PUSH2 0x4C1B JUMPI DUP3 DUP8 ADD MLOAD SWAP1 POP JUMPDEST PUSH2 0x4C25 DUP6 DUP3 PUSH2 0x4BA7 JUMP JUMPDEST DUP7 SSTORE POP PUSH2 0x4C8D JUMP JUMPDEST PUSH1 0x1F NOT DUP5 AND PUSH2 0x4C3B DUP7 PUSH2 0x4A21 JUMP JUMPDEST PUSH1 0x0 JUMPDEST DUP3 DUP2 LT ISZERO PUSH2 0x4C63 JUMPI DUP5 DUP10 ADD MLOAD DUP3 SSTORE PUSH1 0x1 DUP3 ADD SWAP2 POP PUSH1 0x20 DUP6 ADD SWAP5 POP PUSH1 0x20 DUP2 ADD SWAP1 POP PUSH2 0x4C3E JUMP JUMPDEST DUP7 DUP4 LT ISZERO PUSH2 0x4C80 JUMPI DUP5 DUP10 ADD MLOAD PUSH2 0x4C7C PUSH1 0x1F DUP10 AND DUP3 PUSH2 0x4B89 JUMP JUMPDEST DUP4 SSTORE POP JUMPDEST PUSH1 0x1 PUSH1 0x2 DUP9 MUL ADD DUP9 SSTORE POP POP POP JUMPDEST POP POP POP POP POP POP JUMP JUMPDEST PUSH1 0x0 PUSH1 0x60 DUP3 ADD SWAP1 POP PUSH2 0x4CAA PUSH1 0x0 DUP4 ADD DUP7 PUSH2 0x3FD2 JUMP JUMPDEST DUP2 DUP2 SUB PUSH1 0x20 DUP4 ADD MSTORE PUSH2 0x4CBC DUP2 DUP6 PUSH2 0x3E4C JUMP JUMPDEST SWAP1 POP PUSH2 0x4CCB PUSH1 0x40 DUP4 ADD DUP5 PUSH2 0x3FD2 JUMP JUMPDEST SWAP5 SWAP4 POP POP POP POP JUMP JUMPDEST PUSH1 0x0 PUSH2 0x4CDE DUP3 PUSH2 0x3EA7 JUMP JUMPDEST SWAP2 POP PUSH32 0xFFFFFFFFFFFFFFFFFFFFFFFFFFFFFFFFFFFFFFFFFFFFFFFFFFFFFFFFFFFFFFFF DUP3 SUB PUSH2 0x4D10 JUMPI PUSH2 0x4D0F PUSH2 0x4841 JUMP JUMPDEST JUMPDEST PUSH1 0x1 DUP3 ADD SWAP1 POP SWAP2 SWAP1 POP JUMP JUMPDEST PUSH1 0x0 PUSH1 0x60 DUP3 ADD SWAP1 POP PUSH2 0x4D30 PUSH1 0x0 DUP4 ADD DUP7 PUSH2 0x3F3C JUMP JUMPDEST PUSH2 0x4D3D PUSH1 0x20 DUP4 ADD DUP6 PUSH2 0x3FD2 JUMP JUMPDEST PUSH2 0x4D4A PUSH1 0x40 DUP4 ADD DUP5 PUSH2 0x3F3C JUMP JUMPDEST SWAP5 SWAP4 POP POP POP POP JUMP JUMPDEST PUSH32 0x536F6C64206F7574000000000000000000000000000000000000000000000000 PUSH1 0x0 DUP3 ADD MSTORE POP JUMP JUMPDEST PUSH1 0x0 PUSH2 0x4D88 PUSH1 0x8 DUP4 PUSH2 0x3E00 JUMP JUMPDEST SWAP2 POP PUSH2 0x4D93 DUP3 PUSH2 0x4D52 JUMP JUMPDEST PUSH1 0x20 DUP3 ADD SWAP1 POP SWAP2 SWAP1 POP JUMP JUMPDEST PUSH1 0x0 PUSH1 0x20 DUP3 ADD SWAP1 POP DUP2 DUP2 SUB PUSH1 0x0 DUP4 ADD MSTORE PUSH2 0x4DB7 DUP2 PUSH2 0x4D7B JUMP JUMPDEST SWAP1 POP SWAP2 SWAP1 POP JUMP JUMPDEST PUSH32 0x5472616E7366657220746F206F7267616E697A6572206661696C656400000000 PUSH1 0x0 DUP3 ADD MSTORE POP JUMP JUMPDEST PUSH1 0x0 PUSH2 0x4DF4 PUSH1 0x1C DUP4 PUSH2 0x3E00 JUMP JUMPDEST SWAP2 POP PUSH2 0x4DFF DUP3 PUSH2 0x4DBE JUMP JUMPDEST PUSH1 0x20 DUP3 ADD SWAP1 POP SWAP2 SWAP1 POP JUMP JUMPDEST PUSH1 0x0 PUSH1 0x20 DUP3 ADD SWAP1 POP DUP2 DUP2 SUB PUSH1 0x0 DUP4 ADD MSTORE PUSH2 0x4E23 DUP2 PUSH2 0x4DE7 JUMP JUMPDEST SWAP1 POP SWAP2 SWAP1 POP JUMP JUMPDEST PUSH32 0x546F6B656E20646F6573206E6F74206578697374732E00000000000000000000 PUSH1 0x0 DUP3 ADD MSTORE POP JUMP JUMPDEST PUSH1 0x0 PUSH2 0x4E60 PUSH1 0x16 DUP4 PUSH2 0x3E00 JUMP JUMPDEST SWAP2 POP PUSH2 0x4E6B DUP3 PUSH2 0x4E2A JUMP JUMPDEST PUSH1 0x20 DUP3 ADD SWAP1 POP SWAP2 SWAP1 POP JUMP JUMPDEST PUSH1 0x0 PUSH1 0x20 DUP3 ADD SWAP1 POP DUP2 DUP2 SUB PUSH1 0x0 DUP4 ADD MSTORE PUSH2 0x4E8F DUP2 PUSH2 0x4E53 JUMP JUMPDEST SWAP1 POP SWAP2 SWAP1 POP JUMP JUMPDEST PUSH32 0x496E76616C69642070657263656E746167650000000000000000000000000000 PUSH1 0x0 DUP3 ADD MSTORE POP JUMP JUMPDEST PUSH1 0x0 PUSH2 0x4ECC PUSH1 0x12 DUP4 PUSH2 0x3E00 JUMP JUMPDEST SWAP2 POP PUSH2 0x4ED7 DUP3 PUSH2 0x4E96 JUMP JUMPDEST PUSH1 0x20 DUP3 ADD SWAP1 POP SWAP2 SWAP1 POP JUMP JUMPDEST PUSH1 0x0 PUSH1 0x20 DUP3 ADD SWAP1 POP DUP2 DUP2 SUB PUSH1 0x0 DUP4 ADD MSTORE PUSH2 0x4EFB DUP2 PUSH2 0x4EBF JUMP JUMPDEST SWAP1 POP SWAP2 SWAP1 POP JUMP JUMPDEST PUSH32 0x4E6F74207469636B6574206F776E657200000000000000000000000000000000 PUSH1 0x0 DUP3 ADD MSTORE POP JUMP JUMPDEST PUSH1 0x0 PUSH2 0x4F38 PUSH1 0x10 DUP4 PUSH2 0x3E00 JUMP JUMPDEST SWAP2 POP PUSH2 0x4F43 DUP3 PUSH2 0x4F02 JUMP JUMPDEST PUSH1 0x20 DUP3 ADD SWAP1 POP SWAP2 SWAP1 POP JUMP JUMPDEST PUSH1 0x0 PUSH1 0x20 DUP3 ADD SWAP1 POP DUP2 DUP2 SUB PUSH1 0x0 DUP4 ADD MSTORE PUSH2 0x4F67 DUP2 PUSH2 0x4F2B JUMP JUMPDEST SWAP1 POP SWAP2 SWAP1 POP JUMP JUMPDEST PUSH1 0x0 PUSH1 0x60 DUP3 ADD SWAP1 POP PUSH2 0x4F83 PUSH1 0x0 DUP4 ADD DUP7 PUSH2 0x3FD2 JUMP JUMPDEST PUSH2 0x4F90 PUSH1 0x20 DUP4 ADD DUP6 PUSH2 0x3F3C JUMP JUMPDEST PUSH2 0x4F9D PUSH1 0x40 DUP4 ADD DUP5 PUSH2 0x3F3C JUMP JUMPDEST SWAP5 SWAP4 POP POP POP POP JUMP JUMPDEST PUSH32 0x4E6F74206576656E74206F7267616E697A657200000000000000000000000000 PUSH1 0x0 DUP3 ADD MSTORE POP JUMP JUMPDEST PUSH1 0x0 PUSH2 0x4FDB PUSH1 0x13 DUP4 PUSH2 0x3E00 JUMP JUMPDEST SWAP2 POP PUSH2 0x4FE6 DUP3 PUSH2 0x4FA5 JUMP JUMPDEST PUSH1 0x20 DUP3 ADD SWAP1 POP SWAP2 SWAP1 POP JUMP JUMPDEST PUSH1 0x0 PUSH1 0x20 DUP3 ADD SWAP1 POP DUP2 DUP2 SUB PUSH1 0x0 DUP4 ADD MSTORE PUSH2 0x500A DUP2 PUSH2 0x4FCE JUMP JUMPDEST SWAP1 POP SWAP2 SWAP1 POP JUMP JUMPDEST PUSH1 0x0 DUP2 SWAP1 POP SWAP3 SWAP2 POP POP JUMP JUMPDEST PUSH1 0x0 PUSH2 0x5027 DUP3 PUSH2 0x3DF5 JUMP JUMPDEST PUSH2 0x5031 DUP2 DUP6 PUSH2 0x5011 JUMP JUMPDEST SWAP4 POP PUSH2 0x5041 DUP2 DUP6 PUSH1 0x20 DUP7 ADD PUSH2 0x3E11 JUMP JUMPDEST DUP1 DUP5 ADD SWAP2 POP POP SWAP3 SWAP2 POP POP JUMP JUMPDEST PUSH1 0x0 PUSH2 0x5059 DUP3 DUP6 PUSH2 0x501C JUMP JUMPDEST SWAP2 POP PUSH2 0x5065 DUP3 DUP5 PUSH2 0x501C JUMP JUMPDEST SWAP2 POP DUP2 SWAP1 POP SWAP4 SWAP3 POP POP POP JUMP JUMPDEST PUSH32 0x7072696365206D7573742062652067726561746572207468616E203000000000 PUSH1 0x0 DUP3 ADD MSTORE POP JUMP JUMPDEST PUSH1 0x0 PUSH2 0x50A7 PUSH1 0x1C DUP4 PUSH2 0x3E00 JUMP JUMPDEST SWAP2 POP PUSH2 0x50B2 DUP3 PUSH2 0x5071 JUMP JUMPDEST PUSH1 0x20 DUP3 ADD SWAP1 POP SWAP2 SWAP1 POP JUMP JUMPDEST PUSH1 0x0 PUSH1 0x20 DUP3 ADD SWAP1 POP DUP2 DUP2 SUB PUSH1 0x0 DUP4 ADD MSTORE PUSH2 0x50D6 DUP2 PUSH2 0x509A JUMP JUMPDEST SWAP1 POP SWAP2 SWAP1 POP JUMP JUMPDEST PUSH1 0x0 PUSH1 0x40 DUP3 ADD SWAP1 POP PUSH2 0x50F2 PUSH1 0x0 DUP4 ADD DUP6 PUSH2 0x3FD2 JUMP JUMPDEST PUSH2 0x50FF PUSH1 0x20 DUP4 ADD DUP5 PUSH2 0x3FD2 JUMP JUMPDEST SWAP4 SWAP3 POP POP POP JUMP JUMPDEST PUSH1 0x0 DUP2 MLOAD SWAP1 POP SWAP2 SWAP1 POP JUMP JUMPDEST PUSH1 0x0 DUP3 DUP3 MSTORE PUSH1 0x20 DUP3 ADD SWAP1 POP SWAP3 SWAP2 POP POP JUMP JUMPDEST PUSH1 0x0 PUSH2 0x512D DUP3 PUSH2 0x5106 JUMP JUMPDEST PUSH2 0x5137 DUP2 DUP6 PUSH2 0x5111 JUMP JUMPDEST SWAP4 POP PUSH2 0x5147 DUP2 DUP6 PUSH1 0x20 DUP7 ADD PUSH2 0x3E11 JUMP JUMPDEST PUSH2 0x5150 DUP2 PUSH2 0x3E3B JUMP JUMPDEST DUP5 ADD SWAP2 POP POP SWAP3 SWAP2 POP POP JUMP JUMPDEST PUSH1 0x0 PUSH1 0x80 DUP3 ADD SWAP1 POP PUSH2 0x5170 PUSH1 0x0 DUP4 ADD DUP8 PUSH2 0x3F3C JUMP JUMPDEST PUSH2 0x517D PUSH1 0x20 DUP4 ADD DUP7 PUSH2 0x3F3C JUMP JUMPDEST PUSH2 0x518A PUSH1 0x40 DUP4 ADD DUP6 PUSH2 0x3FD2 JUMP JUMPDEST DUP2 DUP2 SUB PUSH1 0x60 DUP4 ADD MSTORE PUSH2 0x519C DUP2 DUP5 PUSH2 0x5122 JUMP JUMPDEST SWAP1 POP SWAP6 SWAP5 POP POP POP POP POP JUMP JUMPDEST PUSH1 0x0 DUP2 MLOAD SWAP1 POP PUSH2 0x51B6 DUP2 PUSH2 0x3D66 JUMP JUMPDEST SWAP3 SWAP2 POP POP JUMP JUMPDEST PUSH1 0x0 PUSH1 0x20 DUP3 DUP5 SUB SLT ISZERO PUSH2 0x51D2 JUMPI PUSH2 0x51D1 PUSH2 0x3D30 JUMP JUMPDEST JUMPDEST PUSH1 0x0 PUSH2 0x51E0 DUP5 DUP3 DUP6 ADD PUSH2 0x51A7 JUMP JUMPDEST SWAP2 POP POP SWAP3 SWAP2 POP POP JUMP JUMPDEST PUSH1 0x0 PUSH1 0x40 DUP3 ADD SWAP1 POP PUSH2 0x51FE PUSH1 0x0 DUP4 ADD DUP6 PUSH2 0x3F3C JUMP JUMPDEST PUSH2 0x520B PUSH1 0x20 DUP4 ADD DUP5 PUSH2 0x3FD2 JUMP JUMPDEST SWAP4 SWAP3 POP POP POP JUMP INVALID LOG2 PUSH5 0x6970667358 0x22 SLT KECCAK256 0xD1 MSIZE 0x2D 0xE4 PUSH15 0xA6177A1D66B730357A32790F40EB74 RETURN PUSH31 0x9AC6B10B67158C93FBD964736F6C634300081C003300000000000000000000 "},"methodIdentifiers":{"approve(address,uint256)":"095ea7b3","balanceOf(address)":"70a08231","buyResaleTicket(uint256)":"1d9c5d5c","buyTicket(uint256,uint256)":"298ec208","createEvent(string,string,string,string,string,uint256,uint256)":"204b7d90","events(uint256)":"0b791430","getApproved(uint256)":"081812fc","isApprovedForAll(address,address)":"e985e9c5","listTicketForSale(uint256,uint256)":"d524d32d","name()":"06fdde03","nextEventId()":"9f9d903a","nextTicketId()":"6031a52f","owner()":"8da5cb5b","ownerOf(uint256)":"6352211e","pauseMarketPlace()":"2d21a464","paused()":"5c975abb","platformFeePercent()":"8c639a85","renounceOwnership()":"715018a6","resumeMarketPlace()":"e2082e79","royaltyPercent()":"9f67756d","safeTransferFrom(address,address,uint256)":"42842e0e","safeTransferFrom(address,address,uint256,bytes)":"b88d4fde","secondarySaleTicketPrices(uint256)":"f0a38cb0","setAdmin(address)":"704b6c02","setApprovalForAll(address,bool)":"a22cb465","setPlatformFeePercentage(uint256)":"8333903e","setRoyaltyPercentage(uint256)":"61ba27da","setTicketPrice(uint256,uint256)":"aa4c4cc1","setTreasuryWallet(address)":"a8602fea","supportsInterface(bytes4)":"01ffc9a7","symbol()":"95d89b41","tcoin()":"85fc4550","tickets(uint256)":"50b44712","tokenURI(uint256)":"c87b56dd","transferFrom(address,address,uint256)":"23b872dd","transferOwnership(address)":"f2fde38b","transferTicket(uint256,address)":"679ebf1a","treasuryWallet()":"4626402b","verifyTicket(uint256)":"543cb81f"}}}}}